:100000000C9426010C944E010C944E010C944E015C
:100010000C944E010C944E010C944E010C944E0124
:100020000C944E010C944E010C944E010C944E0114
:100030000C944E010C944E010C944E010C944E0104
:100040000C940C0E0C944E010C947C0E0C94560ED9
:100050000C944E010C944E010C944E010C944E01E4
:100060000C944E010C944E015030372053656C6552
:100070006363696F6E616461202D2D3E2053656E50
:10008000736F72204D6F76696D69656E746F20288D
:100090005049522900503620494E5445525255502D
:1000A000544F522053656C656363696F6E61646F72
:1000B00000503520494E544552525550544F52200D
:1000C00053656C656363696F6E61646F00503420C3
:1000D000434F4E4D555441444F522053656C656318
:1000E00063696F6E61646F00503420494E5445520D
:1000F000525550544F522053656C656363696F6E5F
:1001000061646F00503320434F4E4D555441444F6E
:10011000522053656C656363696F6E61646F005054
:100120003120434F4E4D555441444F522053656C3E
:10013000656363696F6E61646F00503120494E548E
:100140004552525550544F522053656C6563636954
:100150006F6E61646F0050312050554C5341444FD5
:100160005245532053656C656363696F6E61646FBC
:10017000004F4646004F4E00202D2D3E2050756CFE
:100180007361646F00202D2D3E20536F6C74616489
:100190006F004F4646004F4E00436F6E6D757461A1
:1001A000646F72202D2D3E20004153594E57414916
:1001B00054205445524D494E41444F005030372051
:1001C000416E65786F2033202D20454550524F4DAC
:1001D0002028416C6D6163656E617220436F6E66AD
:1001E000696775726163696F6E657329000000004D
:1001F00000240027002A0000000000250028002B12
:100200000000000000230026002900040404040468
:1002100004040402020202020203030303030301B3
:10022000020408102040800102040810200102048A
:10023000081020000000080002010000030407006D
:1002400000000000000000002A10C71211241FBE89
:10025000CFEFD8E0DEBFCDBF25E0A2E9B2E001C01C
:100260001D92A335B207E1F712E0A0E0B1E0ECEB9C
:10027000FFE202C005900D92A239B107D9F711E053
:10028000C5E2D1E004C02197FE010E943813C432B8
:10029000D107C9F70E9479110C94D1170C94000072
:1002A000833081F028F4813099F08230A9F00895EC
:1002B0008730A9F08830C9F08430B1F48091800093
:1002C0008F7D03C0809180008F7780938000089598
:1002D00084B58F7784BD089584B58F7DFBCF8091E1
:1002E000B0008F778093B00008958091B0008F7D2B
:1002F000F9CF0F931F93CF93DF93FC012581222326
:1003000009F455C0EC0186819781009731F001977F
:1003100009F437C090E080E023C0208130E0F9018B
:10032000ED5CFD4F8491F901E15EFD4F0491F9010F
:10033000E55FFD4F1491112369F381110E94500173
:10034000E12FF0E0EE0FFF1FEF5FFD4FA591B4919D
:10035000EC910E2331E020E009F430E0832F922F5E
:1003600029813A812817390711F19A838983E8890D
:10037000F9893097E1F0CE01DF91CF911F910F9174
:10038000099480818E3008F08E508770806480934D
:100390007C0080917A00806480937A0080917A005A
:1003A00086FDFCCF8091780090917900D9CFDF91C4
:1003B000CF911F910F910895CF93DF93EC01888126
:1003C00099810E947901EC81FD81A881B981119602
:1003D0008D919C91208131812817390751F09183AB
:1003E0008083EE85FF85309721F0CE01DF91CF919C
:1003F0000994DF91CF9108951F93CF93DF93282F16
:1004000030E0F901ED5CFD4F8491F901E15EFD4FB3
:10041000D491F901E55FFD4FC491CC23A9F0162FCB
:1004200081110E945001EC2FF0E0EE0FFF1FE95008
:10043000FE4FA591B4918FB7F894EC91111108C0BB
:10044000D095DE23DC938FBFDF91CF911F9108956C
:10045000DE2BF8CFCF93DF9390E0FC01E15EFD4F00
:100460002491855F9D4FFC0184918823D1F090E019
:10047000880F991FFC01E351FE4FA591B491FC0137
:10048000E950FE4FC591D49161110EC09FB7F89409
:100490008C91E22FE0958E238C932881E223E883D0
:1004A0009FBFDF91CF9108958FB7F894EC91E22B25
:1004B000EC938FBFF6CF3FB7F8948091B60290913E
:1004C000B702A091B802B091B90226B5A89B05C0A9
:1004D0002F3F19F00196A11DB11D3FBFBA2FA92FC3
:1004E000982F8827BC01CD01620F711D811D911DC0
:1004F00042E0660F771F881F991F4A95D1F708952C
:100500008F929F92AF92BF92CF92DF92EF92FF9223
:100510004B015C010E945B026B017C010E945B024B
:100520006C197D098E099F09683E7340810591050C
:10053000A8F321E0821A9108A108B10888EEC80E3C
:1005400083E0D81EE11CF11C81149104A104B104C4
:1005500029F7FF90EF90DF90CF90BF90AF909F90E2
:100560008F9008950F931F93CF93DF938C01C62F25
:1005700080917003823074F09091C00090649093E9
:10058000C00061E00E94FC0161E070E080E090E06A
:100590000E948002902FF8012FEF3FEF81912827D2
:1005A00088E0A9014170552736952795452B21F004
:1005B00041E0242740EA3427815099F78E2F891B88
:1005C0008C1760F3322723273227F801EC0FF11D37
:1005D0003083E1E0EC0FE00FF12FF11D2083CE5FBF
:1005E0008091BA029091BB02D0E0DC01ED91FC91C8
:1005F0000280F381E02DAE01B80109956AE070E058
:1006000080E090E00E9480028091700382303CF094
:100610009091C00096FFFCCF60E00E94FC01CE01EB
:10062000DF91CF911F910F9108950F931F93CF9357
:10063000DF93CDB7DEB7C054D1090FB6F894DEBF53
:100640000FBECDBF90916F0399838A8381E08B8326
:10065000DB01AA0FBB1FA20FB31FCB0120E0460F87
:10066000572F511D382F361B8417950770F40D91A5
:100670001D91E1E0F0E0012B09F4E0E001C0EE0F94
:100680003A95EAF72E2B0196EDCF2C8364E0CE014C
:1006900001960E94B202C05CDF4F0FB6F894DEBF35
:1006A0000FBECDBFDF91CF911F910F910895EF92B3
:1006B000FF920F931F93CF93DF93CDB7DEB7C05454
:1006C000D1090FB6F894DEBF0FBECDBF90916F0376
:1006D00099838A83842F880F8B83CB01880F991F7E
:1006E000280F391FDE0111967B0163E070E0CD0118
:1006F0004E0D5F2D511D1296E416F50688F4F90192
:10070000108101812E5F3F4F11960C931197129625
:100710001C9312976E5F7F4FFFEFEF1AFF0AEBCF2C
:100720000E94B202C05CDF4F0FB6F894DEBF0FBE6E
:10073000CDBFDF91CF911F910F91FF90EF90089562
:10074000AF92BF92CF92DF92EF92FF920F931F93DF
:10075000CF93DF936C017B018B01040F151FEB011D
:100760005E01AE18BF08C017D10759F06991D601D4
:10077000ED91FC910190F081E02DC6010995892B46
:1007800079F7C501DF91CF911F910F91FF90EF9005
:10079000DF90CF90BF90AF900895FC01538D448DB2
:1007A000252F30E0842F90E0821B930B541710F01C
:1007B000CF96089501970895FC01918D828D981729
:1007C00061F0A28DAE0FBF2FB11D5D968C91928D01
:1007D0009F5F9F73928F90E008958FEF9FEF089532
:1007E000FC01918D828D981731F0828DE80FF11DFB
:1007F000858D90E008958FEF9FEF0895FC01918D16
:10080000228D892F90E0805C9F4F821B91098F730E
:10081000992708958CEB92E00E94FE0321E0892B3A
:1008200009F420E0822F089580E090E0892B29F0E0
:100830000E940A0481110C9400000895FC01A48D0B
:10084000A80FB92FB11DA35ABF4F2C91848D90E0F2
:1008500001968F739927848FA689B7892C93A089D5
:10086000B1898C91837080648C93938D848D98135F
:1008700006C00288F389E02D80818F7D80830895F2
:10088000EF92FF920F931F93CF93DF93EC0181E0E0
:10089000888F9B8D8C8D98131AC0E889F989808187
:1008A00085FF15C09FB7F894EE89FF896083E889BA
:1008B000F98980818370806480839FBF81E090E0AC
:1008C000DF91CF911F910F91FF90EF900895F62E39
:1008D0000B8D10E00F5F1F4F0F731127E02E8C8DD3
:1008E0008E110CC00FB607FCFACFE889F989808118
:1008F00085FFF5CFCE010E941E04F1CFEB8DEC0FEA
:10090000FD2FF11DE35AFF4FF0829FB7F8940B8F34
:10091000EA89FB8980818062CFCF0F931F93CF93A9
:10092000DF938C01D0E0C0E0F801EC0FFD1F649173
:10093000662341F08CEB92E00E944004892B11F079
:100940002196F2CFCE01DF91CF911F910F910895A3
:10095000CF93DF93EC01888D8823B9F0AA89BB89F6
:10096000E889F9898C9185FD03C0808186FD0DC0E1
:100970000FB607FCF7CF8C9185FFF2CF808185FF02
:10098000EDCFCE010E941E04E9CFDF91CF910895F3
:100990001F93CF93DF93FC012181261731F0162F8F
:1009A000EC0180810E94FC011983DF91CF911F919E
:1009B000089580915D0390915E0380359105C0F4A8
:1009C0008FEA94E00E94790189EC94E00E94790119
:1009D00083EE94E00E9479018DEF94E00E9479010A
:1009E00087E195E00E94790181E395E00C9479011B
:1009F00089E394E00E94DC018BE494E00E94DC0136
:100A00008DE594E00E94DC018FE694E00E94DC0119
:100A100081E894E00E94DC0183E994E00C94DC011D
:100A2000FB0101900020E9F73197AF01461B570BFE
:100A3000DC01ED91FC910280F381E02D0994CF93CC
:100A4000DF930E948D04EC0163E371E08CEB92E094
:100A50000E9410058C0F9D1FDF91CF9108950F9379
:100A60001F93CF93DF93EC010E9410058C0163E389
:100A700071E0CE010E941005800F911FDF91CF9190
:100A80001F910F9108950F931F93CF93DF938C01C4
:100A9000EB018CEB92E00E942F05F801808191819F
:100AA000009739F0BE01DF91CF911F910F910C9407
:100AB0002F05DF91CF911F910F910895EF92FF9233
:100AC0000F931F93CF93DF938C01D62FC0E0D801F3
:100AD00012968D919C911397C8171906E4F41496F9
:100AE000ED91FC91E080F18080E0309759F466E36D
:100AF00071E0C8010E9443056D2FC7010E94C80420
:100B0000CF5FE5CFC817C1F30280F381E02DE0800D
:100B1000F1808F5FF7CFDF91CF911F910F91FF9001
:100B2000EF900895CF93DF93EC014B815C81298195
:100B30003A814217530771F589E991E00E948D04CB
:100B40008091A9029091AA02892BE9F481E090E0BA
:100B50009093AA028093A90286E991E00E941F0562
:100B60008C899D8918161906ACF461E08091A90260
:100B70009091AA02892B09F460E0CE014296DF91A0
:100B8000CF910C945E051092AA021092A90282E9FC
:100B900091E0E4CFDF91CF910895CF93DF93EC0103
:100BA0004E855F856A857B858CEB92E00E94A00371
:100BB0002B813C8189819A8128173907C1F485E806
:100BC00091E00E941F058C899D891816190694F4DE
:100BD00061E02B813C8189819A812817390709F4CA
:100BE00060E0CE014296DF91CF910C945E0588E7DC
:100BF00091E0E7CFDF91CF910895BF92CF92DF923E
:100C0000EF92FF920F931F93CF93DF938C016B01B1
:100C1000D0E0C0E0862F8170B82ED80112968D9159
:100C20009C911397C817D907ACF59C2F1496ED919A
:100C3000FC91E080F18080E0309719F566E371E087
:100C4000C8010E944305D7011296ED91FC912081C5
:100C500031816B2DB2E0CB16D10429F461E021156E
:100C6000310509F060E0862F90E08217930739F094
:100C700091838083F701808191810E94C80421962D
:100C8000CCCF891700F70280F381E02DE080F1805E
:100C90008F5FF7CFDF91CF911F910F91FF90EF9072
:100CA000DF90CF90BF9008950F931F93CF93DF9362
:100CB000EC01A881B981E889F98913964D915C917D
:100CC000149711962D913C9142175307D9F02FB7E5
:100CD000F8944091B2025091B3026091B4027091C5
:100CE000B5022FBF428353836483758321E0218340
:100CF000108261E070E00696DF91CF911F910F9115
:100D00000C94FD0521812223B1F12FB7F894409175
:100D1000B2025091B3026091B4027091B5022FBF3C
:100D200002811381248135814017510762077307BF
:100D300020F44150510961097109401B510B620BAC
:100D4000730BA681B7810D90BC91A02D28EE33E0E6
:100D5000A29F8001A39F100DB29F100D112430E0BF
:100D600020E04017510762077307B0F0118212822A
:100D7000138214821582E889F989208121110CC01F
:100D800089EA91E00E941F05E889F98981E0808362
:100D900070E060E0CE01AFCFDF91CF911F910F9156
:100DA0000895DC01ED91FC914381548121813281D0
:100DB0004217530729F462E070E006960C94FD0593
:100DC00008950C94D106EF92FF920F931F93CF9347
:100DD000DF93EC017B010E811F8184E090E00E9493
:100DE0003E139F838E83892B29F469E671E0CE013F
:100DF0000E944305EE81FF8113821282F182E0821C
:100E00008C819D81892B71F4FD83EC838A819B8188
:100E100001969B838A83DF91CF911F910F91FF9061
:100E2000EF900895D8011396FC93EE931297EECFAE
:100E3000EF92FF920F931F93CF93DF93EC017B010F
:100E40000E811F8184E090E00E943E139F838E8379
:100E5000892B29F469E671E0CE010E944305EE81F9
:100E6000FF8113821282F182E0828C819D81892B25
:100E700071F4FD83EC838A819B8101969B838A8335
:100E8000DF91CF911F910F91FF90EF900895D801BE
:100E90001396FC93EE931297EECF0F931F93CF937D
:100EA000DF938C01C0918B03D0918C0384E090E0A0
:100EB0000E943E1390938C0380938B03892B31F413
:100EC00069E671E085E893E00E944305E0918B03B9
:100ED000F0918C0313821282118300838091890325
:100EE00090918A03892B91F4F0938A03E09389030C
:100EF0008091870390918803019690938803809353
:100F00008703DF91CF911F910F910895FB83EA83AF
:100F1000EFCFCF93DF93EC012B813C8189819A81C4
:100F200028173907D1F44E855F856A857B858CEB60
:100F300092E00E94A0036AE971E08CEB92E00E94CB
:100F4000100588859985892BC9F481E090E09987FF
:100F5000888785E791E00E941F058C899D89181676
:100F600019068CF461E088859985892B09F460E085
:100F7000CE014296DF91CF910C945E0519861886BA
:100F800081E791E0E8CFDF91CF9108950F931F9310
:100F9000CF93DF93EC018C819D81009769F0FC0178
:100FA000028113810E94DA131D830C838A819B8145
:100FB00001979B838A83EFCF81E0DF91CF911F91CF
:100FC0000F910895CF93DF93EC0144960E94C607DA
:100FD0001B8A1A8ACE018E960E94C6071DA61CA6E1
:100FE000CE01885B9F4F0E94C607FE01EA5BFF4F60
:100FF00011821082CE018E599F4F0E94C607FE01BA
:10100000E05AFF4F118210827A9611821082CE012F
:1010100084589F4F0E94C607FE01EC56FF4F118275
:101020001082CE018A569F4FDF91CF910C94C60754
:101030000F931F93CF93DF93EC018C819D810097D9
:1010400069F0FC01028113810E94DA131D830C8375
:101050008A819B8101979B838A83EFCF81E0DF9117
:10106000CF911F910F910895CF93DF93EC01865597
:101070009F4F0E941808FE01EE54FF4F118210820C
:10108000CE0184549F4F0E941808FE01EC53FF4F7D
:1010900011821082CE0182539F4F0E941808FE01D8
:1010A000EA52FF4F11821082CE0180529F4F0E9460
:1010B0001808FE01E851FF4F11821082CE018E50B8
:1010C0009F4F0E941808FE01E650FF4F11821082C8
:1010D000CE018C5F9E4F0E941808C45FDE4F1982BC
:1010E0001882DF91CF910895CF93DF938DEA94E03A
:1010F0000E94E20785E993E00E9434088091910301
:1011000090919203009799F0FC01C281D3810E94D3
:10111000DA13D0939203C093910380918F0390913F
:10112000900301979093900380938F03E7CFDF9113
:10113000CF9108950F931F93CF93DF93EC010C8110
:101140001D81012B51F08C819D81FC010281138155
:101150000E94DA131D830C83F4CFDF91CF911F918E
:101160000F910895CF93DF93EC0142960E949A0865
:101170008A859B85009721F0DF91CF910C94DA133B
:10118000DF91CF910895CF93DF93EC0181E191E05E
:1011900099838883CE018C579F4F0E94B208CE015D
:1011A00086599F4F0E94B208CE01805B9F4F0E94DC
:1011B000B208CE01C6960E94B208CE014C960E949B
:1011C000B208CE010296DF91CF910C94B208CF9372
:1011D000DF93EC010E94C308CE01DF91CF910C9404
:1011E000DA13CF93DF93EC018DE291E0998388834A
:1011F000CE018C5F9E4F0E949A08CE018E509F4F69
:101200000E949A08CE0180529F4F0E949A08CE01F8
:1012100082539F4F0E949A08CE0184549F4F0E9490
:101220009A08CE0186559F4F0E949A08CE01DF9101
:10123000CF910C94C308CF93DF93EC010E94F10887
:10124000CE01DF91CF910C94DA13EF92FF921F93AE
:10125000CF93DF93CDB7DEB7C456D1090FB6F8945C
:10126000DEBF0FBECDBF90E080E00E94D71290E0BD
:10127000009711F481E190E090935E0380935D0309
:101280009F938F938CE092E09F938F93CE01019672
:101290007C019F938F930E943015B7018CEB92E0F5
:1012A0000E942F0581E090E00E94D712282F30E0A5
:1012B00030936603209365031F928F9388E292E038
:1012C0009F938F93FF92EF920E943015B7018CEBA2
:1012D00092E00E942F0582E090E00E94D712182F22
:1012E00083E090E00E94D712212F30E0322F222796
:1012F000820F932F911D9093600380935F039F93C0
:101300008F9389E392E09F938F93FF92EF920E94D5
:101310003015B7018CEB92E00E942F050FB6F894C0
:10132000DEBF0FBECDBFCC59DF4F0FB6F894DEBF86
:101330000FBECDBFDF91CF911F91FF90EF90089529
:10134000FF920F931F93CF93DF93EC01F62E08814A
:101350001981C8010E94D712F81621F06F2DC8011B
:101360000E94DF12CE01DF91CF911F910F91FF906C
:1013700008952F923F924F925F926F927F928F9239
:101380009F92AF92BF92CF92DF92EF92FF920F9314
:101390001F93CF93DF93CDB7DEB7CC56D1090FB6ED
:1013A000F894DEBF0FBECDBF8091BA029091BB0210
:1013B000DC01ED91FC910084F185E02D09958C0113
:1013C0000E945B0201151105F1F410929702109230
:1013D0009602C459DF4F0FB6F894DEBF0FBECDBFE3
:1013E000DF91CF911F910F91FF90EF90DF90CF9001
:1013F000BF90AF909F908F907F906F905F904F9035
:101400003F902F90089520919602309197020217F5
:101410001307C9F01093970200939602009181037D
:10142000109182032091830330918403600F711F18
:10143000821F931F60939202709393028093940291
:1014400090939502C6CF0091920210919302209141
:10145000940230919502601771078207930708F490
:10146000B8CF10929702109296028E010F5F1F4F15
:101470006801F12CE12C8091BA029091BB02DC0151
:10148000ED91FC910084F185E02D0995892B09F4FB
:1014900076C08091BA029091BB02DC01ED91FC9183
:1014A0000284F385E02D0995F60181936F01FFEF2A
:1014B000EF1AFF0A20E4E216F104E9F6F12CE12C20
:1014C000CC24C394D12C61E0B1E0EB16F10409F413
:1014D00071C1E2E0EE16F10409F476C18091610376
:1014E00090916203892B09F460E08BE495E00E94FF
:1014F000C804FFEFEF1AFF0A23E0E216F10419F720
:10150000312C212C9DECC92E95E0D92E21ED622E97
:1015100026E0722E31EE432E36E0532E49E8A42EFB
:1015200047E0B42E52E9E52E55E0F52E41E02416B1
:10153000310409F447C360915D031A821982C8011E
:101540000E94A00980915D039091A802891779F00B
:101550008093A802813409F4B9C208F072C18231C3
:1015600009F482C208F042C1813109F46AC22A94A6
:10157000232809F42ECF22242394312CD7CFE11431
:10158000F10409F426CF3EEF3E0DF8018FEF9FEFF7
:101590002E2F201B231788F42191822728E0AC01ED
:1015A0004170552796958795452B21F041E084277A
:1015B00040EA9427215099F7EBCFEFEFFFEFEC0FC4
:1015C000FD1FEE0DFF1D2081FE01EE0DFF1D308180
:1015D0002327322723279827892798272817390771
:1015E00009F06CCFE0916F038981E81367CF8A819E
:1015F000A6E0B1E09D91981709F4F7C291E0AD30F3
:10160000B907C1F791E0A696EFAFA6978058A796C5
:101610008FAFA797A8969FAFA89763E0CE018B598D
:101620009F4F0E94B2024ACF4D8150E0542F442771
:101630006E81640F752F711D20917B0330917C03A7
:10164000823031F08130A1F52091790330917A0315
:1016500048E06115710509F440C046171706E8F126
:101660004B81A42FB0E0BA2FAA274C814A0F5B2FE1
:10167000511D460F571F2417350708F4CBC26B8145
:1016800070E0762F66278C81680F711D933009F406
:101690005EC028F5913009F44DC0923009F00ECFAC
:1016A00020917303309174034E8182E090E049C031
:1016B000843031F420917F033091800349E1C9CF18
:1016C000833029F420917D0330917E03F7CF803160
:1016D00089F330E020E040E0BCCF93E094CF953038
:1016E00009F445C0E8F1963009F0E8CE4091750361
:1016F000509176032D813E81322723273227A696EB
:10170000EFAFA697A7969FAFA797A8967FAFA8978A
:10171000A9966FAFA997AA963FAFAA97AB962FAF9E
:10172000AB97660F771FFA01E60FF71F318320830F
:1017300066E074CF20917103309172034E8181E095
:1017400090E00E941503892B09F0B8CE42CE20917B
:101750007503309176034E8183E00E945703F3CFE7
:1017600020917703309178034E8184E0F6CF409149
:101770007103509172032D813E8132272327322736
:10178000A696EFAFA697A7969FAFA797A8967FAF0D
:10179000A897A9966FAFA997AA963FAFAA97AB96BD
:1017A0002FAFAB97660F771F640F751FDB012D936B
:1017B0003C93BECF8091630390916403892B09F41D
:1017C00060E08DE495E093CE80916503909166038F
:1017D000892B09F460E0E0916F04F0917004658357
:1017E000DA82C982C8010E94A00983CE833109F43C
:1017F0005AC1823309F0BBCE84E091E00E941F05FC
:101800000E947408F092C004E092BF046BE475E09B
:1018100081EC94E00E941807F092DA04E092D90477
:101820006BE475E08BED94E00E941807F092F404ED
:10183000E092F3046BE475E085EF94E00E941807F2
:1018400096CE843509F47EC1C8F5823409F45BC1B3
:10185000833409F08CCE8DEC90E00E941F050E942D
:101860007408F092C004E092BF046BE475E081EC70
:1018700094E00E9418076DE475E081EC94E00E940A
:101880001807F092DA04E092D9046BE475E08BED6E
:1018900094E00E9418076DE475E08BED94E00E94DF
:1018A0001807F092F404E092F3046BE475E085EF1E
:1018B00094E00E9418076DE475E0BECF823609F40B
:1018C0005CC1803709F053CE88E690E00E941F0586
:1018D0008091A00281110DC01092990210929A027B
:1018E00010929B0210929C0210929D0281E08093C4
:1018F000A0020E947408E0916F04F0917004992492
:101900009394958281E090E09093660380936503C1
:10191000809160038F9380915F038F93ACE7B2E077
:10192000BF93AF931F930F930E943015B8018CEBB8
:1019300092E00E942F058FE593E090939F028093A1
:101940009E022FB7F8948091B2029091B302A091B9
:10195000B402B091B5022FBF80939A0290939B027C
:10196000A0939C02B0939D029092990210929802CB
:10197000A8E9B2E0B0938004A0937F04E4E5F6E028
:10198000F0937E04E0937D0469EA74E085E794E0D7
:101990000E94E306509248044092470465EA74E0CE
:1019A0008FE394E00E94E30650925A044092590457
:1019B00065EA74E081E594E00E94E30650926C04CD
:1019C00040926B0465EA74E083E694E00E94E306CB
:1019D000809093039090940384E090E00E943E13E3
:1019E00090939403809393030F900F900F900F9018
:1019F0000F900F90892B31F469E671E08DE893E048
:101A00000E944305E0919303F091940313821282A4
:101A10008FE694E09183808380919103909192036B
:101A2000892B09F0C9C0F0939203E0939103809150
:101A30008F039091900301969093900380938F036E
:101A400096CD86E591E00E941F050E947408D09211
:101A5000C004C092BF04D092DA04C092D904D092DC
:101A6000F404C092F30483CD8AE391E00E941F0541
:101A70000E947408B092C004A092BF041092B804EF
:101A80001092B704B092DA04A092D9041092D20452
:101A90001092D104B092F404A092F3041092EC04DA
:101AA0001092EB0464CD8FE191E00E941F050E942B
:101AB0007408F092C004E092BF04F092DA04E0925D
:101AC000D904F092F404E092F30451CD60E672E0A0
:101AD0008CEB92E00E942F050E947408D092C00403
:101AE000C092BF046BE475E081EC94E00E9418079B
:101AF000D092DA04C092D9046DE475E08BED94E0E5
:101B00000E941807ACCF88EE90E00E941F050E944B
:101B10007408B092C004A092BF046BE475E081EC3D
:101B200094E00E941807B092DA04A092D9046DE400
:101B300075E08BED94E00E941807B092F404A09237
:101B4000F30415CD81EB90E00E941F050E947408FC
:101B5000709248046092470465EA74E08FE394E071
:101B60000E94E30670925A046092590469EA74E094
:101B700081E594E00E94E306FACC85E990E00E94BA
:101B80001F050E947408709248046092470469EA35
:101B900074E08FE394E00E94E30670925A0460922E
:101BA000590465EA74E081E594E00E94E3067092CE
:101BB0006C0460926B04DBCCD4011396FC93EE931F
:101BC000129735CF60916003E2E0F0E0FA83E98399
:101BD000C8010E94A00960915F0383E090E09A83AE
:101BE0008983C8010E94A009C2CC863009F447CD80
:101BF000853009F019CD2B8130E0322F22274C811E
:101C0000240F311D4091790350917A032417350731
:101C100008F435CD92E0F7CC1F920F920FB60F92D9
:101C200011242F933F938F939F93AF93BF938091F2
:101C3000B2029091B302A091B402B091B50230917A
:101C4000B10223E0230F2D3758F50196A11DB11DD8
:101C50002093B1028093B2029093B302A093B40296
:101C6000B093B5028091B6029091B702A091B802EC
:101C7000B091B9020196A11DB11D8093B602909357
:101C8000B702A093B802B093B902BF91AF919F91F0
:101C90008F913F912F910F900FBE0F901F9018952D
:101CA00026E8230F0296A11DB11DD2CF1F920F92DD
:101CB0000FB60F9211242F933F934F935F936F931F
:101CC0007F938F939F93AF93BF93EF93FF938CEB8F
:101CD00092E00E941E04FF91EF91BF91AF919F91FE
:101CE0008F917F916F915F914F913F912F910F90C5
:101CF0000FBE0F901F9018951F920F920FB60F9264
:101D000011242F938F939F93EF93FF93E091CC0235
:101D1000F091CD028081E091D202F091D30282FD58
:101D20001BC090818091D5028F5F8F732091D60266
:101D3000821741F0E091D502F0E0E454FD4F958F19
:101D40008093D502FF91EF919F918F912F910F90EA
:101D50000FBE0F901F9018958081F4CF0F931F93A3
:101D6000CF93DF93EC0188819981009759F02A8104
:101D70003B812617370730F081E0DF91CF911F912B
:101D80000F9108958B016F5F7F4F0E94631400973E
:101D900059F0998388831B830A832C813D81232BEF
:101DA00059F7FC011082E8CF80E0E7CFCF93DF93B3
:101DB000EC011B861A861D861C861F861E8670E017
:101DC00060E00A960E94AE0E2A853B85811117C0FD
:101DD0002115310519F0C9010E94DA131B861A86F4
:101DE0001F861E861D861C861D8A1C8A1F8A1E8AC7
:101DF000198E188E1B8A1A8ADF91CF9108951F863B
:101E00001E8665E371E0C9010E942915EDCFEF92AE
:101E1000FF920F931F93CF93DF93EC017B01FB01A4
:101E200001900020E9F731978F01061B170BB801CD
:101E30000E94AE0E28813981811113C02115310510
:101E400019F0C9010E94DA13198218821D821C82BE
:101E50001B821A82DF91CF911F910F91FF90EF901B
:101E600008951D830C83B701C901DF91CF911F91A4
:101E70000F91FF90EF900C9429158F929F92AF9243
:101E8000BF92CF92DF92EF92FF921F93CF93DF9397
:101E9000EC0121E131E0FC0121933193CF010E945B
:101EA000D60ECE014C960E94D60ECE01C6960E944A
:101EB000D60E4E01F0E58F0E911CC4010E94D60E85
:101EC0005E018AE6A80EB11CC5010E94D60E6E0105
:101ED000E4E8CE0ED11CC6010E94D60E60E083E07D
:101EE0000E942A0260E08AE00E942A0260E08BE001
:101EF0000E942A0260E081E10E942A0260E082E101
:101F00000E942A0261E084E00E942A0261E087E0E8
:101F10000E942A0283E08A831C821B821E821D8209
:101F200011E01F83198618866EEA71E0CE010C96C7
:101F30000E94070F1B8A1A8A8AE08C8F1E8E1D8EC4
:101F400018A21F8E19A31BA21AA266EB71E0CE0184
:101F500086960E94070F1DA61CA68BE08EABEE2472
:101F6000E394F12CF8AEEFAAFAAEE9AE1BAF1DAECA
:101F70001CAE6EEB71E0CE01805C9F4F0E94070F9C
:101F8000FE01EA5BFF4F118210828DE0F401808335
:101F9000319611821082329611821082329610830D
:101FA00031961182108263ED71E0CE01865A9F4F07
:101FB0000E94070FFE01E05AFF4F1182108281E15B
:101FC000F50180833196118210823296118210823F
:101FD000329610833196F182E0826EEE71E0CE018E
:101FE0008C589F4F0E94070FFE01E658FF4F118249
:101FF000108282E1F601808331961182108232963E
:1020000011821082329610833196F182E0826DEF58
:1020100071E0CE0182579F4F0E94070FFE01EC56E0
:10202000FF4F118210823A9684E0808331961082AD
:10203000319687E08083CF55DF4F1882DF91CF91B3
:102040001F91FF90EF90DF90CF90BF90AF909F9047
:102050008F900895ECEBF2E01382128288EE93E009
:10206000A0E0B0E084839583A683B7838BE191E001
:102070009183808385EC90E09587848784EC90E061
:102080009787868780EC90E0918B808B81EC90E045
:10209000938B828B82EC90E0958B848B86EC90E026
:1020A000978B868B118E128E138E148E8DEA94E090
:1020B0000E943D0F85E993E00E943D0FA5E9B3E042
:1020C0008DE291E011969C938E93109238041092B9
:1020D000370410924204109241041092440410926A
:1020E000430410924604109245041092400410924A
:1020F0003F0410925404109253041092560410920C
:1021000055041092580410925704109252041092E1
:1021100051041092660410926504109268041092A3
:10212000670410926A041092690410926404109279
:102130006304109278041092770410927A0410923B
:10214000790410927C0410927B0410927604109211
:10215000750410928A041092890410928C041092D3
:102160008B0410928E0410928D04109288041092A9
:10217000870410929C0410929B0410929E0410926B
:102180009D041092A00410929F0410929A04109241
:10219000990487E993E090933A0480933904E7E641
:1021A000F3E0F0933E04E0933D0413968D919C91EF
:1021B00014979183808381EB93E090934C048093F8
:1021C0004B0489E693E09093500480934F045D960E
:1021D0008D919C915E97938382838BEC93E0909397
:1021E0005E0480935D048BE693E090936204809399
:1021F0006104D7968D919C919583848385EE93E0BD
:102200009093700480936F041092EA03A1E6B3E008
:1022100015961C921E9214978DE693E09093740489
:10222000809373048091E6039091E70397838683FC
:1022300083E090E09093600380935F038FEF93E0DF
:10224000909382048093810489E593E090938604BF
:102250008093850489E194E090939404809393049F
:102260008BE593E0909398048093970483E394E044
:102270009093A6048093A504B093A804A093A70408
:1022800085E394E09093AA048093A90483E693E005
:102290009093AC048093AB04EDE8F3E013821282D8
:1022A000158214821782168211821082E5E8F3E00B
:1022B0001382128215821482178216821182108272
:1022C000EFE6F3E0138212821582148217821682DF
:1022D0001186108613861286158614861786168632
:1022E000118A108A11821082128A138A148A158A1E
:1022F0000895789484B5826084BD84B5816084BD7E
:1023000085B5826085BD85B5816085BD80916E0093
:10231000816080936E0010928100809181008260C4
:102320008093810080918100816080938100809101
:1023300080008160809380008091B10084608093F0
:10234000B1008091B00081608093B00080917A00EC
:10235000846080937A0080917A00826080937A0012
:1023600080917A00816080937A0080917A00806801
:1023700080937A001092C1008CEB92E09093BB02A4
:102380008093BA0281E693E0909372038093710385
:1023900083E090E090937A038093790387E693E05B
:1023A000909374038093730384E090E090937C0394
:1023B00080937B038DE593E0909376038093750380
:1023C00082E090E090937E0380937D0329E533E0E3
:1023D00030937803209377039093800380937F0357
:1023E00081E080936F038CE080937003E091CC02D6
:1023F000F091CD0282E08083E091C802F091C902A1
:102400001082E091CA02F091CB0280E180831092A9
:10241000D402E091D002F091D10286E08083E09175
:10242000CE02F091CF02808180618083E091CE0264
:10243000F091CF02808188608083E091CE02F0919C
:10244000CF02808180688083E091CE02F091CF023C
:1024500080818F7D80838091C20086608093C200DE
:1024600061E08CE00E942A0260E08CE00E94FC01A6
:102470008FE291E0A0E0B0E080938103909382032B
:10248000A0938303B09384030E94250989ED94E00F
:102490000E944D0789EB99E00E944D078CEB91E07B
:1024A0000E941F058CEB92E00E94A80404E610E055
:1024B00080E0E82E80E0F82E2FB7F8948091B202E9
:1024C0009091B302A091B402B091B5022FBF409198
:1024D000AD025091AE026091AF027091B002841BC8
:1024E000950BA60BB70B0A97A105B10508F443C0DD
:1024F0002FB7F8948091B2029091B302A091B402E8
:10250000B091B5022FBF8093AD029093AE02A0931D
:10251000AF02B093B0028091AB029091AC020196F1
:10252000B8010E9424139093AC028093AB02C0E0E8
:102530008091870390918803C8171906E4F4E0910D
:102540008903F0918A03C080D18080E0309751F4F4
:1025500066E371E085E893E00E944305F601099582
:10256000CF5FE6CFC817D1F30280F381E02DC080A2
:10257000D1808F5FF7CFE114F10409F49DCF0E9461
:102580000A04882309F498CF0E94000095CF85E8BB
:1025900093E00E949A088DE893E00E949A0885E9EA
:1025A00093E00E94F1088DEA94E00C94C308F99935
:1025B000FECF92BD81BDF89A992780B50895262F48
:1025C000F999FECF1FBA92BD81BD20BD0FB6F89418
:1025D000FA9AF99A0FBE019608952F923F924F9260
:1025E0005F926F927F928F929F92AF92BF92CF92A3
:1025F000DF92EF92FF920F931F93CF93DF93CDB7AC
:10260000DEB7CA1BDB0B0FB6F894DEBF0FBECDBF23
:1026100009942A88398848885F846E847D848C84F4
:102620009B84AA84B984C884DF80EE80FD800C81FD
:102630001B81AA81B981CE0FD11D0FB6F894DEBFE0
:102640000FBECDBFED010895AA1BBB1B51E107C012
:10265000AA1FBB1FA617B70710F0A61BB70B881F32
:10266000991F5A95A9F780959095BC01CD010895C1
:10267000EE0FFF1F0590F491E02D09940F931F9327
:10268000CF93DF938230910510F482E090E0E091E7
:102690005105F091520530E020E0B0E0A0E0309725
:1026A00099F42115310509F44AC0281B390B24304F
:1026B0003105D8F58A819B816115710589F1FB018E
:1026C00093838283FE0111C0408151810281138175
:1026D00048175907E0F04817590799F4109761F027
:1026E00012960C93129713961C933296CF01DF919A
:1026F000CF911F910F9108950093510510935205AA
:10270000F4CF2115310551F04217530738F0A901D4
:10271000DB019A01BD01DF01F801C1CFEF01F9CF63
:102720009093520580935105CDCFFE01E20FF31F28
:10273000819391932250310939832883D7CF2091F7
:102740004F0530915005232B41F420910201309127
:1027500003013093500520934F05209100013091E3
:1027600001012115310541F42DB73EB74091040117
:1027700050910501241B350BE0914F05F091500558
:10278000E217F307A0F42E1B3F0B2817390778F048
:10279000AC014E5F5F4F2417350748F04E0F5F1FA7
:1027A0005093500540934F05819391939FCFF0E054
:1027B000E0E09CCFCF93DF930097E9F0FC013297E4
:1027C00013821282A0915105B0915205ED0130E0C3
:1027D00020E01097A1F420813181820F931F209176
:1027E0004F05309150052817390709F061C0F09363
:1027F0005005E0934F05DF91CF910895EA01CE1780
:10280000DF07E8F54A815B819E0141155105B1F76B
:10281000E901FB83EA8349915991C40FD51FEC1755
:10282000FD0761F4808191810296840F951FE90173
:1028300099838883828193819B838A83F0E0E0E09F
:1028400012968D919C9113970097B9F52D913C911B
:102850001197CD010296820F931F20914F05309161
:1028600050052817390739F6309751F5109252055F
:1028700010925105B0935005A0934F05BCCFD38360
:10288000C28340815181840F951FC817D90761F415
:102890004E5F5F4F88819981480F591F5183408354
:1028A0008A819B81938382832115310509F0B0CF02
:1028B000F0935205E09351059ECFFD01DC01C0CF9E
:1028C00013821282D7CFB0E0A0E0E9E6F4E10C94E5
:1028D000EF128C01009751F4CB010E943E138C0142
:1028E000C801CDB7DEB7E0E10C940B13FC01E60F95
:1028F000F71F9C0122503109E217F30708F49DC02D
:10290000D901CD91DC911197C617D70798F0C53042
:10291000D10530F3CE0104978617970708F3C61B3D
:10292000D70B2297C193D1936D937C93CF010E94D3
:10293000DA13D6CF5B01AC1ABD0A4C018C0E9D1E7A
:10294000A0915105B0915205512C412CF12CE12C54
:10295000109731F580914F05909150058815990594
:1029600009F05CC04616570608F058C08091000177
:1029700090910101009741F48DB79EB740910401F9
:1029800050910501841B950BE817F90708F055C015
:10299000F0935005E0934F05F90171836083A0CF58
:1029A0008D919C91119712966C90129713967C9032
:1029B0001397A815B90559F56C0142E0C40ED11C56
:1029C000CA14DB0420F1AC014A195B09DA01129642
:1029D000159780F06282738251834083D9016D9391
:1029E0007C93E114F10471F0D7011396FC93EE93FC
:1029F000129776CF22968C0F9D1FF90191838083C9
:102A0000F301EFCFF0935205E093510569CF4816DB
:102A1000590608F42C017D01D3019ACFCB010E9405
:102A20003E137C01009749F0AE01B8010E942015C9
:102A3000C8010E94DA13870153CF10E000E050CFA5
:102A4000FB01DC0102C001900D9241505040D8F7CB
:102A50000895FB01DC0101900D920020E1F708953B
:102A6000AEE0B0E0E6E3F5E10C94FB120D891E89BF
:102A700086E08C831A8309838FEF9FE79E838D8383
:102A8000AE01475E5F4F6F89788DCE0101960E943F
:102A900053152F813885020F131FF80110822E96CF
:102AA000E4E00C941713ABE0B0E0E9E5F5E10C9439
:102AB000ED127C013B018A01FC01178216828381A1
:102AC00081FFC8C1CE0101965C01F7019381F3013A
:102AD00093FD859193FF81913F01882309F453C1B0
:102AE000853239F493FD859193FF81913F018532C1
:102AF00029F4B70190E00E944317E7CF912C212CD5
:102B0000312CFFE1F31538F08B3211F190F4803263
:102B100009F1833229F137FC3CC020ED280F2A301F
:102B200050F536FE20C08AE0989E200D1124922E8A
:102B300006C08D3291F0803371F7689430F8F3015C
:102B400093FD859193FF81913F018111DACF21C0DF
:102B5000689431F8689432F8F2CF689433F8EFCF84
:102B6000689434F8ECCFEAE02E9E200D1124222E3A
:102B7000689435F8E4CF8E3229F436FC04C16894A9
:102B800036F8DDCF8C3619F4689437F8D8CF88360C
:102B9000B1F2982F9F7D95549330E0F08336A1F1E8
:102BA0008337C1F1833509F063C02801F2E04F0E8D
:102BB000511CF801C080D180692D70E036FC02C044
:102BC0006FEF7FEFC6010E942D174C01689437F814
:102BD00082010AC00C5F1F4FFFE3F98388248394AE
:102BE000912C6501E89437F833FE2DC0522C8114E6
:102BF000910471F5552009F468CFB70180E290E0A7
:102C00000E9443175A94F6CFF801808189830E5FA2
:102C10001F4FE4CF2801F2E04F0E511CF801C08095
:102C2000D180692D70E036FC02C06FEF7FEFC601E6
:102C30000E9438174C018201D5CFB70180E290E0A5
:102C40000E9443172A942814190409F0B0F7CECF34
:102C5000F60137FC859137FE81916F01B70190E055
:102C60000E94431751105A94F1E08F1A9108BFCF78
:102C7000843619F0893609F077C0F80137FE6BC049
:102C800060817181828193810C5F1F4FF32DFF76EC
:102C90003F2E97FF09C090958095709561957F4F65
:102CA0008F4F9F4F689437F82AE030E0A5010E94CB
:102CB0007317C82ECA188C2C432C36FE0CC0E8940F
:102CC00040F8C91440F434FE05C032FC03C0F32DB3
:102CD000FE7E4F2E892C44FE95C0FE01EC0DF11DA9
:102CE0008081803309F087C0242D297E422E842DD7
:102CF0008870582E43FC95C040FE8FC09C2C8214D7
:102D000018F42C0C922C981844FE91C0B70180E363
:102D100090E00E94431742FE09C088E790E041FE20
:102D200002C088E590E0B7010E944317C91408F477
:102D30008AC0CA94D12C9FEFC91AD90ACA0CDB1CCD
:102D4000F60182916F01B70190E00E944317AC1425
:102D5000BD04B1F74FCF60817181072E000C880B45
:102D6000990B0E5F1F4F92CFD32CE894D4F82AE032
:102D700030E0853739F1232D297FD22E8F3601F1AE
:102D800048F48835A9F0F701868197812B96E2E116
:102D90000C940913803749F08837A9F7D4FE02C094
:102DA0006894D2F820E130E00DC06894D4F8F6CFF2
:102DB00034FE03C0822F8660D82E20E132E002C0AC
:102DC00028E030E0F801D7FE0FC060817181828178
:102DD00093810C5F1F4FA5010E947317C82ECA185C
:102DE0003D2CE89437F867CF6081718190E080E0F6
:102DF0000E5F1F4FF0CF42FC02C0839478CF8394C4
:102E0000839475CF842D867809F471CFF6CFB701FE
:102E100080E290E00E94431783948214C0F3512C07
:102E200073CF522C5818821408F46ECFF8CF842D2B
:102E3000867809F47BCF8BE241FE80E247FC8DE28D
:102E4000B70190E071CFB70180E390E00E94431793
:102E50009A946CCF8FEF9FEF99CFFC010590615052
:102E600070400110D8F7809590958E0F9F1F0895A0
:102E7000FC016150704001900110D8F78095909549
:102E80008E0F9F1F08950F931F93CF93DF93182FDB
:102E9000092FEB018B8181FD09C01FEF0FEF812FFF
:102EA000902FDF91CF911F910F91089582FF14C051
:102EB0002E813F818C819D81281739073CF4E88160
:102EC000F981CF0101969983888310838E819F8138
:102ED00001969F838E83E3CFE885F985812F09953D
:102EE000892BA1F3DACFFA01AA27283051F120313A
:102EF00081F1E8946F936E7F6E5F7F4F8F4F9F4F8E
:102F0000AF4FB1E03ED0B4E03CD0670F781F891FCF
:102F10009A1FA11D680F791F8A1F911DA11D6A0F9D
:102F2000711D811D911DA11D20D009F468943F9150
:102F30002AE0269F11243019305D3193DEF6CF014F
:102F40000895462F4770405D4193B3E00FD0C9F715
:102F5000F6CF462F4F70405D4A3318F0495D31FD82
:102F60004052419302D0A9F7EACFB4E0A6959795D5
:102F7000879577956795BA95C9F7009761057105AB
:102F800008959B01AC010A2E0694579547953795F5
:102F90002795BA95C9F7620F731F841F951FA01D4F
:102FA000089511E0C5E2D1E004C0FE010E9438138B
:0C2FB0002196C632D107C9F7F894FFCF74
:102FBC000000530580000102030405061000000008
:102FCC0000C308E708E207000000004004A003CD9E
:102FDC0003A804FE03DC03F00300000000F1081B4F
:102FEC000934080D0A0051554555453A2063616E68
:102FFC002774207065656B206974656D2066726F2F
:10300C006D2071756575653A2071756575652069FA
:10301C007320656D7074792E0051554555453A20D5
:10302C00696E73756666696369656E74206D656D2E
:10303C006F727920746F20637265617465206120F2
:10304C006E6577206E6F64652E00203A20496E7491
:10305C006572727570746F72202D2D3E2000424F78
:10306C0054D34E203100424F54D34E203200507571
:10307C006C7361646F72204F70746F636F706C61EE
:10308C00646F00504952202853656E736F72206430
:10309C0065204D6F76696D69656E746F2900416DA1
:1030AC00706C6966696361646F72203100416D7088
:1030BC006C6966696361646F722032005072E163FF
:1030CC00746963612053656C656363696F6E6164D9
:1030DC00613A203078255800504952206163746958
:1030EC007661646F3A202564005469656D706F20B9
:1030FC004163746976616369F36E2064656C20507A
:10310C0049523A20256420536567756E646F7300CD
:10311C0050342050554C5341444F52455320536525
:10312C006C656363696F6E61646F200056616C6FD0
:10313C0072204D425F544D505F5049523A202564E5
:02314C00000081
:00000001FF
