:100000000C940E010C9436010C9436010C943601BC
:100010000C9436010C9436010C9436010C94360184
:100020000C9436010C9436010C9436010C94360174
:100030000C9436010C9436010C9436010C94360164
:100040000C94940B0C9436010C94040C0C94DE0B61
:100050000C9436010C9436010C9436010C94360144
:100060000C9436010C94360150372053656E736F33
:10007000722053656C656363696F6E61646F0050D5
:100080003620494E544552525550544F52205365D4
:100090006C656363696F6E61646F00503520494E13
:1000A000544552525550544F522053656C6563630A
:1000B000696F6E61646F00503420434F4E4D55544C
:1000C00041444F522053656C656363696F6E616490
:1000D0006F00503420494E544552525550544F529F
:1000E0002053656C656363696F6E61646F005033A4
:1000F00020434F4E4D555441444F522053656C653B
:100100006363696F6E61646F00503120434F4E4DE1
:10011000555441444F522053656C656363696F6E5B
:1001200061646F00503120494E544552525550542D
:100130004F522053656C656363696F6E61646F0035
:1001400050312050554C5341444F52455320536534
:100150006C656363696F6E61646F004F4646004F64
:100160004E00202D2D3E2050756C7361646F002071
:100170002D2D3E20536F6C7461646F004F46460016
:100180004F4E00436F6E6D757461646F72202D2D3C
:100190003E2000202D2D3E2050756C7361646F0051
:1001A0005030364132204F757470757420486F6C32
:1001B00064696E6720526567697374657200000038
:1001C0000000240027002A0000000000250028006D
:1001D0002B00000000002300260029000404040472
:1001E00004040404020202020202030303030303E1
:1001F00001020408102040800102040810200102BE
:100200000408102000000008000201000003040799
:1002100000000000000000005F0DC70F11241FBE8A
:10022000CFEFD8E0DEBFCDBF24E0A0EFB1E001C04A
:100230001D92A531B207E1F711E0A0E0B1E0E4E6DC
:10024000F4E202C005900D92A03FB107D9F711E08A
:10025000CDE0D1E004C02197FE010E942D10CC30EA
:10026000D107C9F70E94670E0C9425120C94000068
:10027000833081F028F4813099F08230A9F008951C
:100280008730A9F08830C9F08430B1F480918000C3
:100290008F7D03C0809180008F77809380000895C8
:1002A00084B58F7784BD089584B58F7DFBCF809111
:1002B000B0008F778093B00008958091B0008F7D5B
:1002C000F9CF0F931F93CF93DF93FC012581222356
:1002D00009F455C0EC0186819781009731F00197B0
:1002E00009F437C090E080E023C0208130E0F901BC
:1002F000EC5FFD4F8491F901E051FE4F0491F9014B
:10030000E452FE4F1491112369F381110E943801C8
:10031000E12FF0E0EE0FFF1FEE52FE4FA591B491DA
:10032000EC910E2331E020E009F430E0832F922F8E
:1003300029813A812817390711F19A838983E8893D
:10034000F9893097E1F0CE01DF91CF911F910F91A4
:10035000099480818E3008F08E508770806480937D
:100360007C0080917A00806480937A0080917A008A
:1003700086FDFCCF8091780090917900D9CFDF91F4
:10038000CF911F910F910895CF93DF93EC01888156
:1003900099810E946101EC81FD81A881B98111964A
:1003A0008D919C91208131812817390751F09183DB
:1003B0008083EE85FF85309721F0CE01DF91CF91CC
:1003C0000994DF91CF9108951F93CF93DF93282F46
:1003D00030E0F901EC5FFD4F8491F901E051FE4FEF
:1003E000D491F901E452FE4FC491CC23A9F0162F09
:1003F00081110E943801EC2FF0E0EE0FFF1FE8534F
:10040000FE4FA591B4918FB7F894EC91111108C0EB
:10041000D095DE23DC938FBFDF91CF911F9108959C
:10042000DE2BF8CFCF93DF9390E0FC01E051FE4F3D
:10043000249184529E4FFC0184918823D1F090E056
:10044000880F991FFC01E254FE4FA591B491FC0165
:10045000E853FE4FC591D49161110EC09FB7F89437
:100460008C91E22FE0958E238C932881E223E88300
:100470009FBFDF91CF9108958FB7F894EC91E22B55
:10048000EC938FBFF6CF3FB7F89480910402909120
:100490000502A0910602B091070226B5A89B05C0EF
:1004A0002F3F19F00196A11DB11D3FBFBA2FA92FF3
:1004B000982F8827BC01CD01620F711D811D911DF0
:1004C00042E0660F771F881F991F4A95D1F708955C
:1004D0008F929F92AF92BF92CF92DF92EF92FF9254
:1004E0004B015C010E9443026B017C010E944302AC
:1004F0006C197D098E099F09683E7340810591053D
:10050000A8F321E0821A9108A108B10888EEC80E6C
:1005100083E0D81EE11CF11C81149104A104B104F4
:1005200029F7FF90EF90DF90CF90BF90AF909F9012
:100530008F9008950F931F93CF93DF938C01C62F55
:100540008091BA02823074F09091C00090649093D0
:10055000C00061E00E94E40161E070E080E090E0B2
:100560000E946802902FF8012FEF3FEF819128271A
:1005700088E0A9014170552736952795452B21F034
:1005800041E0242740EA3427815099F78E2F891BB8
:100590008C1760F3322723273227F801EC0FF11D67
:1005A0003083E1E0EC0FE00FF12FF11D2083CE5FEF
:1005B0008091080290910902D0E0DC01ED91FC915C
:1005C0000280F381E02DAE01B80109956AE070E088
:1005D00080E090E00E9468028091BA0282303CF094
:1005E0009091C00096FFFCCF60E00E94E401CE0134
:1005F000DF91CF911F910F9108950F931F93CF9388
:10060000DF93CDB7DEB7C054D1090FB6F894DEBF83
:100610000FBECDBF9091B90299838A8381E08B830D
:10062000DB01AA0FBB1FA20FB31FCB0120E0460FB7
:10063000572F511D382F361B8417950770F40D91D5
:100640001D91E1E0F0E0012B09F4E0E001C0EE0FC4
:100650003A95EAF72E2B0196EDCF2C8364E0CE017C
:1006600001960E949A02C05CDF4F0FB6F894DEBF7D
:100670000FBECDBFDF91CF911F910F9108952FB77E
:10068000F8946091000270910102809102029091B1
:1006900003022FBF0895AF92BF92CF92DF92EF92E5
:1006A000FF920F931F93CF93DF936C017B018B011C
:1006B000040F151FEB015E01AE18BF08C017D1076C
:1006C00059F06991D601ED91FC910190F081E02DF6
:1006D000C6010995892B79F7C501DF91CF911F914B
:1006E0000F91FF90EF90DF90CF90BF90AF90089563
:1006F000FC0144815581608171818AE092E00C9413
:100700004B03FC01538D448D252F30E0842F90E066
:10071000821B930B541710F0CF96089501970895FC
:10072000FC01918D828D981761F0A28DAE0FBF2FC5
:10073000B11D5D968C91928D9F5F9F73928F90E01B
:1007400008958FEF9FEF0895FC01918D828D98178A
:1007500031F0828DE80FF11D858D90E008958FEFC7
:100760009FEF0895FC01918D228D892F90E0805C90
:100770009F4F821B91098F73992708958AE092E019
:100780000E94B20321E0892B09F420E0822F089512
:1007900080E090E0892B29F00E94BE0381110C9427
:1007A00000000895FC01A48DA80FB92FB11DA35A14
:1007B000BF4F2C91848D90E001968F739927848F81
:1007C000A689B7892C93A089B1898C9183708064A4
:1007D0008C93938D848D981306C00288F389E02D45
:1007E00080818F7D80830895EF92FF920F931F93F6
:1007F000CF93DF93EC0181E0888F9B8D8C8D9813D4
:100800001AC0E889F989808185FF15C09FB7F894DF
:10081000EE89FF896083E889F9898081837080642B
:1008200080839FBF81E090E0DF91CF911F910F9176
:10083000FF90EF900895F62E0B8D10E00F5F1F4F85
:100840000F731127E02E8C8D8E110CC00FB607FC94
:10085000FACFE889F989808185FFF5CFCE010E9422
:10086000D203F1CFEB8DEC0FFD2FF11DE35AFF4FBB
:10087000F0829FB7F8940B8FEA89FB8980818062B0
:10088000CFCF0F931F93CF93DF938C01D0E0C0E0C5
:10089000F801EC0FFD1F6491662341F08AE092E0BD
:1008A0000E94F403892B11F02196F2CFCE01DF9143
:1008B000CF911F910F910895CF93DF93EC01888D15
:1008C0008823B9F0AA89BB89E889F9898C9185FDCB
:1008D00003C0808186FD0DC00FB607FCF7CF8C9159
:1008E00085FFF2CF808185FFEDCFCE010E94D2033C
:1008F000E9CFDF91CF9108951F93CF93DF93FC0150
:100900002181261731F0162FEC0180810E94E4012D
:100910001983DF91CF911F9108958091A702909143
:10092000A8028035910580F485EA93E00E94610178
:100930008FEB93E00E94610189ED93E00E946101D9
:1009400083EF93E00C94610183E493E00E94C4017F
:1009500089E593E00E94C4018FE693E00E94C40100
:1009600085E893E00C94C401FB0101900020E9F7B5
:100970003197AF01461B570BDC01ED91FC910280D2
:10098000F381E02D0994CF93DF930E944104EC01A1
:100990006CE271E08AE092E00E94B4048C0F9D1F2B
:1009A000DF91CF9108950F931F93CF93DF93EC01C5
:1009B0000E94B4048C016CE271E0CE010E94B40488
:1009C000800F911FDF91CF911F910F9108950F9389
:1009D0001F93CF93DF938C01EB018AE092E00E949A
:1009E000D304F80180819181009739F0BE01DF9135
:1009F000CF911F910F910C94D304DF91CF911F9150
:100A00000F910895EF92FF920F931F93CF93DF936F
:100A10008C01D62FC0E0D80112968D919C9113972E
:100A2000C8171906E4F41496ED91FC91E080F1806A
:100A300080E0309759F46FE271E0C8010E94E7044A
:100A40006D2FC7010E947C04CF5FE5CFC817C1F3AB
:100A50000280F381E02DE080F1808F5FF7CFDF919E
:100A6000CF911F910F91FF90EF900895CF93DF9357
:100A7000EC014B815C8129813A814217530771F562
:100A800083E891E00E9441048091F7019091F80180
:100A9000892BE9F481E090E09093F8018093F701CD
:100AA00080E891E00E94C3048C899D89181619067C
:100AB000ACF461E08091F7019091F801892B09F481
:100AC00060E0CE014296DF91CF910C940205109226
:100AD000F8011092F7018CE791E0E4CFDF91CF911C
:100AE0000895CF93DF93EC010A960E9478032B813F
:100AF0003C8189819A8128173907C1F48FE691E0FA
:100B00000E94C3048C899D891816190694F461E02B
:100B10002B813C8189819A812817390709F460E08B
:100B2000CE014296DF91CF910C94020582E691E0CE
:100B3000E7CFDF91CF910895BF92CF92DF92EF92EE
:100B4000FF920F931F93CF93DF938C016B01D0E043
:100B5000C0E0862F8170B82ED80112968D919C919D
:100B60001397C817D907ACF59C2F1496ED91FC91FB
:100B7000E080F18080E0309719F56FE271E0C80104
:100B80000E94E704D7011296ED91FC9120813181FA
:100B90006B2DB2E0CB16D10429F461E021153105AB
:100BA00009F060E0862F90E08217930739F0918377
:100BB0008083F701808191810E947C042196CCCFB3
:100BC000891700F70280F381E02DE080F1808F5FCC
:100BD000F7CFDF91CF911F910F91FF90EF90DF90B2
:100BE000CF90BF900895CF93DF93EC0188819981D6
:100BF0000A960E947803E881F981238134818181FA
:100C000092812817390789F48D8981110BC08C894D
:100C1000811108C070E060E0CE0106960E949C053C
:100C200081E08C8BDF91CF91089583E991E00E9460
:100C3000C3041C8A0E943F03688B798B8A8B9B8B31
:100C400081E08D8B61E070E0CE010696DF91CF915F
:100C50000C949C05DC01ED91FC9143815481218130
:100C600032814217530729F462E070E006960C9433
:100C70009C050895EF92FF920F931F93CF93DF93FC
:100C8000EC017B010E811F8184E090E00E94331013
:100C90009F838E83892B29F462E671E0CE010E9446
:100CA000E704EE81FF8113821282F182E0828C815F
:100CB0009D81892B71F4FD83EC838A819B81019650
:100CC0009B838A83DF91CF911F910F91FF90EF90CB
:100CD0000895D8011396FC93EE931297EECFEF92FE
:100CE000FF920F931F93CF93DF93EC017B010E8153
:100CF0001F8184E090E00E9433109F838E83892BB4
:100D000029F462E671E0CE010E94E704EE81FF81E2
:100D100013821282F182E0828C819D81892B71F491
:100D2000FD83EC838A819B8101969B838A83DF917B
:100D3000CF911F910F91FF90EF900895D8011396D6
:100D4000FC93EE931297EECF0F931F93CF93DF9305
:100D50008C01C091D102D091D20284E090E00E9437
:100D600033109093D2028093D102892B31F462E642
:100D700071E08BEC92E00E94E704E091D102F091E7
:100D8000D20213821282118300838091CF0290914C
:100D9000D002892B91F4F093D002E093CF0280919E
:100DA000CD029091CE0201969093CE028093CD0217
:100DB000DF91CF911F910F910895FB83EA83EFCFCD
:100DC000CF93DF93EC012B813C8189819A81281795
:100DD0003907B1F4CE010A960E94780363E971E005
:100DE0008AE092E00E94B40488859985892BC9F431
:100DF00081E090E0998788878FE591E00E94C304A5
:100E00008C899D89181619068CF461E0888599856E
:100E1000892B09F460E0CE014296DF91CF910C94CA
:100E20000205198618868BE591E0E8CFDF91CF9116
:100E300008950F931F93CF93DF93EC018C819D81D5
:100E4000009769F0FC01028113810E94CF101D837D
:100E50000C838A819B8101979B838A83EFCF81E0FA
:100E6000DF91CF911F910F910895CF93DF93EC0104
:100E70008A589F4F0E941907FE01E258FF4F1182C6
:100E80001082CE0184579F4F0E941907FE01EC5635
:100E9000FF4F11821082CE018E559F4F0E9419077D
:100EA000C655DF4F19821882DF91CF9108950F93B5
:100EB0001F93CF93DF93EC018C819D81009769F0A4
:100EC000FC01028113810E94CF101D830C838A8153
:100ED0009B8101979B838A83EFCF81E0DF91CF9144
:100EE0001F910F910895CF93DF93EC0144960E94D8
:100EF00057071B8A1A8ACE018E960E9457071DA695
:100F00001CA6CE01885B9F4F0E945707CA5BDF4F2C
:100F100019821882DF91CF91089583EA93E00E94AD
:100F2000730783ED92E00C9435075F926F927F9286
:100F30008F929F92AF92BF92CF92DF92EF92FF92E9
:100F40000F931F93CF93DF93B12CA12C552453946F
:100F500091E7E92E95E0F92E0AE216E06624639403
:100F6000712C33EF832E35E0932E40EEC42E46E0F5
:100F7000D42EC6E3D5E081E0A816B10409F47DC102
:100F80008091A7029091F001891771F08093F00190
:100F9000813409F4FCC008F048C0823109F4C5C0AE
:100FA000D0F4813109F4AEC0AA94AB2881F4DF916A
:100FB000CF911F910F91FF90EF90DF90CF90BF9056
:100FC000AF909F908F907F906F905F900895AA242C
:100FD000A394B12CD0CF833109F4C6C0823321F75A
:100FE0008EEE90E00E94C3040E948D07D093B6035A
:100FF000C093B5036DE074E087EB93E00E946F0649
:10100000D093D003C093CF036DE074E081ED93E003
:101010000E946F06D093EA03C093E9036DE074E089
:101020008BEE93E00E946F06BFCF843509F4EBC0CE
:10103000C8F5823409F4C8C0833409F0B5CF87EB12
:1010400090E00E94C3040E948D07D093B603C09322
:10105000B5036DE074E087EB93E00E946F066FE0EC
:1010600074E087EB93E00E946F06D093D003C093A7
:10107000CF036DE074E081ED93E00E946F066FE0B6
:1010800074E081ED93E00E946F06D093EA03C09371
:10109000E9036DE074E08BEE93E00E946F066FE071
:1010A00074E0BECF823609F4C9C0803709F07CCF26
:1010B00088E690E00E94C3040E948D07E0918503BA
:1010C000F091860355820E943F03609395037093CD
:1010D000960380939703909398037092B002609266
:1010E000AF0290929403809293036FE973E08BE8D0
:1010F00093E00E943A0610935203009351036BE968
:1011000073E0A8C080E491E00E94C3040E948D07B0
:10111000F092B603E092B503F092D003E092CF03D1
:10112000F092EA03E092E9033FCF84E291E00E946B
:10113000C3040E948D07D092B603C092B5031092EB
:10114000AE031092AD03D092D003C092CF031092A1
:10115000C8031092C703D092EA03C092E903109229
:10116000E2031092E10320CF89E091E00E94C304E2
:101170000E948D07D093B603C093B503D093D003DC
:10118000C093CF03D093EA03C093E9030DCF67EA7E
:1011900071E08AE092E00E94D3040E948D07F092F1
:1011A000B603E092B5036DE074E087EB93E00E9434
:1011B0006F06F092D003E092CF036FE074E081ED10
:1011C00093E00E946F06ACCF82ED90E00E94C304D2
:1011D0000E948D07D092B603C092B5036DE074E013
:1011E00087EB93E00E946F06D092D003C092CF03AA
:1011F0006FE074E081ED93E00E946F06D092EA0305
:10120000C092E903D1CE8BE990E00E94C3040E9412
:101210008D0710935203009351036BE973E089E447
:1012200093E00E943A0610936803009367036FE906
:1012300073E08FE593E00E943A06B6CE8FE790E028
:101240000E94C3040E948D07109352030093510320
:101250006FE973E089E493E00E943A061093680313
:10126000009367036BE973E08FE593E00E943A0611
:1012700010937E0300937D0397CEE0918503F09158
:10128000860381E02091A9023091AA02232B09F460
:1012900080E0858389CECF92DF92EF92FF920F9309
:1012A0001F93CF93DF93CDB7DEB7C058D1090FB6E8
:1012B000F894DEBF0FBECDBF809108029091090265
:1012C000DC01ED91FC910084F185E02D09958C0104
:1012D0000E94430201151105A1F41092F60110922B
:1012E000F501C058DF4F0FB6F894DEBF0FBECDBF7B
:1012F000DF91CF911F910F91FF90EF90DF90CF90F2
:1013000008952091F5013091F60102171307C9F0F5
:101310001093F6010093F5010091C7021091C802E5
:101320002091C9023091CA02600F711F821F931F62
:101330006093F1017093F2018093F3019093F401B3
:10134000D0CF0091F1011091F2012091F301309181
:10135000F401601771078207930718F21092F601E3
:101360001092F5018E010F5B1F4F6801F12CE12CEB
:101370008091080290910902DC01ED91FC910084BA
:10138000F185E02D0995892B81F1809108029091DA
:101390000902DC01ED91FC910284F385E02D0995B1
:1013A000F60181936F01FFEFEF1AFF0A40E4E416A4
:1013B000F104F1F661E08091AB029091AC02892BCF
:1013C00009F460E08DE094E00E947C0461E080918B
:1013D000AD029091AE02892B09F460E08FE094E0B9
:1013E0000E947C040E9495077CCFE114F10409F46B
:1013F00078CF3EEF3E0DF8018FEF9FEF2E2F201B91
:10140000231788F42191822728E0AC0141705527E9
:1014100096958795452B21F0A1E08A27A0EA9A2787
:10142000215099F7EBCFFE01EE0DFF1D27ADE0E453
:10143000F0E0EC0FFD1FEE0DFF1D3081232732275A
:1014400023279827892798272817390709F0B2CF2B
:101450009091B902F80180819813ACCF81818130DD
:1014600069F0823059F0833049F0853009F450C07A
:101470008630A1F121E0803109F059C0F8014481A2
:1014800050E0542F44272581420F511DE091C302A3
:10149000F091C402823039F0813009F052C0E091FD
:1014A000C102F091C20228E04115510509F455C06E
:1014B0002417150608F451C0D80112962C911297E2
:1014C000622F70E0762F662713962C91260F372F08
:1014D000311D240F351FE217F30740F1F801628137
:1014E00070E0762F66272381620F711D833009F427
:1014F00062C0A8F5813009F451C0823009F05ACF9A
:101500002091BD023091BE02458182E090E04DC045
:10151000228130E0322F22274381240F311D409158
:10152000C1025091C20224173507C0F222E099830C
:1015300080588A832B8363E0CE0101960E949A0231
:1015400039CFE091C502F091C60229E1833009F458
:10155000ABCFF0E0E0E020E0A7CF23E0E8CF85309C
:1015600009F454C0863009F025CFE091BF02F09114
:10157000C002D80114962D913C913227232732279F
:1015800099838A837B836C833D832E83660F771FC9
:10159000E60FF71F3183208366E0CECF2091BB0298
:1015A0003091BC02458181E090E00E94FD02892BD0
:1015B00009F000CF96CEA091BF02B091C002258164
:1015C00099838A83822F880F8B83CB01880F991F81
:1015D000A80FB91FFE01319643E050E0CF01260F5E
:1015E000372F311D32966217730760F41C911196E4
:1015F0000C9111971296018312834E5F5F4F6F5FBC
:101600007F4FF0CF642F0E949A02D1CF4091BB024E
:101610005091BC02248135813227232732279983B8
:101620008A837B836C833D832E83660F771F640FD1
:10163000751FDB012D933C93AFCF0F931F93CF9377
:10164000DF93EC010C811D81012B51F08C819D8178
:10165000FC01028113810E94CF101D830C83F4CF03
:10166000DF91CF911F910F910895CF93DF93EC01FC
:1016700042960E941D0B8A859B85009721F0DF9181
:10168000CF910C94CF10DF91CF910895CF93DF933A
:10169000EC018AE091E099838883CE01805B9F4FC3
:1016A0000E94350BCE01C6960E94350BCE014C969A
:1016B0000E94350BCE010296DF91CF910C94350B31
:1016C000CF93DF93EC010E94460BCE01DF91CF91C7
:1016D0000C94CF10CF93DF93EC0186E291E09983D5
:1016E0008883CE0188549F4F0E941D0BCE018E55DA
:1016F0009F4F0E941D0BCE0184579F4F0E941D0BD0
:10170000CE018A589F4F0E941D0BCE01DF91CF91D1
:101710000C94460BCF93DF93EC010E946A0BCE0131
:10172000DF91CF910C94CF101F920F920FB60F92B2
:1017300011242F933F938F939F93AF93BF938091E7
:10174000000290910102A0910202B0910302309137
:10175000FF0123E0230F2D3758F50196A11DB11D80
:101760002093FF018093000290930102A093020254
:10177000B09303028091040290910502A0910602A9
:10178000B09107020196A11DB11D809304029093B0
:101790000502A0930602B0930702BF91AF919F91FB
:1017A0008F913F912F910F900FBE0F901F90189522
:1017B00026E8230F0296A11DB11DD2CF1F920F92D2
:1017C0000FB60F9211242F933F934F935F936F9314
:1017D0007F938F939F93AF93BF93EF93FF938AE091
:1017E00092E00E94D203FF91EF91BF91AF919F9140
:1017F0008F917F916F915F914F913F912F910F90BA
:101800000FBE0F901F9018951F920F920FB60F9258
:1018100011242F938F939F93EF93FF93E0911A02DC
:10182000F0911B028081E0912002F091210282FD63
:101830001BC09081809123028F5F8F7320912402BF
:10184000821741F0E0912302F0E0E65FFD4F958FB3
:1018500080932302FF91EF919F918F912F910F9091
:101860000FBE0F901F9018958081F4CF0F931F9398
:10187000CF93DF93EC0188819981009759F02A81F9
:101880003B812617370730F081E0DF91CF911F9120
:101890000F9108958B016F5F7F4F0E945811009741
:1018A00059F0998388831B830A832C813D81232BE4
:1018B00059F7FC011082E8CF80E0E7CFCF93DF93A8
:1018C000EC011B861A861D861C861F861E8670E00C
:1018D00060E00A960E94360C2A853B85811117C06C
:1018E0002115310519F0C9010E94CF101B861A86F7
:1018F0001F861E861D861C861D8A1C8A1F8A1E8ABC
:10190000198E188E1B8A1A8ADF91CF9108951F862F
:101910001E866EE271E0C9010E941E12EDCFEF92A9
:10192000FF920F931F93CF93DF93EC017B01FB0199
:1019300001900020E9F731978F01061B170BB801C2
:101940000E94360C28813981811113C0211531057F
:1019500019F0C9010E94CF10198218821D821C82C1
:101960001B821A82DF91CF911F910F91FF90EF9010
:1019700008951D830C83B701C901DF91CF911F9199
:101980000F91FF90EF900C941E12EF92FF921F9315
:10199000CF93DF93EC012AE031E0FC0121933193F6
:1019A000CF010E945E0CCE014C960E945E0CCE01CF
:1019B000C6960E945E0C7E01F0E5EF0EF11CC70199
:1019C0000E945E0C60E083E00E94120260E08AE008
:1019D0000E94120260E08BE00E94120260E08DE043
:1019E0000E94120261E084E00E94120261E087E03E
:1019F0000E94120283E08A831C821B821E821D8247
:101A000011E01F831986188663EC71E0CE010C96F5
:101A10000E948F0C1B8A1A8A8AE08C8F1E8E1D8E64
:101A200018A21F8E19A31BA21AA26BEC71E0CE01A3
:101A300086960E948F0C1DA61CA68BE08EAB81E0C3
:101A400090E098AF8FAB9AAF89AF1BAF1DAE1CAEC5
:101A500063ED71E0CE01805C9F4F0E948F0CFE0110
:101A6000EA5BFF4F118210828DE0F701808331968F
:101A70001182108232961182108232961082319633
:101A80001182108268EE71E0CE01865A9F4F0E944B
:101A90008F0CFE01E05AFF4F118210823A9684E0CB
:101AA000808331961082319687E08083C359DF4F5F
:101AB0001882DF91CF911F91FF90EF900895EAE097
:101AC000F2E01382128288EE93E0A0E0B0E084831B
:101AD0009583A683B78384E191E09183808385EC2D
:101AE00090E09587848784EC90E09787868780ECE8
:101AF00090E0918B808B81EC90E0938B828B82ECD9
:101B000090E0958B848B86EC90E0978B868B118E82
:101B1000128E138E148E83EA93E00E94C50C83ED1F
:101B200092E00E94C50C86E291E09093D4028093EB
:101B3000D302109242031092410310924C03109270
:101B40004B0310924E0310924D03109250031092CB
:101B50004F0310924A0310924903109262031092AD
:101B60006103109264031092630310926603109253
:101B700065031092600310925F0310927803109235
:101B8000770310927A031092790310927C031092DB
:101B90007B03109276031092750310928E031092BD
:101BA0008D031092900310928F0310929203109263
:101BB000910310928C0310928B0385ED92E0909329
:101BC000440380934303E1EBF2E0F0934803E09396
:101BD000470310924603109245038FEE92E09093D4
:101BE0005A038093590383EB92E090935E038093B2
:101BF0005D0310925C0310925B0389E093E0909385
:101C0000700380936F0385EB92E09093740380934D
:101C1000730383E293E0909386038093850387EBBD
:101C200092E090938A038093890310929503109217
:101C30009603109297031092980381E08093990382
:101C4000809124039091250397838683EBEAF2E049
:101C500081E090E09583848385E090E09093AA02F0
:101C60008093A9028DE393E090939C0380939B0360
:101C7000F0939E03E0939D038FE393E09093A00382
:101C800080939F038DEA92E09093A2038093A10337
:101C9000EBECF2E013821282158214821782168214
:101CA00011821082E9EBF2E0138212821582148213
:101CB0001782168211861086138612861586148660
:101CC0001182108216861786108A118A08957894D8
:101CD00084B5826084BD84B5816084BD85B5826031
:101CE00085BD85B5816085BD80916E0081608093E2
:101CF0006E0010928100809181008260809381004B
:101D0000809181008160809381008091800081605A
:101D1000809380008091B10084608093B1008091B5
:101D2000B00081608093B00080917A0084608093DD
:101D30007A0080917A00826080937A0080917A00A4
:101D4000816080937A0080917A00806880937A0025
:101D50001092C1008AE092E09093090280930802F9
:101D60008BEA92E09093BC028093BB0283E090E008
:101D70009093C2028093C10281EB92E09093BE02E5
:101D80008093BD0284E090E09093C4028093C302EC
:101D900087EA92E09093C0028093BF0282E090E0D5
:101DA0009093C6028093C50281E08093B9028CE0D3
:101DB0008093BA02E0911A02F0911B0282E08083C4
:101DC000E0911602F09117021082E0911802F09152
:101DD000190280E1808310922202E0911E02F091AC
:101DE0001F0286E08083E0911C02F0911D02808139
:101DF00080618083E0911C02F0911D0280818860E7
:101E00008083E0911C02F0911D02808180688083B4
:101E1000E0911C02F0911D0280818F7D8083809172
:101E2000C20086608093C20061E08CE00E941202D2
:101E300060E08CE00E94E4018FE291E0A0E0B0E07D
:101E40008093C7029093C802A093C902B093CA02BC
:101E500081E190E09093A8028093A7020E949507E9
:101E60008DE894E00E94A4068BE499E00E94A40609
:101E700080EA91E00E94C30404E610E080E0E82ECE
:101E800080E0F82E0E943F038090FB019090FC01BF
:101E9000A090FD01B090FE01681979098A099B099B
:101EA0006A3071058105910508F465C00E943F0301
:101EB0006093FB017093FC018093FD019093FE0100
:101EC0008091F9019091FA010196B8010E941910D0
:101ED0009093FA018093F9010E943F03809095034B
:101EE00090909603A0909703B09098039B01AC014B
:101EF000281939094A095B0949015A012091A902A7
:101F00003091AA02A8EEB3E00E940A106815790584
:101F10008A059B0560F480919A03882341F070E064
:101F200060E08BE893E00E949C0510929A03C0E069
:101F30008091CD029091CE02C8171906E4F4E09189
:101F4000CF02F091D002A080B18080E0309751F4B0
:101F50006FE271E08BEC92E00E94E704F5010995D5
:101F6000CF5FE6CFC817D1F30280F381E02DA080C8
:101F7000B1808F5FF7CFE114F10409F483CF0E94A1
:101F8000BE03882309F47ECF0E9400007BCF8BEC38
:101F900092E00E941D0B83ED92E00E946A0B83EA9F
:101FA00093E00C94460B2F923F924F925F926F9268
:101FB0007F928F929F92AF92BF92CF92DF92EF92D9
:101FC000FF920F931F93CF93DF93CDB7DEB7CA1B5A
:101FD000DB0B0FB6F894DEBF0FBECDBF09942A8885
:101FE000398848885F846E847D848C849B84AA842D
:101FF000B984C884DF80EE80FD800C811B81AA81BA
:10200000B981CE0FD11D0FB6F894DEBF0FBECDBF84
:10201000ED010895A29FB001B39FC001A39F700D71
:10202000811D1124911DB29F700D811D1124911DE0
:102030000895AA1BBB1B51E107C0AA1FBB1FA6170F
:10204000B70710F0A61BB70B881F991F5A95A9F761
:1020500080959095BC01CD010895EE0FFF1F05906E
:10206000F491E02D09940F931F93CF93DF93823067
:10207000910510F482E090E0E0911304F0911404D3
:1020800030E020E0B0E0A0E0309799F42115310570
:1020900009F44AC0281B390B24303105D8F58A8150
:1020A0009B816115710589F1FB0193838283FE0198
:1020B00011C0408151810281138148175907E0F016
:1020C0004817590799F4109761F012960C931297DC
:1020D00013961C933296CF01DF91CF911F910F91F0
:1020E00008950093130410931404F4CF21153105BF
:1020F00051F04217530738F0A901DB019A01BD01E5
:10210000DF01F801C1CFEF01F9CF90931404809360
:102110001304CDCFFE01E20FF31F81939193225060
:10212000310939832883D7CF2091110430911204CB
:10213000232B41F4209102013091030130931204CA
:1021400020931104209100013091010121153105E6
:1021500041F42DB73EB74091040150910501241B75
:10216000350BE0911104F0911204E217F307A0F48B
:102170002E1B3F0B2817390778F0AC014E5F5F4FDD
:102180002417350748F04E0F5F1F509312044093F9
:102190001104819391939FCFF0E0E0E09CCFCF9327
:1021A000DF930097E9F0FC01329713821282A0912D
:1021B0001304B0911404ED0130E020E01097A1F475
:1021C00020813181820F931F2091110430911204DC
:1021D0002817390709F061C0F0931204E093110445
:1021E000DF91CF910895EA01CE17DF07E8F54A8124
:1021F0005B819E0141155105B1F7E901FB83EA833B
:1022000049915991C40FD51FEC17FD0761F48081E6
:1022100091810296840F951FE901998388838281B9
:1022200093819B838A83F0E0E0E012968D919C91EC
:1022300013970097B9F52D913C911197CD01029616
:10224000820F931F2091110430911204281739072F
:1022500039F6309751F51092140410921304B0938C
:102260001204A0931104BCCFD383C2834081518157
:10227000840F951FC817D90761F44E5F5F4F88819F
:102280009981480F591F518340838A819B81938391
:1022900082832115310509F0B0CFF0931404E09347
:1022A00013049ECFFD01DC01C0CF13821282D7CF71
:1022B000B0E0A0E0EEE5F1E10C94D50F8C010097C1
:1022C00051F4CB010E9433108C01C801CDB7DEB7A9
:1022D000E0E10C94F10FFC01E60FF71F9C01225086
:1022E0003109E217F30708F49DC0D901CD91DC91C3
:1022F0001197C617D70798F0C530D10530F3CE0136
:1023000004978617970708F3C61BD70B2297C1932C
:10231000D1936D937C93CF010E94CF10D6CF5B01F8
:10232000AC1ABD0A4C018C0E9D1EA0911304B091F5
:102330001404512C412CF12CE12C109731F5809193
:102340001104909112048815990509F05CC0461695
:10235000570608F058C08091000190910101009744
:1023600041F48DB79EB74091040150910501841B43
:10237000950BE817F90708F055C0F0931204E093A5
:102380001104F90171836083A0CF8D919C91119705
:1023900012966C90129713967C901397A815B90516
:1023A00059F56C0142E0C40ED11CCA14DB0420F1C3
:1023B000AC014A195B09DA011296159780F0628226
:1023C000738251834083D9016D937C93E114F104AE
:1023D00071F0D7011396FC93EE93129776CF229665
:1023E0008C0F9D1FF90191838083F301EFCFF09350
:1023F0001404E093130469CF4816590608F42C011D
:102400007D01D3019ACFCB010E9433107C0100974C
:1024100049F0AE01B8010E941512C8010E94CF1008
:10242000870153CF10E000E050CFFB01DC0102C078
:1024300001900D9241505040D8F70895FB01DC0106
:1024400001900D920020E1F7089511E0CDE0D1E078
:1024500004C0FE010E942D102196CE30D107C9F78D
:04246000F894FFCF1E
:1024640000001504800000000000460B600B730799
:1024740000000000F4034B0381035C04B2039003E7
:10248400A403000000006A0B8A0B35070D0A0051F3
:10249400554555453A2063616E2774207065656B18
:1024A400206974656D2066726F6D20717565756540
:1024B4003A20717565756520697320656D7074794E
:1024C4002E0051554555453A20696E737566666907
:1024D4006369656E74206D656D6F727920746F2009
:1024E4006372656174652061206E6577206E6F6428
:1024F400652E00203A20496E746572727570746F8F
:1025040072202D2D3E200050342050554C53414410
:102514004F5245532053656C656363696F6E616404
:102524006F2000424F54D34E203100424F54D34EBB
:1025340020320050756C7361646F72204F70746F39
:10254400636F706C61646F0053454E534F520000CB
:00000001FF
