:100000000C9470000C9498000C9498000C94980038
:100010000C9498000C9498000C9498000C94980000
:100020000C9498000C9498000C9498000C949800F0
:100030000C9498000C9498000C9498000C949800E0
:100040000C94D1050C9498000C9441060C941B065A
:100050000C9498000C9498000C9498000C949800C0
:100060000C9498000C9498000000000023002600D7
:10007000290050303520436F6D756E696361636987
:100080006F6E6573204D6F64427573000000000051
:10009000240027002A0000000000250028002B0073
:1000A000040404040404040402020202020203031E
:1000B0000303030301020408102040800102040826
:1000C00010200102040810200000000800020100B6
:1000D0000003040700000000000000002B07710966
:1000E00011241FBECFEFD8E0DEBFCDBF22E0A4ECCD
:1000F000B1E001C01D92A83EB207E1F711E0A0E017
:10010000B1E0EAEBF7E102C005900D92A43CB10723
:10011000D9F710E0CFE6D0E004C02197FE010E949D
:10012000D809CE36D107C9F70E94F4070C94D00B3A
:100130000C940000833081F028F4813099F08230F3
:10014000A9F008958730A9F08830C9F08430B1F45F
:10015000809180008F7D03C0809180008F77809395
:100160008000089584B58F7784BD089584B58F7D10
:10017000FBCF8091B0008F778093B000089580917D
:10018000B0008F7DF9CF1F93CF93DF93282F30E0FE
:10019000F901E853FF4F8491F901EC54FF4FD491DA
:1001A000F901E056FF4FC491CC23A9F0162F81111D
:1001B0000E949A00EC2FF0E0EE0FFF1FEA56FF4F6F
:1001C000A591B4918FB7F894EC91111108C0D09516
:1001D000DE23DC938FBFDF91CF911F910895DE2B3B
:1001E000F8CF3FB7F8948091D9019091DA01A091AE
:1001F000DB01B091DC0126B5A89B05C02F3F19F0AB
:100200000196A11DB11D3FBFBA2FA92F982F882796
:10021000BC01CD01620F711D811D911D42E0660F71
:10022000771F881F991F4A95D1F708958F929F9243
:10023000AF92BF92CF92DF92EF92FF924B015C019F
:100240000E94F1006B017C010E94F1006C197D0994
:100250008E099F09683E734081059105A8F321E04E
:10026000821A9108A108B10888EEC80E83E0D81E52
:10027000E11CF11C81149104A104B10429F7FF9041
:10028000EF90DF90CF90BF90AF909F908F900895A8
:100290000F931F93CF93DF938C01C62F80917D0224
:1002A000823074F09091C00090649093C00061E03F
:1002B0000E94C30061E070E080E090E00E941601BF
:1002C000902FF8012FEF3FEF8191282788E0A901B7
:1002D0004170552736952795452B21F041E024277D
:1002E00040EA3427815099F78E2F891B8C1760F3D1
:1002F000322723273227F801EC0FF11D3083E1E08C
:10030000EC0FE00FF12FF11D2083CE5F8091DD0116
:100310009091DE01D0E0DC01ED91FC910280F3814F
:10032000E02DAE01B80109956AE070E080E090E050
:100330000E94160180917D0282303CF09091C000B5
:1003400096FFFCCF60E00E94C300CE01DF91CF9109
:100350001F910F910895AF92BF92CF92DF92EF92CB
:10036000FF920F931F93CF93DF936C017B018B015F
:10037000040F151FEB015E01AE18BF08C017D107AF
:1003800059F06991D601ED91FC910190F081E02D39
:10039000C6010995892B79F7C501DF91CF911F918E
:1003A0000F91FF90EF90DF90CF90BF90AF900895A6
:1003B000FC01538D448D252F30E0842F90E0821B6B
:1003C000930B541710F0CF96089501970895FC01F0
:1003D000918D828D981761F0A28DAE0FBF2FB11D48
:1003E0005D968C91928D9F5F9F73928F90E00895A0
:1003F0008FEF9FEF0895FC01918D828D981731F05A
:10040000828DE80FF11D858D90E008958FEF9FEFAD
:100410000895FC01918D228D892F90E0805C9F4F83
:10042000821B91098F73992708958FED91E00E94A7
:10043000090221E0892B09F420E0822F089580E051
:1004400090E0892B29F00E94150281110C94000084
:100450000895FC01A48DA80FB92FB11DA35ABF4F59
:100460002C91848D90E001968F739927848FA689B3
:10047000B7892C93A089B1898C91837080648C9307
:10048000938D848D981306C00288F389E02D8081B6
:100490008F7D80830895EF92FF920F931F93CF93E8
:1004A000DF93EC0181E0888F9B8D8C8D98131AC0AF
:1004B000E889F989808185FF15C09FB7F894EE8996
:1004C000FF896083E889F9898081837080648083F3
:1004D0009FBF81E090E0DF91CF911F910F91FF903E
:1004E000EF900895F62E0B8D10E00F5F1F4F0F73E6
:1004F0001127E02E8C8D8E110CC00FB607FCFACFA1
:10050000E889F989808185FFF5CFCE010E94290213
:10051000F1CFEB8DEC0FFD2FF11DE35AFF4FF08271
:100520009FB7F8940B8FEA89FB8980818062CFCFD7
:10053000CF93DF93EC01888D8823B9F0AA89BB891A
:10054000E889F9898C9185FD03C0808186FD0DC005
:100550000FB607FCF7CF8C9185FFF2CF808185FF26
:10056000EDCFCE010E942902E9CFDF91CF9108950E
:100570000F931F93CF93DF93EC018E819F810097A0
:1005800031F0019709F437C090E080E023C0288162
:1005900030E0F901E853FF4F8491F901EC54FF4F2B
:1005A0000491F901E056FF4F1491112369F3811171
:1005B0000E949A00E12FF0E0EE0FFF1FE859FF4F75
:1005C000A591B491EC910E2331E020E009F430E0E4
:1005D000832F922F29813A812817390711F19A83A5
:1005E0008983E889F9893097E1F0CE01DF91CF91D5
:1005F0001F910F91099488818E3008F08E5087707A
:10060000806480937C0080917A00806480937A007B
:1006100080917A0086FDFCCF8091780090917900DE
:10062000D9CFDF91CF911F910F91089580919702BB
:10063000882321F082E992E00E94B8028091B10201
:10064000882321F08CEA92E00E94B8028091CB02CC
:10065000882321F086EC92E00C94B8020895CF92A2
:10066000DF92EF92FF920F931F93CF93DF93CDB75B
:10067000DEB7C854D1090FB6F894DEBF0FBECDBFA8
:100680008091DD019091DE01DC01ED91FC9100840F
:10069000F185E02D09958C010E94F10001151105ED
:1006A000A1F41092C9011092C801C85BDF4F0FB6C8
:1006B000F894DEBF0FBECDBFDF91CF911F910F9198
:1006C000FF90EF90DF90CF9008952091C801309176
:1006D000C90102171307C9F01093C9010093C8019B
:1006E0000091820210918302209184023091850250
:1006F000600F711F821F931F6093C4017093C50127
:100700008093C6019093C701D0CF0091C40110918E
:10071000C5012091C6013091C7016017710782079A
:10072000930718F21092C9011092C801FE01319688
:100730007F016F0110E000E08091DD019091DE010A
:10074000DC01ED91FC910084F185E02D0995892B68
:10075000A1F08091DD019091DE01DC01ED91FC9131
:100760000284F385E02D0995F60181936F010F5FF7
:100770001F4F0034110501F798CF0115110509F439
:1007800094CF3EEF300FF7018FEF9FEF2E2F2E19F2
:10079000231788F42191822728E0AC014170552766
:1007A00096958795452B21F041E0842740EA9427D0
:1007B000215099F7EBCFEFEFFFEFEC0FFD1FE00FAC
:1007C000F11F2081FE01E00FF11F30812327322726
:1007D00023279827892798272817390709F065CFF5
:1007E00040917C028981481360CF9A81913061F0F9
:1007F000923051F0933041F09530C1F0963009F4C9
:1008000054CF81E0903109F483E022964FAF2297D4
:10081000905823969FAF239724968FAF249763E039
:10082000CE018F5B9F4F0E9448013FCF0B8110E0AC
:10083000102F00278C81080F111D2091800230910C
:10084000810282E00217130700F7E0917E02F09127
:100850007F022D813E8132272327322722964FAFF8
:10086000229723969FAF239724961FAF2497259610
:100870000FAF259726963FAF269727962FAF27973E
:10088000C801880F991FE80FF91F3183208366E0A4
:10089000CE018F5B9F4F0E944801E0918802F0914A
:1008A0008902309709F401CFC8010995FECECF9394
:1008B000009721F0019791F0CF910895C1E08091C8
:1008C000CA019091CB01892B09F4C0E06C2F809173
:1008D000E0020E94C300C093E102EECFC1E080912C
:1008E000CC019091CD01892B09F4C0E06C2F80914F
:1008F000E2020E94C300C093E302DECFFB0101903D
:100900000020E9F73197AF01461B570BDC01ED9151
:10091000FC910280F381E02D09940F931F93CF93F4
:10092000DF93EC010E947E048C0168E171E0CE014E
:100930000E947E04800F911FDF91CF911F910F9134
:1009400008950F931F93CF93DF938C01EB018FEDED
:1009500091E00E948D04F80180819181009739F027
:10096000BE01DF91CF911F910F910C948D04DF9107
:10097000CF911F910F910895CF93DF93DC011496CF
:10098000ED91FC91C081D181309741F46BE171E030
:100990000E94A104CE01DF91CF91089580E08617D7
:1009A000C9F30280F381E02DC081D1818F5FF7CF41
:1009B0000F931F93CF93DF938C01C0919002D0913E
:1009C000910284E090E00E94DE099093910280936E
:1009D0009002892B31F46EE471E08AE892E00E9483
:1009E000A104E0919002F09191021382128211838E
:1009F000008380918E0290918F02892B91F4F09365
:100A00008F02E0938E0280918C0290918D0201966C
:100A100090938D0280938C02DF91CF911F910F9163
:100A20000895FB83EA83EFCFEF92FF920F931F931A
:100A3000CF93DF93EC017B010E811F8184E090E076
:100A40000E94DE099F838E83892B29F46EE471E076
:100A5000CE010E94A104EE81FF8113821282F182F5
:100A6000E0828C819D81892B71F4FD83EC838A81E6
:100A70009B8101969B838A83DF91CF911F910F9178
:100A8000FF90EF900895D8011396FC93EE93129780
:100A9000EECFBF92CF92DF92EF92FF920F931F9310
:100AA000CF93DF93EC012B813C8189819A812817B8
:100AB000390709F050C08C899D89181619060CF564
:100AC00010E06E0182E1C80ED11CBB24B3948C8966
:100AD0009D8918171906ACF4612FC6010E94BC0449
:100AE000FC0101810B25612FC6010E94BC047C0121
:100AF000602FFC0180810E94C300F70101831F5F0A
:100B0000E6CF4E855F856A857B858FED91E00E94FB
:100B1000AB016FE771E08FED91E00E947E04888564
:100B20009985892B99F481E090E09987888763E91A
:100B300071E08FED91E0DF91CF911F910F91FF90C8
:100B4000EF90DF90CF90BF900C948D04198618869B
:100B500066E971E0EECFDF91CF911F910F91FF9089
:100B6000EF90DF90CF90BF9008950F931F93CF9396
:100B7000DF93EC018C819D81009769F0FC0102817B
:100B800013810E947A0A1D830C838A819B810197BD
:100B90009B838A83EFCF81E0DF91CF911F910F91EB
:100BA00008951F920F920FB60F9211242F933F9327
:100BB0008F939F93AF93BF938091D5019091D6016E
:100BC000A091D701B091D8013091D40123E0230F37
:100BD0002D3758F50196A11DB11D2093D4018093A6
:100BE000D5019093D601A093D701B093D8018091FD
:100BF000D9019091DA01A091DB01B091DC0101965D
:100C0000A11DB11D8093D9019093DA01A093DB015E
:100C1000B093DC01BF91AF919F918F913F912F9144
:100C20000F900FBE0F901F90189526E8230F029685
:100C3000A11DB11DD2CF1F920F920FB60F9211249A
:100C40002F933F934F935F936F937F938F939F93D4
:100C5000AF93BF93EF93FF938FED91E00E94290232
:100C6000FF91EF91BF91AF919F918F917F916F9184
:100C70005F914F913F912F910F900FBE0F901F905A
:100C800018951F920F920FB60F9211242F938F93E6
:100C90009F93EF93FF93E091EF01F091F00180813A
:100CA000E091F501F091F60182FD1BC090818091E9
:100CB000F8018F5F8F732091F901821741F0E09165
:100CC000F801F0E0E152FE4F958F8093F801FF911B
:100CD000EF919F918F912F910F900FBE0F901F90CA
:100CE00018958081F4CFCF93DF9390E0FC01EC5412
:100CF000FF4F249180569F4FFC0184918823D1F0AF
:100D000090E0880F991FFC01E457FF4FA591B49123
:100D1000FC01EA56FF4FC591D49161110EC09FB7F7
:100D2000F8948C91E22FE0958E238C932881E22316
:100D3000E8839FBFDF91CF9108958FB7F894EC912E
:100D4000E22BEC938FBFF6CF0F931F93CF93DF93DC
:100D5000EC0188819981009759F02A813B812617FF
:100D6000370730F081E0DF91CF911F910F91089507
:100D70008B016F5F7F4F0E94030B009759F099839F
:100D800088831B830A832C813D81232B59F7FC0127
:100D90001082E8CF80E0E7CFCF93DF93EC01198298
:100DA00018821B821A821D821C8270E060E00E9401
:100DB000A4062881398181110FC02115310519F050
:100DC000C9010E947A0A198218821D821C821B8224
:100DD0001A82DF91CF9108951D821C826AE171E031
:100DE000C901DF91CF910C94C90BEF92FF920F9341
:100DF0001F93CF93DF93EC017B01FB010190002057
:100E0000E9F731978F01061B170BB8010E94A40662
:100E100028813981811113C02115310519F0C901CB
:100E20000E947A0A198218821D821C821B821A82F1
:100E3000DF91CF911F910F91FF90EF9008951D8347
:100E40000C83B701C901DF91CF911F910F91FF90E2
:100E5000EF900C94C90B1F93CF93DF93EFEDF1E06C
:100E60001382128288EE93E0A0E0B0E08483958341
:100E7000A683B7838AE091E09183808385EC90E03C
:100E80009587848784EC90E09787868780EC90E054
:100E9000918B808B81EC90E0938B828B82EC90E045
:100EA000958B848B86EC90E0978B868B118E128EBF
:100EB000138E148E8CE992E00E94CC06C2E9D2E037
:100EC0001D8A1C8A1F8A1E8A198E188E1B8A1A8AEE
:100ED00086EB92E00E94CC061FA61EA619AA18AAAD
:100EE0001BAA1AAA1DA61CA680ED92E00E94CC06A1
:100EF0001092DB021092DA021092DD021092DC02F4
:100F00001092DF021092DE021092D9021092D802E3
:100F100060E083E00E94730660E08AE00E9473064E
:100F200060E08BE00E94730661E084E00E9473063B
:100F300061E087E00E94730683E088831A82198249
:100F40001C821B8211E01D831F821E826AE971E0F0
:100F50008CE992E00E94F5068AE08A8F1C8E1B8E37
:100F60001E8E1D8E1F8F19A218A264EA71E086EBF7
:100F700092E00E94F5068BE08CAB81E090E09EABA6
:100F80008DAB98AF8FAB19AF1BAE1AAE6EEA71E0A6
:100F900080ED92E00E94F50684E08093E0021092DA
:100FA000E10287E08093E2021092E302EAE8F2E0D5
:100FB0001382128215821482178216821182108285
:100FC000ECE7F2E013821282158214821182108201
:100FD000168217821086118613861286158614864D
:100FE000DF91CF911F910895789484B5826084BD7C
:100FF00084B5816084BD85B5826085BD85B581601D
:1010000085BD80916E00816080936E00109281009A
:101010008091810082608093810080918100816055
:101020008093810080918000816080938000809116
:10103000B10084608093B1008091B00081608093A2
:10104000B00080917A00846080937A0080917A0069
:10105000826080937A0080917A00816080937A0028
:1010600080917A00806880937A001092C1008FEDA1
:1010700091E09093DE018093DD018AEC91E0909302
:101080007F0280937E0282E090E0909381028093C1
:10109000800281E080937C0210927D02E091EF015A
:1010A000F091F00182E08083E091EB01F091EC019E
:1010B0001082E091ED01F091EE0180E180831092C9
:1010C000F701E091F301F091F40186E08083E09173
:1010D000F101F091F201808180618083E091F10162
:1010E000F091F201808188608083E091F101F091BC
:1010F000F201808180688083E091F101F091F2013A
:1011000080818F7D80838091C20086608093C20041
:101110008FE291E0A0E0B0E080938202909383029E
:10112000A0938402B093850287E594E090938902AE
:101130008093880284EA92E00E94B5058EEB92E0EB
:101140000E94B50588ED92E00E94B50584EA92E020
:101150000E94B50509E415E01093A3020093A202D2
:1011600060EE72E084EA92E00E9414051093BD02E2
:101170000093BC0262EE72E08EEB92E00E941405D6
:101180001093D7020093D60286E193E00E94D80420
:101190008FE293E00E94D80402E710E0F801649126
:1011A000662341F08FED91E00E944B020F5F1F4FCD
:1011B000892BA1F768E171E08FED91E00E947E0438
:1011C00004E610E080E0E82E80E0F82E2FB7F894D7
:1011D0008091D5019091D601A091D701B091D8010D
:1011E0002FBF4091D0015091D1016091D2017091F7
:1011F000D301841B950BA60BB70B0A97A105B1056C
:1012000008F443C02FB7F8948091D5019091D6018E
:10121000A091D701B091D8012FBF8093D0019093B6
:10122000D101A093D201B093D3018091CE019091CE
:10123000CF010196B8010E94C4099093CF01809319
:10124000CE01C0E080918C0290918D02C8171906E2
:10125000E4F4E0918E02F0918F02C080D18080E0B2
:10126000309751F46BE171E08AE892E00E94A104AA
:10127000F6010995CF5FE6CFC817D1F30280F3815D
:10128000E02DC080D1808F5FF7CFE114F10409F425
:101290009DCF0E941502882309F498CF0E94000078
:1012A00095CFFC0180819181009711F00C947A0A0E
:1012B00008950F931F93CF93DF93EC010C811D8151
:1012C000012B51F08C819D81FC01028113810E94D0
:1012D0007A0A1D830C83F4CFDF91CF911F910F9178
:1012E00008958AE892E00E94590988ED92E00E94F0
:1012F000590980ED92E00E9451098EEB92E00E9424
:10130000590986EB92E00E94510984EA92E00E941A
:1013100059098CE992E00C9451092F923F924F9217
:101320005F926F927F928F929F92AF92BF92CF9275
:10133000DF92EF92FF920F931F93CF93DF93CDB77E
:10134000DEB7CA1BDB0B0FB6F894DEBF0FBECDBFF6
:1013500009942A88398848885F846E847D848C84C7
:101360009B84AA84B984C884DF80EE80FD800C81D0
:101370001B81AA81B981CE0FD11D0FB6F894DEBFB3
:101380000FBECDBFED010895AA1BBB1B51E107C0E5
:10139000AA1FBB1FA617B70710F0A61BB70B881F05
:1013A000991F5A95A9F780959095BC01CD01089594
:1013B000EE0FFF1F0590F491E02D09940F931F93FA
:1013C000CF93DF938230910510F482E090E0E091BA
:1013D000E602F091E70230E020E0B0E0A0E03097D4
:1013E00099F42115310509F44AC0281B390B243022
:1013F0003105D8F58A819B816115710589F1FB0161
:1014000093838283FE0111C0408151810281138147
:1014100048175907E0F04817590799F4109761F0F9
:1014200012960C93129713961C933296CF01DF916C
:10143000CF911F910F9108950093E6021093E70258
:10144000F4CF2115310551F04217530738F0A901A7
:10145000DB019A01BD01DF01F801C1CFEF01F9CF36
:101460009093E7028093E602CDCFFE01E20FF31FD7
:10147000819391932250310939832883D7CF2091CA
:10148000E4023091E502232B41F4209102013091D6
:1014900003013093E5022093E40220910001309192
:1014A00001012115310541F42DB73EB740910401EA
:1014B00050910501241B350BE091E402F091E50207
:1014C000E217F307A0F42E1B3F0B2817390778F01B
:1014D000AC014E5F5F4F2417350748F04E0F5F1F7A
:1014E0005093E5024093E402819391939FCFF0E003
:1014F000E0E09CCFCF93DF930097E9F0FC013297B7
:1015000013821282A091E602B091E702ED0130E071
:1015100020E01097A1F420813181820F931F209148
:10152000E4023091E5022817390709F061C0F09311
:10153000E502E093E402DF91CF910895EA01CE172E
:10154000DF07E8F54A815B819E0141155105B1F73E
:10155000E901FB83EA8349915991C40FD51FEC1728
:10156000FD0761F4808191810296840F951FE90146
:1015700099838883828193819B838A83F0E0E0E072
:1015800012968D919C9113970097B9F52D913C91EE
:101590001197CD010296820F931F2091E4023091A2
:1015A000E5022817390739F6309751F51092E7020E
:1015B0001092E602B093E502A093E402BCCFD3837D
:1015C000C28340815181840F951FC817D90761F4E8
:1015D0004E5F5F4F88819981480F591F5183408327
:1015E0008A819B81938382832115310509F0B0CFD5
:1015F000F093E702E093E6029ECFFD01DC01C0CF4D
:1016000013821282D7CFB0E0A0E0E9E0FBE00C94B7
:101610008F098C01009751F4CB010E94DE098C01E7
:10162000C801CDB7DEB7E0E10C94AB09FC01E60FD1
:10163000F71F9C0122503109E217F30708F49DC0FF
:10164000D901CD91DC911197C617D70798F0C53015
:10165000D10530F3CE0104978617970708F3C61B10
:10166000D70B2297C193D1936D937C93CF010E94A6
:101670007A0AD6CF5B01AC1ABD0A4C018C0E9D1EB6
:10168000A091E602B091E702512C412CF12CE12C03
:10169000109731F58091E4029091E5028815990543
:1016A00009F05CC04616570608F058C0809100014A
:1016B00090910101009741F48DB79EB740910401CC
:1016C00050910501841B950BE817F90708F055C0E8
:1016D000F093E502E093E402F90171836083A0CF07
:1016E0008D919C91119712966C90129713967C9005
:1016F0001397A815B90559F56C0142E0C40ED11C29
:10170000CA14DB0420F1AC014A195B09DA01129614
:10171000159780F06282738251834083D9016D9363
:101720007C93E114F10471F0D7011396FC93EE93CE
:10173000129776CF22968C0F9D1FF901918380839B
:10174000F301EFCFF093E702E093E60269CF48168A
:10175000590608F42C017D01D3019ACFCB010E94D8
:10176000DE097C01009749F0AE01B8010E94C00B70
:10177000C8010E947A0A870153CF10E000E050CFE1
:10178000FB01DC0102C001900D9241505040D8F79E
:101790000895FB01DC0101900D920020E1F708950E
:1017A00010E0CFE6D0E004C0FE010E94D8092196E7
:0A17B000C037D107C9F7F894FFCF46
:1017BA000000E8028000000000004B02AB01D801E3
:1017CA0098020902E701FB010D0A005155455545EA
:1017DA003A2063616E2774207065656B20697465B1
:1017EA006D2066726F6D2071756575653A20717529
:1017FA0065756520697320656D7074792E00515581
:10180A004555453A20696E73756666696369656E02
:10181A0074206D656D6F727920746F2063726561D3
:10182A0074652061206E6577206E6F64652E0020D6
:10183A003A20496E746572727570746F72202D2D1C
:10184A003E20004F4E004F464600424F54EFBFBD68
:10185A004E203100424F54EFBFBD4E20320050752A
:10186A006C7361646F72204F70746F636F706C6118
:04187A00646F000097
:00000001FF
