:100000000C9476000C949E000C949E000C949E0020
:100010000C949E000C949E000C949E000C949E00E8
:100020000C949E000C949E000C949E000C949E00D8
:100030000C949E000C949E000C949E000C949E00C8
:100040000C9448070C949E000C94B8070C949207EB
:100050000C949E000C949E000C949E000C949E00A8
:100060000C949E000C949E0050303520436F6D75AB
:100070006E69636163696F6E6573204D6F6442756D
:1000800073202D20536F6C756369F36E00000000C0
:1000900000240027002A0000000000250028002B73
:1000A00000000000002300260029000404040404CA
:1000B0000404040202020202020303030303030115
:1000C00002040810204080010204081020010204EC
:1000D00008102000000008000201000003040700CF
:1000E00000000000000000000E09370B11241FBEA5
:1000F000CFEFD8E0DEBFCDBF23E0A8EBB1E001C079
:100100001D92A237B207E1F711E0A0E0B1E0E6E20C
:10011000FBE102C005900D92A83BB107D9F710E0B2
:10012000C5E7D0E004C02197FE010E948E0BC437C2
:10013000D107C9F70E94DB090C94860D0C940000CE
:10014000833081F028F4813099F08230A9F008954D
:100150008730A9F08830C9F08430B1F480918000F4
:100160008F7D03C0809180008F77809380000895F9
:1001700084B58F7784BD089584B58F7DFBCF809142
:10018000B0008F778093B00008958091B0008F7D8C
:10019000F9CFEF92FF920F931F93CF93DF938C01D0
:1001A000DC01CD91DC918D81882309F43AC08E81E8
:1001B0009F81009731F0019709F44EC090E080E0F4
:1001C00023C0288130E0F901ED52FF4F8491F901FD
:1001D000E154FF4FE490F901E555FF4FF490FF2003
:1001E00069F381110E94A000EF2DF0E0EE0FFF1FD8
:1001F000EF55FF4FA591B491EC91EE2231E020E054
:1002000009F430E0832F922F29813A81281739078A
:1002100041F09A838983E889F989309711F0CE01FA
:100220000995E801EE85FF85A881B98111968D9128
:100230009C91208131812817390721F19183808396
:10024000EC85FD853097F1F0C801DF91CF911F91CA
:100250000F91FF90EF90099488818E3008F08E50B6
:100260008770806480937C0080917A0080648093A2
:100270007A0080917A0086FDFCCF80917800909181
:100280007900C2CFDF91CF911F910F91FF90EF9036
:1002900008951F93CF93DF93282F30E0F901ED529B
:1002A000FF4F8491F901E154FF4FD491F901E555D5
:1002B000FF4FC491CC23A9F0162F81110E94A000FA
:1002C000EC2FF0E0EE0FFF1FE956FF4FA591B49120
:1002D0008FB7F894EC91111108C0D095DE23DC9310
:1002E0008FBFDF91CF911F910895DE2BF8CFCF9371
:1002F000DF9390E0FC01E154FF4F249185559F4F1F
:10030000FC0184918823D1F090E0880F991FFC01B3
:10031000E357FF4FA591B491FC01E956FF4FC591FA
:10032000D49161110EC09FB7F8948C91E22FE095A3
:100330008E238C932881E223E8839FBFDF91CF91A6
:1003400008958FB7F894EC91E22BEC938FBFF6CF22
:100350003FB7F8948091C9019091CA01A091CB0157
:10036000B091CC0126B5A89B05C02F3F19F001968E
:10037000A11DB11D3FBFBA2FA92F982F8827BC01FF
:10038000CD01620F711D811D911D42E0660F771F27
:10039000881F991F4A95D1F708958F929F92AF9227
:1003A000BF92CF92DF92EF92FF924B015C010E94CD
:1003B000A8016B017C010E94A8016C197D098E09BE
:1003C0009F09683E734081059105A8F321E0821AD8
:1003D0009108A108B10888EEC80E83E0D81EE11C80
:1003E000F11C81149104A104B10429F7FF90EF904E
:1003F000DF90CF90BF90AF909F908F9008950F9314
:100400001F93CF93DF938C01C62F809177028230A8
:1004100074F09091C00090649093C00061E00E94DD
:10042000490161E070E080E090E00E94CD01902FF2
:10043000F8012FEF3FEF8191282788E0A901417053
:10044000552736952795452B21F041E0242740EA92
:100450003427815099F78E2F891B8C1760F3322730
:1004600023273227F801EC0FF11D3083E1E0EC0F78
:10047000E00FF12FF11D2083CE5F8091CD0190918F
:10048000CE01D0E0DC01ED91FC910280F381E02D02
:10049000AE01B80109956AE070E080E090E00E944A
:1004A000CD018091770282303CF09091C00096FFA0
:1004B000FCCF60E00E944901CE01DF91CF911F91F6
:1004C0000F9108950F931F93CF93DF93CDB7DEB7AE
:1004D000C054D1090FB6F894DEBF0FBECDBF9091C6
:1004E000760299838A8381E08B83DB01AA0FBB1F8D
:1004F000A20FB31FCB0120E0460F572F511D382FFD
:10050000361B8417950770F40D911D91E1E0F0E022
:10051000012B09F4E0E001C0EE0F3A95EAF72E2B2B
:100520000196EDCF2C8364E0CE0101960E94FF017D
:10053000C05CDF4F0FB6F894DEBF0FBECDBFDF91BA
:10054000CF911F910F910895AF92BF92CF92DF92FA
:10055000EF92FF920F931F93CF93DF936C017B0178
:100560008B01040F151FEB015E01AE18BF08C01709
:10057000D10759F06991D601ED91FC910190F0817C
:10058000E02DC6010995892B79F7C501DF91CF913F
:100590001F910F91FF90EF90DF90CF90BF90AF90A1
:1005A0000895FC01538D448D252F30E0842F90E079
:1005B000821B930B541710F0CF960895019708955E
:1005C000FC01918D828D981761F0A28DAE0FBF2F27
:1005D000B11D5D968C91928D9F5F9F73928F90E07D
:1005E00008958FEF9FEF0895FC01918D828D9817EC
:1005F00031F0828DE80FF11D858D90E008958FEF29
:100600009FEF0895FC01918D228D892F90E0805CF1
:100610009F4F821B91098F73992708958FEC91E06A
:100620000E94020321E0892B09F420E0822F089523
:1006300080E090E0892B29F00E940E0381110C9438
:1006400000000895FC01A48DA80FB92FB11DA35A75
:10065000BF4F2C91848D90E001968F739927848FE2
:10066000A689B7892C93A089B1898C918370806405
:100670008C93938D848D981306C00288F389E02DA6
:1006800080818F7D80830895EF92FF920F931F9357
:10069000CF93DF93EC0181E0888F9B8D8C8D981335
:1006A0001AC0E889F989808185FF15C09FB7F89441
:1006B000EE89FF896083E889F9898081837080648D
:1006C00080839FBF81E090E0DF91CF911F910F91D8
:1006D000FF90EF900895F62E0B8D10E00F5F1F4FE7
:1006E0000F731127E02E8C8D8E110CC00FB607FCF6
:1006F000FACFE889F989808185FFF5CFCE010E9484
:100700002203F1CFEB8DEC0FFD2FF11DE35AFF4FCC
:10071000F0829FB7F8940B8FEA89FB898081806211
:10072000CFCFCF93DF93EC01888D8823B9F0AA89CE
:10073000BB89E889F9898C9185FD03C0808186FD9C
:100740000DC00FB607FCF7CF8C9185FFF2CF8081EB
:1007500085FFEDCFCE010E942203E9CFDF91CF913B
:1007600008951F93CF93DF93FC012181261731F069
:10077000162FEC0180810E9449011983DF91CF91EE
:100780001F91089582EE92E00E94C90082EF92E0EC
:100790000E94C90082E093E00C94C900CF92DF92DE
:1007A000EF92FF920F931F93CF93DF93CDB7DEB7F6
:1007B000C854D1090FB6F894DEBF0FBECDBF8091EB
:1007C000CD019091CE01DC01ED91FC910084F18589
:1007D000E02D09958C010E94A80101151105A1F4D5
:1007E0001092BD011092BC01C85BDF4F0FB6F894A8
:1007F000DEBF0FBECDBFDF91CF911F910F91FF9054
:10080000EF90DF90CF9008952091BC013091BD0111
:1008100002171307C9F01093BD010093BC010091AA
:100820008002109181022091820230918302600F38
:10083000711F821F931F6093B8017093B901809359
:10084000BA019093BB01D0CF0091B8011091B901CA
:100850002091BA013091BB0160177107820793079D
:1008600018F21092BD011092BC01FE0131967F0179
:100870006F0110E000E08091CD019091CE01DC018C
:10088000ED91FC910084F185E02D0995892B61F1B2
:100890008091CD019091CE01DC01ED91FC9102841B
:1008A000F385E02D0995F60181936F010F5F1F4FCE
:1008B0000034110501F761E080916C0290916D02A6
:1008C000892B09F460E08AE693E00E94B10361E0BD
:1008D00080916E0290916F02892B09F460E08CE6A2
:1008E00093E00E94B10380CF0115110509F47CCF7C
:1008F0003EEF300FF7018FEF9FEF2E2F2E192317AA
:1009000088F42191822728E0AC0141705527969503
:100910008795452B21F041E0842740EA9427215018
:1009200099F7EBCFEFEFFFEFEC0FFD1FE00FF11F9B
:100930002081FE01E00FF11F30812327322723277A
:100940009827892798272817390709F0B4CFE0910D
:1009500076028981E813AFCF8A81813069F08230D5
:1009600059F0833049F0853009F450C0863089F160
:1009700091E0803109F059C04D8150E0542F442757
:100980002E81420F511DA0917E02B0917F028230D4
:1009900049F0B0E0A0E090E0813029F4A0917A0223
:1009A000B0917B0298E04115510509F44FC09417AE
:1009B000150608F44BC02B81622F70E0762F662756
:1009C0002C81260F372F311D240F351FA217B30797
:1009D00058F16B81262F30E0322F22276C81620F75
:1009E000732F711D8230A1F18530D1F1813009F072
:1009F00062CF20917802309179024E8181E090E0BF
:100A00000E946202892B09F056CFEECE2B8130E096
:100A1000322F22279C81290F311D40917A0250915B
:100A20007B0224173507A8F292E02296EFAF2297B7
:100A3000805823968FAF239724969FAF249763E027
:100A4000CE018F5B9F4F0E94FF0135CF93E0EDCF2A
:100A500020917C0230917D024E8182E090E0D0CFE7
:100A600040917802509179022D813E8132272327CF
:100A700032272296EFAF229723968FAF23972496A3
:100A80007FAF249725966FAF259726963FAF269781
:100A900027962FAF2797660F771F640F751FDB010F
:100AA0002D933C9366E0CCCFFB0101900020E9F749
:100AB0003197AF01461B570BDC01ED91FC91028091
:100AC000F381E02D09940F931F93CF93DF93EC01F3
:100AD0000E9454058C016CE271E0CE010E94540525
:100AE000800F911FDF91CF911F910F9108950F9368
:100AF0001F93CF93DF938C01EB018FEC91E00E9469
:100B00006305F80180819181009739F0BE01DF9182
:100B1000CF911F910F910C946305DF91CF911F919D
:100B20000F910895CF92DF92EF92FF920F931F9350
:100B3000CF93DF93DC01ED91FC91438154812181BE
:100B4000328142175307E1F5EC016C01B4E0CB0EA2
:100B5000D11C10E000E08E819F810817190784F5F1
:100B6000902FE885F985E080F18080E03097F9F4F6
:100B70006FE271E0C6010E947705D7011296ED91F0
:100B8000FC912081318161E02115310509F060E09F
:100B9000862F90E02817390739F091838083F70179
:100BA000808191810E94B1030F5F1F4FD4CF8917BD
:100BB00020F70280F381E02DE080F1808F5FF7CF96
:100BC000DF91CF911F910F91FF90EF90DF90CF9029
:100BD0000895EF92FF920F931F93CF93DF93EC0151
:100BE0007B010E811F8184E090E00E94940B9F8323
:100BF0008E83892B29F462E671E0CE010E9477058D
:100C0000EE81FF8113821282F182E0828C819D81CC
:100C1000892B71F4FD83EC838A819B8101969B83F0
:100C20008A83DF91CF911F910F91FF90EF900895EC
:100C3000D8011396FC93EE931297EECF0F931F9368
:100C4000CF93DF938C01C0918A02D0918B0284E014
:100C500090E00E94940B90938B0280938A02892BE0
:100C600031F462E671E084E892E00E947705E09159
:100C70008A02F0918B021382128211830083809189
:100C8000880290918902892B91F4F0938902E09374
:100C90008802809186029091870201969093870244
:100CA00080938602DF91CF911F910F910895FB836E
:100CB000EA83EFCFFC0180819181009711F00C94C1
:100CC000300C08950F931F93CF93DF93EC018C8129
:100CD0009D81009769F0FC01028113810E94300C14
:100CE0001D830C838A819B8101979B838A83EFCF2D
:100CF00081E0DF91CF911F910F9108950F931F9382
:100D0000CF93DF93EC010C811D81012B51F08C817D
:100D10009D81FC01028113810E94300C1D830C8394
:100D2000F4CFDF91CF911F910F9108950F931F93EF
:100D3000CF93DF93EC018AE091E0998388838E0161
:100D40000A5C1F4FC80142960E947E06C8010A969F
:100D50000E945A06CE018E960E947E06CE0186968D
:100D60000E945A06CE0144960E947E06CE010C9641
:100D7000DF91CF911F910F910C945A06CF93DF937F
:100D8000EC0186E291E099838883CE0186589F4FDB
:100D90000E947E06CE0186599F4F0E947E06CE019C
:100DA000865A9F4F0E947E06CE01DF91CF910C9410
:100DB0009606CF93DF93EC010E94BE06CE01DF9131
:100DC000CF910C94300CCF93DF93EC010E949606E8
:100DD000CE01DF91CF910C94300C0F931F93CF93E2
:100DE000DF93EC018C819D81009769F0FC01028109
:100DF00013810E94300C1D830C838A819B81019793
:100E00009B838A83EFCF81E0DF91CF911F910F9178
:100E10000895CF93DF93EC0144960E94ED061B8A60
:100E20001A8ACE018E960E94ED061DA61CA6CE0142
:100E3000885B9F4F0E94ED06CA5BDF4F19821882C4
:100E4000DF91CF910895CF93DF93EC010E940907C2
:100E5000CE01865A9F4F0E946206FE01EE59FF4F57
:100E600011821082CE0186599F4F0E946206FE01B8
:100E7000EE58FF4F11821082CE0186589F4F0E947C
:100E80006206CE57DF4F19821882DF91CF91089505
:100E90001F920F920FB60F9211242F933F938F93AF
:100EA0009F93AF93BF938091C5019091C601A0918C
:100EB000C701B091C8013091C40123E0230F2D3741
:100EC00058F50196A11DB11D2093C4018093C50161
:100ED0009093C601A093C701B093C8018091C90146
:100EE0009091CA01A091CB01B091CC010196A11DB6
:100EF000B11D8093C9019093CA01A093CB01B09317
:100F0000CC01BF91AF919F918F913F912F910F9005
:100F10000FBE0F901F90189526E8230F0296A11D73
:100F2000B11DD2CF1F920F920FB60F9211242F93A3
:100F30003F934F935F936F937F938F939F93AF9361
:100F4000BF93EF93FF938FEC91E00E942203FF91F8
:100F5000EF91BF91AF919F918F917F916F915F9131
:100F60004F913F912F910F900FBE0F901F901895AA
:100F70001F920F920FB60F9211242F938F939F936E
:100F8000EF93FF93E091DF01F091E0018081E09128
:100F9000E501F091E60182FD1BC090818091E8019E
:100FA0008F5F8F732091E901821741F0E091E80192
:100FB000F0E0E153FE4F958F8093E801FF91EF91B0
:100FC0009F918F912F910F900FBE0F901F901895AA
:100FD0008081F4CF0F931F93CF93DF93EC0188812F
:100FE0009981009759F02A813B812617370730F005
:100FF00081E0DF91CF911F910F9108958B016F5F79
:101000007F4F0E94B90C009759F0998388831B8306
:101010000A832C813D81232B59F7FC011082E8CFF4
:1010200080E0E7CFCF93DF93EC01198218821B8217
:101030001A821D821C8270E060E00E94EA0728810B
:10104000398181110FC02115310519F0C9010E94A4
:10105000300C198218821D821C821B821A82DF9139
:10106000CF9108951D821C826EE271E0C901DF916B
:10107000CF910C947F0DEF92FF920F931F93CF931C
:10108000DF93EC017B01FB0101900020E9F7319730
:101090008F01061B170BB8010E94EA0728813981CE
:1010A000811113C02115310519F0C9010E94300CBE
:1010B000198218821D821C821B821A82DF91CF91B5
:1010C0001F910F91FF90EF9008951D830C83B7013E
:1010D000C901DF91CF911F910F91FF90EF900C9478
:1010E0007F0DAF92BF92CF92DF92EF92FF921F934C
:1010F000CF93DF93EC018AE091E0998388835E01CE
:101100008CE0A80EB11CC5010E9412081F8A1E8A1D
:10111000198E188E1B8E1A8E1D8A1C8A6E0186E20D
:10112000C80ED11CC6010E94120819AA18AA1BAA2F
:101130001AAA1DAA1CAA1FA61EA67E0180E4E80EFC
:10114000F11CC7010E941208FE01E85BFF4F1382E9
:10115000128215821482178216821182108260E038
:1011600083E00E94770160E08AE00E94770160E0FE
:101170008BE00E94770161E084E00E94770161E0EA
:1011800087E00E94770183E08A831C821B821E8293
:101190001D8211E01F831986188663E971E0C5017D
:1011A0000E943B081B8A1A8A8AE08C8F1E8E1D8E35
:1011B00018A21F8E19A31BA21AA26BE971E0C60127
:1011C0000E943B081DA61CA68BE08EAB81E090E040
:1011D00098AF8FAB9AAF89AF1BAF1DAE1CAE63EA61
:1011E00071E0C7010E943B08FE01EA5BFF4F1182DC
:1011F00010823A9684E0808331961082319687E09F
:101200008083CD5ADF4F1882DF91CF911F91FF90DD
:10121000EF90DF90CF90BF90AF900895EFECF1E0AA
:101220001382128288EE93E0A0E0B0E0848395837D
:10123000A683B78384E191E09183808385EC90E07D
:101240009587848784EC90E09787868780EC90E090
:10125000918B808B81EC90E0938B828B82EC90E081
:10126000958B848B86EC90E0978B868B118E128EFB
:10127000138E148E8AE193E00E9471088CE892E04C
:101280000E94710886E291E090938D0280938C0217
:101290001092E1021092E0021092E9021092E8022C
:1012A0001092EB021092EA021092ED021092EC0200
:1012B0001092E7021092E6021092F9021092F802E0
:1012C0001092FB021092FA021092FD021092FC02A0
:1012D0001092F7021092F60210920903109208037E
:1012E00010920B0310920A0310920D0310920C033C
:1012F00010920703109206038EE892E09093E302A7
:101300008093E2021092E5021092E40280E792E0FC
:101310009093F1028093F00288EA92E09093F302B6
:101320008093F2021092F5021092F40282E792E0AA
:10133000909301038093000382EC92E09093030367
:101340008093020384E792E090931103809310034B
:101350008CED92E090931303809312038CE692E05D
:1013600090931503809314038EED92E090931703EE
:10137000809316038EE692E09093190380931803EE
:10138000E4E8F2E013821282158214821782168238
:1013900011821082E6E7F2E0138212821582148233
:1013A0001782168211861086118210821286138689
:1013B000148615860895789484B5826084BD84B5BA
:1013C000816084BD85B5826085BD85B5816085BD40
:1013D00080916E00816080936E00109281008091F8
:1013E0008100826080938100809181008160809380
:1013F0008100809180008160809380008091B100A5
:1014000084608093B1008091B00081608093B000CF
:1014100080917A00846080937A0080917A00826063
:1014200080937A0080917A00816080937A00809125
:101430007A00806880937A001092C1008FEC91E06E
:101440009093CE018093CD018CE692E09093790247
:101450008093780282E090E090937B0280937A02FE
:1014600080E792E090937D0280937C0283E090E09D
:1014700090937F0280937E0281E0809376028CE0DD
:1014800080937702E091DF01F091E00182E08083B8
:10149000E091DB01F091DC011082E091DD01F0913F
:1014A000DE0180E180831092E701E091E301F09199
:1014B000E40186E08083E091E101F091E201808126
:1014C00080618083E091E101F091E2018081886098
:1014D0008083E091E101F091E20180818068808366
:1014E000E091E101F091E20180818F7D8083809124
:1014F000C20086608093C20061E08CE00E947701A8
:1015000060E08CE00E9449018FE291E0A0E0B0E051
:101510008093800290938102A0938202B093830211
:101520008CE892E00E94230702E915E01093EF0295
:101530000093EE0262E173E086EE92E00E94E9051C
:101540001093FF020093FE0266E173E086EF92E0E3
:101550000E94E90582EC93E00E941E068EEC93E067
:101560000E941E0608E610E0F8016491662341F02F
:101570008FEC91E00E9444030F5F1F4F892BA1F76E
:101580006CE271E08FEC91E00E94540504E610E0FB
:1015900080E0E82E80E0F82E2FB7F8948091C50106
:1015A0009091C601A091C701B091C8012FBF409191
:1015B000C0015091C1016091C2017091C301841BAF
:1015C000950BA60BB70B0A97A105B10508F443C00C
:1015D0002FB7F8948091C5019091C601A091C701E1
:1015E000B091C8012FBF8093C0019093C101A09317
:1015F000C201B093C3018091BE019091BF010196D9
:10160000B8010E947A0B9093BF018093BE01C0E0A5
:101610008091860290918702C8171906E4F4E09140
:101620008802F0918902C080D18080E0309751F427
:101630006FE271E084E892E00E947705F601099577
:10164000CF5FE6CFC817D1F30280F381E02DC080D1
:10165000D1808F5FF7CFE114F10409F49DCF0E9490
:101660000E03882309F498CF0E94000095CF84E8E8
:1016700092E00E947E068CE892E00E94BE068AE11B
:1016800093E00C9496062F923F924F925F926F9246
:101690007F928F929F92AF92BF92CF92DF92EF9202
:1016A000FF920F931F93CF93DF93CDB7DEB7CA1B83
:1016B000DB0B0FB6F894DEBF0FBECDBF09942A88AE
:1016C000398848885F846E847D848C849B84AA8456
:1016D000B984C884DF80EE80FD800C811B81AA81E3
:1016E000B981CE0FD11D0FB6F894DEBF0FBECDBFAE
:1016F000ED010895AA1BBB1B51E107C0AA1FBB1F28
:10170000A617B70710F0A61BB70B881F991F5A958D
:10171000A9F780959095BC01CD010895EE0FFF1FAC
:101720000590F491E02D09940F931F93CF93DF93CD
:101730008230910510F482E090E0E0917003F09126
:10174000710330E020E0B0E0A0E0309799F421157B
:10175000310509F44AC0281B390B24303105D8F56E
:101760008A819B816115710589F1FB0193838283D5
:10177000FE0111C040815181028113814817590730
:10178000E0F04817590799F4109761F012960C93FE
:10179000129713961C933296CF01DF91CF911F9130
:1017A0000F9108950093700310937103F4CF2115E6
:1017B000310551F04217530738F0A901DB019A01B6
:1017C000BD01DF01F801C1CFEF01F9CF90937103A3
:1017D00080937003CDCFFE01E20FF31F81939193AD
:1017E0002250310939832883D7CF20916E0330915D
:1017F0006F03232B41F420910201309103013093B8
:101800006F0320936E032091000130910101211597
:10181000310541F42DB73EB74091040150910501C7
:10182000241B350BE0916E03F0916F03E217F30771
:10183000A0F42E1B3F0B2817390778F0AC014E5F40
:101840005F4F2417350748F04E0F5F1F50936F030B
:1018500040936E03819391939FCFF0E0E0E09CCFA3
:10186000CF93DF930097E9F0FC0132971382128245
:10187000A0917003B0917103ED0130E020E010976A
:10188000A1F420813181820F931F20916E0330914A
:101890006F032817390709F061C0F0936F03E093D5
:1018A0006E03DF91CF910895EA01CE17DF07E8F5C7
:1018B0004A815B819E0141155105B1F7E901FB8326
:1018C000EA8349915991C40FD51FEC17FD0761F4C4
:1018D000808191810296840F951FE9019983888305
:1018E000828193819B838A83F0E0E0E012968D9160
:1018F0009C9113970097B9F52D913C911197CD01CB
:101900000296820F931F20916E0330916F03281768
:10191000390739F6309751F5109271031092700320
:10192000B0936F03A0936E03BCCFD383C283408177
:101930005181840F951FC817D90761F44E5F5F4F1F
:1019400088819981480F591F518340838A819B81E7
:10195000938382832115310509F0B0CFF093710391
:10196000E09370039ECFFD01DC01C0CF1382128291
:10197000D7CFB0E0A0E0EFEBFCE00C94450B8C017E
:10198000009751F4CB010E94940B8C01C801CDB794
:10199000DEB7E0E10C94610BFC01E60FF71F9C0140
:1019A00022503109E217F30708F49DC0D901CD9107
:1019B000DC911197C617D70798F0C530D10530F3E1
:1019C000CE0104978617970708F3C61BD70B2297FB
:1019D000C193D1936D937C93CF010E94300CD6CFED
:1019E0005B01AC1ABD0A4C018C0E9D1EA0917003C8
:1019F000B0917103512C412CF12CE12C109731F551
:101A000080916E0390916F038815990509F05CC071
:101A10004616570608F058C08091000190910101C8
:101A2000009741F48DB79EB7409104015091050194
:101A3000841B950BE817F90708F055C0F0936F0366
:101A4000E0936E03F90171836083A0CF8D919C9127
:101A5000119712966C90129713967C901397A81575
:101A6000B90559F56C0142E0C40ED11CCA14DB045F
:101A700020F1AC014A195B09DA011296159780F042
:101A80006282738251834083D9016D937C93E11408
:101A9000F10471F0D7011396FC93EE93129776CF71
:101AA00022968C0F9D1FF90191838083F301EFCF64
:101AB000F0937103E093700369CF4816590608F458
:101AC0002C017D01D3019ACFCB010E94940B7C01A4
:101AD000009749F0AE01B8010E94760DC8010E943E
:101AE000300C870153CF10E000E050CFFB01DC0148
:101AF00002C001900D9241505040D8F70895FB016B
:101B0000DC0101900D920020E1F7089510E0C5E797
:101B1000D0E004C0FE010E948E0B2196C637D1078B
:061B2000C9F7F894FFCFA5
:101B2600000072038000000000009606E306090725
:101B3600000000004403A402D10291030203E00264
:101B4600F40200000000BE06D90623070D0A005164
:101B5600554555453A2063616E2774207065656B5F
:101B6600206974656D2066726F6D20717565756587
:101B76003A20717565756520697320656D70747995
:101B86002E0051554555453A20696E73756666694E
:101B96006369656E74206D656D6F727920746F2050
:101BA6006372656174652061206E6577206E6F646F
:101BB600652E00424F54D34E203100424F54D34E2F
:101BC60020320050756C7361646F72204F70746FB1
:081BD600636F706C61646F0025
:00000001FF
