:100000000C9462010C94C5130C949E130C948A01F9
:100010000C948A010C948A010C948A010C948A0134
:100020000C948A010C948A010C948A010C948A0124
:100030000C948A010C9444140C948A010C948A0147
:100040000C9454130C948A010C9412140C94EC1319
:100050000C948A010C948A010C948A010C948A01F4
:100060000C948A010C948A015031315F44696D6DA2
:100070006572005031302D3220436F6E74726F6C98
:1000800020646520507565727461204761726167F4
:1000900065005031302D3120436F6E74726F6C20CB
:1000A0006465207065727369616E617300503039E8
:1000B0002053656C656363696F6E616461202D2DEB
:1000C0003E2053656E736F72657320416E616CF3F1
:1000D0006769636F732028416C6C290050303720AA
:1000E00053656C656363696F6E616461202D2D3E9D
:1000F0002053656E736F72204D6F76696D69656E02
:10010000746F20285049522900503620494E5445DA
:1001100052525550544F522053656C656363696F5A
:100120006E61646F00503520494E5445525255500F
:10013000544F522053656C656363696F6E61646FE1
:1001400000503420434F4E4D555441444F5220539C
:10015000656C656363696F6E61646F00503420493C
:100160004E544552525550544F522053656C65635E
:1001700063696F6E61646F0050342050554C534179
:10018000444F5245532053656C656363696F6E61DC
:10019000646F2000503320434F4E4D555441444F1F
:1001A000522053656C656363696F6E61646F0050C4
:1001B0003120434F4E4D555441444F522053656CAE
:1001C000656363696F6E61646F00503120494E54FE
:1001D0004552525550544F522053656C65636369C4
:1001E0006F6E61646F0050312050554C5341444F45
:1001F0005245532053656C656363696F6E61646F2C
:10020000004F4646004F4E00202D2D3E2050756C6D
:100210007361646F00202D2D3E20536F6C746164F8
:100220006F004F4646004F4E00436F6E6D75746110
:10023000646F72202D2D3E20004153594E57414985
:1002400054205445524D494E41444F0050313020C6
:10025000436F6E74726F6C206465205065727369B1
:10026000616E61730000000000240027002A000076
:10027000000000250028002B0000000000230026BD
:10028000002900040404040404040402020202021B
:10029000020303030303030102040810204080014A
:1002A00002040810200102040810200000000800C9
:1002B000020100000304070000000000000000002D
:1002C0002F16BB1911241FBECFEFD8E0DEBFCDBF64
:1002D00026E0A0E1B2E001C01D92A035B207E1F72F
:1002E00012E0A0E0B1E0E6EAF1E402C005900D9270
:1002F000A031B107D9F711E0C1E6D1E004C02197E0
:10030000FE010E94031CC036D107C9F70E94EC17FA
:100310000C94C6200C9400008F929F92AF92BF92D3
:10032000CF92DF92EF92FF92CF93DF93EC01E881BF
:10033000F98161817281072E000C880B990B0E9454
:10034000CD192FEF3FEF4FE95BE30E94081A20E041
:1003500030E040E05FE30E942D1B20E030E048ECFD
:1003600052E40E94081A4B015C010E949A1B6B0127
:10037000072E000C880B990B0E94CD199B01AC0134
:10038000C501B4010E942D1B20E030E048EC52E48E
:100390000E94081A0E949A1B623371055CF08FEF6D
:1003A000C81AD80AB601DD0C880B990B0E94CD192A
:1003B0004B015C010C80DD81C02DC501B4010E94A0
:1003C0009A1B18826983DF91CF91FF90EF90DF90A5
:1003D000CF90BF90AF909F908F900895833081F021
:1003E00028F4813099F08230A9F008958730A9F07F
:1003F0008830C9F08430B1F4809180008F7D03C0D3
:10040000809180008F7780938000089584B58F77E6
:1004100084BD089584B58F7DFBCF8091B0008F7728
:100420008093B00008958091B0008F7DF9CF0F9335
:100430001F93CF93DF93FC012581222309F455C03C
:10044000EC0186819781009731F0019709F437C05C
:1004500090E080E023C0208130E0F901E555FD4FB8
:100460008491F901E956FD4F0491F901ED57FD4FD3
:100470001491112369F381110E94EE01E12FF0E044
:10048000EE0FFF1FE758FD4FA591B491EC910E239D
:1004900031E020E009F430E0832F922F29813A8166
:1004A0002817390711F19A838983E889F9893097E8
:1004B000E1F0CE01DF91CF911F910F9109948081DE
:1004C0008E3008F08E508770806480937C0080911D
:1004D0007A00806480937A0080917A0086FDFCCF58
:1004E0008091780090917900D9CFDF91CF911F91C1
:1004F0000F910895CF93DF93EC01888199810E9439
:100500001702EC81FD81A881B98111968D919C9192
:10051000208131812817390751F091838083EE853E
:10052000FF85309721F0CE01DF91CF910994DF91C3
:10053000CF9108951F93CF93DF93282F30E0F901D7
:10054000E555FD4F8491F901E956FD4FD491F9012C
:10055000ED57FD4FC491CC23A9F0162F81110E94B5
:10056000EE01EC2FF0E0EE0FFF1FE159FD4FA591DA
:10057000B4918FB7F894EC91111108C0D095DE2397
:10058000DC938FBFDF91CF911F910895DE2BF8CFC1
:10059000CF93DF9390E0FC01E956FD4F24918D57F6
:1005A0009D4FFC0184918823D1F090E0880F991F22
:1005B000FC01EB59FD4FA591B491FC01E159FD4FB0
:1005C000C591D49161110EC09FB7F8948C91E22F20
:1005D000E0958E238C932881E223E8839FBFDF91EF
:1005E000CF9108958FB7F894EC91E22BEC938FBFE5
:1005F000F6CF3FB7F8948091740290917502A09164
:100600007602B091770226B5A89B05C02F3F19F05E
:100610000196A11DB11D3FBFBA2FA92F982F882782
:10062000BC01CD01620F711D811D911D42E0660F5D
:10063000771F881F991F4A95D1F708958F929F922F
:10064000AF92BF92CF92DF92EF92FF924B015C018B
:100650000E94F9026B017C010E94F9026C197D096C
:100660008E099F09683E734081059105A8F321E03A
:10067000821A9108A108B10888EEC80E83E0D81E3E
:10068000E11CF11C81149104A104B10429F7FF902D
:10069000EF90DF90CF90BF90AF909F908F90089594
:1006A0000F931F93CF93DF938C01C62F8091550337
:1006B000823074F09091C00090649093C00061E02B
:1006C0000E949A0261E070E080E090E00E941E03C8
:1006D000902FF8012FEF3FEF8191282788E0A901A3
:1006E0004170552736952795452B21F041E0242769
:1006F00040EA3427815099F78E2F891B8C1760F3BD
:10070000322723273227F801EC0FF11D3083E1E077
:10071000EC0FE00FF12FF11D2083CE5F8091780266
:1007200090917902D0E0DC01ED91FC910280F3819F
:10073000E02DAE01B80109956AE070E080E090E03C
:100740000E941E038091550382303CF09091C000BE
:1007500096FFFCCF60E00E949A02CE01DF91CF911C
:100760001F910F9108950F931F93CF93DF93CDB7F0
:10077000DEB7C054D1090FB6F894DEBF0FBECDBFAF
:100780009091540399838A8381E08B83DB01AA0FC4
:10079000BB1FA20FB31FCB0120E0460F572F511DE7
:1007A000382F361B8417950770F40D911D91E1E0E9
:1007B000F0E0012B09F4E0E001C0EE0F3A95EAF712
:1007C0002E2B0196EDCF2C8364E0CE0101960E9482
:1007D0005003C05CDF4F0FB6F894DEBF0FBECDBF35
:1007E000DF91CF911F910F910895EF92FF920F9398
:1007F0001F93CF93DF93CDB7DEB7C054D1090FB6A7
:10080000F894DEBF0FBECDBF9091540399838A83C5
:10081000842F880F8B83CB01880F991F280F391FD6
:10082000DE0111967B0163E070E0CD014E0D5F2D7E
:10083000511D1296E416F50688F4F9011081018124
:100840002E5F3F4F11960C93119712961C9312979F
:100850006E5F7F4FFFEFEF1AFF0AEBCF0E9450034E
:10086000C05CDF4F0FB6F894DEBF0FBECDBFDF9187
:10087000CF911F910F91FF90EF9008952FB7F894AB
:100880006091700270917102809172029091730276
:100890002FBF08950895AF92BF92CF92DF92EF924B
:1008A000FF920F931F93CF93DF936C017B018B011A
:1008B000040F151FEB015E01AE18BF08C017D1076A
:1008C00059F06991D601ED91FC910190F081E02DF4
:1008D000C6010995892B79F7C501DF91CF911F9149
:1008E0000F91FF90EF90DF90CF90BF90AF90089561
:1008F000FC01538D448D252F30E0842F90E0821B26
:10090000930B541710F0CF96089501970895FC01AA
:10091000918D828D981761F0A28DAE0FBF2FB11D02
:100920005D968C91928D9F5F9F73928F90E008955A
:100930008FEF9FEF0895FC01918D828D981731F014
:10094000828DE80FF11D858D90E008958FEF9FEF68
:100950000895FC01918D228D892F90E0805C9F4F3E
:10096000821B91098F739927089587E892E00E946E
:10097000A90421E0892B09F420E0822F089580E06A
:1009800090E0892B29F00E94B50481110C9400009D
:100990000895FC01A48DA80FB92FB11DA35ABF4F14
:1009A0002C91848D90E001968F739927848FA6896E
:1009B000B7892C93A089B1898C91837080648C93C2
:1009C000938D848D981306C00288F389E02D808171
:1009D0008F7D80830895EF92FF920F931F93CF93A3
:1009E000DF93EC0181E0888F9B8D8C8D98131AC06A
:1009F000E889F989808185FF15C09FB7F894EE8951
:100A0000FF896083E889F9898081837080648083AD
:100A10009FBF81E090E0DF91CF911F910F91FF90F8
:100A2000EF900895F62E0B8D10E00F5F1F4F0F73A0
:100A30001127E02E8C8D8E110CC00FB607FCFACF5B
:100A4000E889F989808185FFF5CFCE010E94C9042C
:100A5000F1CFEB8DEC0FFD2FF11DE35AFF4FF0822C
:100A60009FB7F8940B8FEA89FB8980818062CFCF92
:100A70000F931F93CF93DF938C01D0E0C0E0F80178
:100A8000EC0FFD1F6491662341F087E892E00E941D
:100A9000EB04892B11F02196F2CFCE01DF91CF919B
:100AA0001F910F910895CF93DF93EC01888D8823D8
:100AB000B9F0AA89BB89E889F9898C9185FD03C0C1
:100AC000808186FD0DC00FB607FCF7CF8C9185FFA6
:100AD000F2CF808185FFEDCFCE010E94C904E9CF1E
:100AE000DF91CF9108951F93CF93DF93FC01218174
:100AF000261731F0162FEC0180810E949A0219838B
:100B0000DF91CF911F910895089508950F931F933A
:100B1000CF93DF93EC010E943E040A811B812C815C
:100B20003D81601771078207930738F5009510958E
:100B300020953095600F711F821F931FEE81FF81FA
:100B40004081518128EE33E0429F8001439F100D88
:100B5000529F100D112430E020E0601771078207CA
:100B6000930780F019821A821B821C821D8280E00A
:100B7000DF91CF911F910F910895601B710B820B34
:100B8000930BDCCF81E0F4CF20914A0330914B03EB
:100B9000232B41F5DC01ED91FC910190F081E02DDA
:100BA000A081B18111962D913C91129780899189F4
:100BB000892B69F013968D919C918217930781F090
:100BC00081E090E090934B0380934A03089504885A
:100BD000F589E02D81E0408151814217530708F4E7
:100BE00080E0089581E008958F929F92AF92BF9226
:100BF000CF92DF92EF92FF921F93CF93DF93EC019E
:100C0000162FE881F9810190F081E02DC780D08412
:100C1000E184F2840E943E04E881F9810190F08130
:100C2000E02D81809280A380B4809B01AC012819C3
:100C300039094A095B09A12F110FBB0B0E94091C3E
:100C4000C60ED71EE81EF91EC782D086E186F28640
:100C5000C581D681F7FE3BC01782108611861286A9
:100C60002781308541855285A4E6B0E00E94DC1AD8
:100C70002881398150E040E00E94E41BC22FCA0164
:100C8000622F732F25E030E040E050E00E94E41B2B
:100C900063307105810591050CF0CB5FC61BD0E078
:100CA00080912E0390912F03C817D90721F0D0937C
:100CB0002F03C0932E03DF91CF911F91FF90EF90F0
:100CC000DF90CF90BF90AF909F908F900895288134
:100CD00039812C153D0520F6C901B0E0A0E08783DD
:100CE0009087A187B287BCCFEF92FF920F931F939B
:100CF000CF93DF9300D000D0CDB7DEB78C018AE769
:100D000092E09C838B83CE0103969A838983013082
:100D1000110549F130F00230110571F10330110570
:100D200059F410927A028091850290918602813066
:100D3000910589F00297A9F010938602009385022D
:100D40000F900F900F900F90DF91CF911F910F9107
:100D5000FF90EF9008956FEFCE0101960E94F40589
:100D6000EBCF61E0F9CF80917A026FEF811109C07A
:100D700081E080937A0209C080917A028823C1F3CE
:100D800061E0CE0101960E94F405EB80FC800E9498
:100D90003E04F7016183728383839483CDCF809176
:100DA0003A0390913B0399270E94740680913A037D
:100DB00090913B0399278130910581F028F0823092
:100DC0009105A9F00397A9F460E08AE694E00E94F7
:100DD000730560E08CE694E00C94730560E08CE6AB
:100DE00094E00E94730561E08AE694E0F5CF61E04B
:100DF000F6CF089560913A0370913B03CB01992798
:100E0000E0915205F091530540815181E0915605E2
:100E1000F0915705208131818130910501F178F001
:100E200082309105A9F08330910519F1681779078F
:100E300051F190933B0380933A030C94CF06452BDA
:100E400011F082E090E0232B89F381E090E0EECF77
:100E5000452B61F7232B89F083E090E0E7CF452B0A
:100E600079F451E040E0232B09F450E0852F942FD2
:100E7000DDCF452BD9F6232BC9F690E080E0D9CF02
:100E8000232BA1F6E9CF0895CF93DF93EC010E94C5
:100E90003E046A837B838C839D8381E089831882EF
:100EA000DF91CF9108958091300390913103803587
:100EB000910580F48AE595E00E94170284E795E0A9
:100EC0000E9417028EE895E00E94170288EA95E0DA
:100ED0000C94170280E794E00E947A0288E894E07C
:100EE0000E947A0280EA94E00E947A0288EB94E001
:100EF0000E947A0280ED94E00E947A0288EE94E0EB
:100F00000E947A0280E095E00E947A0288E195E0F2
:100F10000E947A0280E395E00C947A02FB01019032
:100F20000020E9F73197AF01461B570BDC01ED912B
:100F3000FC910280F381E02D0994CF93DF930E940E
:100F40003805EC0162E471E087E892E00E948E07C8
:100F50008C0F9D1FDF91CF9108950F931F93CF9317
:100F6000DF93EC010E948E078C0162E471E0CE01F8
:100F70000E948E07800F911FDF91CF911F910F91DB
:100F800008950F931F93CF93DF938C01EB0187E8B4
:100F900092E00E94AD07F80180819181009739F0BD
:100FA000BE01DF91CF911F910F910C94AD07DF919E
:100FB000CF911F910F910895EF92FF920F931F937E
:100FC000CF93DF938C01D62FC0E0D80112968D917C
:100FD0009C911397C8171906E4F41496ED91FC91AF
:100FE000E080F18080E0309759F465E471E0C80159
:100FF0000E94C1076D2FC7010E947305CF5FE5CF27
:10100000C817C1F30280F381E02DE080F1808F5F8B
:10101000F7CFDF91CF911F910F91FF90EF9008953F
:10102000CF93DF93EC014B815C8129813A81421798
:10103000530771F589E292E00E94380580916702BA
:1010400090916802892BE9F481E090E09093680226
:101050008093670286E292E00E949D078C899D89B9
:1010600018161906ACF461E080916702909168024D
:10107000892B09F460E0CE014296DF91CF910C9468
:10108000DC07109268021092670282E292E0E4CFDD
:10109000DF91CF910895CF93DF93EC014E855F856B
:1010A0006A857B8587E892E00E944B042B813C8116
:1010B00089819A8128173907C1F485E192E00E945D
:1010C0009D078C899D891816190694F461E02B817F
:1010D0003C8189819A812817390709F460E0CE01A3
:1010E0004296DF91CF910C94DC0788E092E0E7CF45
:1010F000DF91CF910895CF93DF93DC011496ED91AA
:10110000FC91C081D181309741F465E471E00E9487
:10111000C107CE01DF91CF91089580E08617C9F312
:101120000280F381E02DC081D1818F5FF7CFCF9313
:10113000DF93D0E0C0E08091740390917503C817ED
:10114000D90764F46C2F82E793E00E947B08DC01EE
:101150001E96ED91FC9109952196EDCFDF91CF91EF
:101160000895CF93DF93DC01ED91FC9111970190ED
:10117000F081E02D0088F189E02D309739F07783F8
:101180006683CF01DF91CF910C9444071296ED91C5
:10119000FC9180819181FC0122813381121613061A
:1011A00064F4EB0160E00E947B08DC0150968D91B5
:1011B0009C91FC01D783C683E5CFDF91CF91089541
:1011C0000F931F93CF93DF93CDB7DEB72A970FB658
:1011D000F894DEBF0FBECDBFFC019E838D830091CE
:1011E0003A0310913B0311278689978998878F834B
:1011F000CE0105969A8789879A83898302969C8374
:101200008B8390910401933409F45FC0E8F4913426
:1012100069F1923409F445C080913A0390913B03FF
:101220008017910731F010933B0300933A030E941B
:10123000CF062A960FB6F894DEBF0FBECDBFDF9162
:10124000CF911F910F910895943409F465C095349E
:1012500019F7808991890097F9F2FC0121812223F5
:10126000D1F00E9486058111D7CF15C08089918960
:10127000892B91F20480F581E02D80819181892B69
:1012800031F480914A0390914B03892B29F21092FB
:101290004B0310924A0382E48093040102E010E0C1
:1012A000BBCF80912E0390912F038436910508F4D3
:1012B000B3CF83E4809304016AE171E0CE0101962B
:1012C0000E94B10810E000E0A7CFCE0109960E946D
:1012D000C405882359F010924B0310924A036AE127
:1012E00071E0CE0101960E94B10896CFED81FE819A
:1012F00080899189009709F48FCFFC012181211108
:1013000006C084E48093040101E010E085CF0E94D0
:101310008605811181CFF5CFCE0109960E94C405C3
:10132000882351F010924B0310924A0385E4809376
:10133000040168E171E0C2CF80912E0390912F03E8
:10134000892B09F069CF81E480930401BBCFCF934F
:10135000DF93DC011496ED91FC91C081D18130972F
:1013600041F465E471E00E94C107CE01DF91CF91A5
:10137000089580E08617C9F30280F381E02DC081D3
:10138000D1818F5FF7CFDF92EF92FF920F931F9380
:10139000CF93DF938C017B01D0E0C0E0262F21703A
:1013A000D22ED80112968D919C91C817D9071CF5A1
:1013B0006C2FC8010E94A709DC011296ED91FC91E7
:1013C0006D2DB2E0EB16F10431F461E02081318142
:1013D000232B09F060E0262F30E040815181421735
:1013E000530739F031832083FC01808191810E9471
:1013F00073052196D6CFDF91CF911F910F91FF906A
:10140000EF90DF900895CF93DF93EC01E881F981AD
:10141000AC89BD89418152812D913C9124173507BA
:1014200090F020853185232B59F461E070E0069619
:101430000E94C309E881F98181E090E0918780876B
:10144000DF91CF91089511861086FACFCF93DF9365
:10145000EC01EC89FD8940815181EA89FB89208179
:1014600031812417350774F1E881F98180859185F0
:101470008130910541F08230910599F010923F033F
:1014800010923E030BC02181328142175307B4F002
:1014900061E070E0CE0106960E94C30982E090E010
:1014A0000DC0418152814217530744F070E060E063
:1014B000CE0106960E94C30981E090E0E881F9819F
:1014C00091878087DF91CF910895CF93DF93EC01CF
:1014D000E881F98188899989438154812181328108
:1014E0004217530751F00E94440761E070E0CE01BB
:1014F0000696DF91CF910C94C309FC012181211143
:1015000010C0E889F989808181110FC089E392E0D8
:101510000E949D07E889F98981E0808370E060E09E
:10152000E6CF0E948605882361F3DF91CF9108956D
:10153000DC01ED91FC91438154812181328142177C
:10154000530729F462E070E006960C94C3090895ED
:101550000C94980ACF92DF92EF92FF921F93CF9351
:10156000DF937C01D0E0C0E06C0186E0C80ED11CA6
:10157000D70118968D919C911997C817D907CCF46B
:10158000ED91FC9111E021813281838194812817B2
:10159000390709F410E06C2FC6010E94A709DC018D
:1015A0001296ED91FC91812F90E09183808321969A
:1015B000DFCFDF91CF911F91FF90EF90DF90CF9021
:1015C0000C94FA06EF92FF920F931F93CF93DF9341
:1015D000EC017B010E811F8184E090E00E94331CAE
:1015E0009F838E83892B29F468E771E0CE010E94E6
:1015F000C107EE81FF8113821282F182E0828C8129
:101600009D81892B71F4FD83EC838A819B810196F6
:101610009B838A83DF91CF911F910F91FF90EF9071
:101620000895D8011396FC93EE931297EECFEF92A4
:10163000FF920F931F93CF93DF93EC017B010E81F9
:101640001F8184E090E00E94331C9F838E83892B4E
:1016500029F468E771E0CE010E94C107EE81FF81A5
:1016600013821282F182E0828C819D81892B71F438
:10167000FD83EC838A819B8101969B838A83DF9122
:10168000CF911F910F91FF90EF900895D80113967D
:10169000FC93EE931297EECFEF92FF920F931F936E
:1016A000CF93DF93EC017B010E811F8184E090E0FA
:1016B0000E94331C9F838E83892B29F468E771E095
:1016C000CE010E94C107EE81FF8113821282F18256
:1016D000E0828C819D81892B71F4FD83EC838A816A
:1016E0009B8101969B838A83DF91CF911F910F91FC
:1016F000FF90EF900895D8011396FC93EE93129704
:10170000EECF0F931F93CF93DF938C01C0917003A3
:10171000D091710384E090E00E94331C9093710398
:1017200080937003892B31F468E771E08AE693E0D7
:101730000E94C107E0917003F0917103138212823D
:101740001183008380916E0390916F03892B91F434
:10175000F0936F03E0936E0380916C0390916D039F
:10176000019690936D0380936C03DF91CF911F914D
:101770000F910895FB83EA83EFCFCF93DF93EC01C2
:101780002B813C8189819A8128173907D1F44E85B4
:101790005F856A857B8587E892E00E944B0469EA51
:1017A00071E087E892E00E948E0788859985892BF1
:1017B000C9F481E090E09987888785E092E00E94F3
:1017C0009D078C899D89181619068CF461E088851F
:1017D0009985892B09F460E0CE014296DF91CF9183
:1017E0000C94DC071986188681E092E0E8CFDF913F
:1017F000CF9108950F931F93CF93DF93EC018A85C8
:101800009B85009769F0FC01028113810E94CF1C27
:101810001B870A8788859985019799878887EFCFE5
:101820001F861E861F8A1E8ADF91CF911F910F91FE
:101830000895CF93DF93EC018A509F4F0E94FA0BDB
:10184000CE01825F9E4F0E94FA0BCE018A5D9E4FB1
:101850000E94FA0BCE01825C9E4F0E94FA0BCE01D1
:101860008A5A9E4F0E94FA0BCE0182599E4F0E94C7
:10187000FA0BCE018A579E4F0E94FA0BCE018A5472
:101880009E4F0E94FA0BDF91CF9108950F931F9303
:10189000CF93DF93EC018E899F89009769F0FC015B
:1018A000028113810E94CF1C1F8B0E8B8C899D8916
:1018B00001979D8B8C8BEFCF198A188ADF91CF917E
:1018C0001F910F910895CF93DF93EC0102960E9430
:1018D000460CCE014C960E94460CCE01C6960E9444
:1018E000460CCE01805B9F4F0E94460CCE0186596C
:1018F0009F4F0E94460CCE018C579F4F0E94460C72
:10190000CE0182569F4F0E94460CCE0188549F4FB5
:101910000E94460CCE018E529F4F0E94460CDF91D2
:10192000CF9108950F931F93CF93DF93EC010C8118
:101930001D81012B51F08C819D81FC01028113815D
:101940000E94CF1C1D830C83F4CFDF91CF911F9198
:101950000F910895CF93DF93EC0142960E94920C71
:101960008A859B85009721F0DF91CF910C94CF1C45
:10197000DF91CF910895CF93DF93EC0180E291E066
:1019800099838883CE018E529F4F0E94AA0CCE016C
:1019900088549F4F0E94AA0CCE0182569F4F0E94EE
:1019A000AA0CCE018C579F4F0E94AA0CCE018659DB
:1019B0009F4F0E94AA0CCE01805B9F4F0E94AA0CF1
:1019C000CE01C6960E94AA0CCE014C960E94AA0C8B
:1019D000CE010296DF91CF910C94AA0CCF93DF93A6
:1019E000EC010E94BB0CCE01DF91CF910C94CF1C77
:1019F000CF93DF93EC018CE391E099838883CE0150
:101A000084549E4F0E94920CCE018C559E4F0E9492
:101A1000920CCE0184579E4F0E94920CCE018C589E
:101A20009E4F0E94920CCE01845A9E4F0E94920CAF
:101A3000CE018C5B9E4F0E94920CCE01845D9E4F26
:101A40000E94920CCE018C5E9E4F0E94920CCE01A1
:101A500084509F4F0E94920CCE01DF91CF910C9445
:101A6000BB0CCF93DF93EC010E94F80CCE01DF9109
:101A7000CF910C94CF1C0F931F93CF93DF93EC0166
:101A80008C819D81009769F0FC01028113810E9485
:101A9000CF1C1D830C838A819B8101979B838A8342
:101AA000EFCF81E0DF91CF911F910F91089588E5ED
:101AB00095E00E94630C8AE793E00E94190C82E78C
:101AC00093E00C943B0D1F93CF93DF93EC01162F03
:101AD0000E94C61A181739F0612FCE01DF91CF91FD
:101AE0001F910C94CE1ADF91CF911F910895CF933F
:101AF000DF93D0E0C0E0C730D105C0F4FE01ED5760
:101B0000F24F0C94031C8A0D9D0DA80DBA0DCA0D41
:101B1000DA0DDA0D61E080913C0390913D03892B51
:101B200009F460E084E496E00E9473052196C830D1
:101B3000D10509F7DF91CF91089561E080913E03CF
:101B400090913F03892B09F460E086E496E0ECCFA6
:101B500061E08091400390914103892B09F460E09A
:101B6000E091B804F091B904658381E090E00E94AF
:101B7000630DDCCF61E08091420390914303892B98
:101B800009F460E0E0910005F0910105658384E0CF
:101B900090E0EDCF61E08091440390914503892B63
:101BA00009F460E0E0913005F0913105658389E04A
:101BB00090E0DDCF80913003813A09F0B7CF0E94E9
:101BC000FA06B4CF0C94C61A2F923F924F925F92AE
:101BD0006F927F928F929F92AF92BF92CF92DF923D
:101BE000EF92FF920F931F93CF93DF93CDB7DEB7A2
:101BF000C456D1090FB6F894DEBF0FBECDBF10E0BA
:101C000000E050E1E52E58E0F52E68E3462E63E053
:101C1000562E78EAC72E7AE0D72EEFE06E2EE1E05E
:101C20007E2EF0EEAF2EF8E0BF2ECE0101961C0105
:101C30000330110509F464C30CF044C001301105F0
:101C400009F446C30230110509F44FC36091300313
:101C500090E080E00E94630D8091300390916002DB
:101C6000891789F080936002833409F435C108F044
:101C700060C0833109F4EFC080F5813109F4B5C04B
:101C8000823109F4C7C00F5F1F4F0630110581F67E
:101C9000CC59DF4F0FB6F894DEBF0FBECDBFDF913A
:101CA000CF911F910F91FF90EF90DF90CF90BF9059
:101CB000AF909F908F907F906F905F904F903F90EC
:101CC0002F9008950430110509F425C3053011053E
:101CD00009F0BCCF0E94CF06D6CF813409F4CEC024
:101CE00008F0EFC0823379F684E991E00E949D0705
:101CF0000E94570DF0926B05E0926A0564E476E06D
:101D00008CE695E00E944C0BF0928505E0928405EC
:101D100064E476E086E895E00E944C0BF0929F0523
:101D2000E0929E0564E476E080EA95E00E944C0B28
:101D3000AACF803909F4A3C130F5823609F4FFC077
:101D4000803709F41FC1843509F09DCF85E291E009
:101D50000E949D070E94570D28E9822E2AE0922EAC
:101D600090927F0480927E0468E475E086E794E0B8
:101D70000E94170B90929704809296046CE475E091
:101D80008EE894E0C6C1823A09F4C6C1833A09F4E8
:101D900036C2813A09F077CF82E990E00E949D0730
:101DA0000E94570D10927A027092800260927F0218
:101DB0001092810210928202109283021092840289
:101DC0008AEA882E8AE0982E90927F0480927E0480
:101DD00060E575E086E794E00E94170B9092970407
:101DE0008092960464E575E0CBCF86EE91E00E9488
:101DF0009D070E94570D8BE498E090936B058093AC
:101E00006A05909385058093840590939F05809340
:101E10009E0539CF8AEC91E00E949D070E94570DE4
:101E20008DEB9BE090936B0580936A0510926305A0
:101E300010926205909385058093840510927D052C
:101E400010927C0590939F0580939E0510929705B4
:101E50001092960518CF8FEA91E00E949D070E948C
:101E6000570DF0926B05E0926A05F0928505E092BD
:101E70008405F0929F05E0929E0505CF88E791E0EA
:101E80000E949D070E94570D4BE4842E48E0942E3B
:101E900090926B0580926A0564E476E08CE695E0AA
:101EA0000E944C0B909285058092840566E476E052
:101EB00086E895E00E944C0B90929F0580929E05CB
:101EC000E2CE8CE591E00E949D070E94570D3DEB0C
:101ED000832E3BE0932EDCCF81E491E00E949D07AE
:101EE0000E94570DF0926B05E0926A0564E476E07B
:101EF0008CE695E00E944C0B66E476E08CE695E07B
:101F00000E944C0BF0928505E092840564E476E033
:101F100086E895E00E944C0B66E476E086E895E062
:101F20000E944C0BF0929F05E0929E0564E476E0DF
:101F300080EA95E00E944C0B66E476E0F5CE89E0FD
:101F400091E00E949D070E94570D98E9892E9AE022
:101F5000992E90927F0480927E046CE475E086E76F
:101F600094E00E94170B909297048092960468E484
:101F700075E08EE894E00E94170B9092AF04809277
:101F8000AE0481CE8CED90E00E949D0780915802B6
:101F900081110DC010925102109252021092530200
:101FA000109254021092550281E0809358020E94D0
:101FB000570DE091B804F091B90481E0858381E088
:101FC00090E09093410380934003809133038F937B
:101FD000809132038F938AEF91E09F938F933F928A
:101FE0002F920E94251EB10187E892E00E94AD0762
:101FF00082E393E0909357028093560280E592E04B
:102000000E94440780E592E09093C9048093C8043D
:1020100085E69AE09093C7048093C6046CE475E06B
:102020008EEB94E00E94170BD0927F04C0927E0446
:1020300068E475E086E794E00E94170BD09297045D
:10204000C092960468E475E08EE894E00E94170B55
:10205000D092AF04C092AE0468E475E086EA94E0E2
:102060000E94170B68EB74E082E793E00E94E20A9B
:102070000F900F900F900F900F900F9004CE8DEA5D
:1020800090E00E949D070E94570D86E393E0909395
:1020900015058093140584E393E0909313058093D2
:1020A000120586E29AE090930F0580930E056CE48A
:1020B00075E086E095E00E94170B5092450540922E
:1020C000440583E09AE090933F0580933E0568E4E1
:1020D00075E086E395E00E94170BD0927F04C092D2
:1020E0007E0468E475E086E794E00E94170BD092C6
:1020F0009704C092960468E475E08EE894E00E942C
:10210000170BD092AF04C092AE0468E475E086EA83
:1021100094E00E94170BB7CD83E790E00E949D07E3
:102120008091480281110DC010924102109242022A
:1021300010924302109244021092450281E0809373
:10214000480280913802811113C01092330210921C
:10215000320210923502109234021092370210921D
:102160003602109231021092300281E080933802E0
:102170000E94570D82E091E09093470280934602BF
:1021800080E492E00E94440710927A0270928002EA
:1021900060927F021092810210928202109283025A
:1021A0001092840280E392E00E943B0D60E774E0AD
:1021B00080E392E00E94E20AB0927F04A0927E0443
:1021C00080E492E0909381048093800450924505CE
:1021D000409244051092410510924005B0923F058F
:1021E000A0923E0580E392E09093470580934605D8
:1021F00060E774E082E793E00E94E20A44CD88E65B
:1022000090E00E949D078091280281110DC01092DC
:1022100021021092220210922302109224021092A4
:10222000250281E08093280280911802811113C059
:1022300010921302109212021092150210921402C0
:1022400010921702109216021092110210921002B0
:1022500081E0809318020E94570D80E091E09093F6
:1022600027028093260280E292E00E9444071092A7
:102270007A027092800260927F0210928102109224
:102280008202109283021092840280E192E00E9406
:102290003B0D60E774E080E192E00E94E20AB092B8
:1022A0007F04A0927E0480E292E090938104809368
:1022B00080045092450540924405109241051092C9
:1022C0004005B0923F05A0923E0580E192E08CCFA0
:1022D0006091330382E090E00E94630D60913203CD
:1022E00083E090E00E94630DCECC6091350385E0E1
:1022F00090E00E94630D6091340386E090E0F2CF9D
:102300006091370387E090E00E94630D609136038F
:1023100088E090E0E7CF609139038AE090E00E9486
:10232000630D609138038BE090E0DCCFCF92DF92B9
:10233000EF92FF920F931F93CF93DF93CDB7DEB74A
:10234000C854D1090FB6F894DEBF0FBECDBF80913F
:10235000780290917902DC01ED91FC910084F18585
:10236000E02D09958C010E94F90201151105A1F4D7
:102370001092660210926502C85BDF4F0FB6F894A8
:10238000DEBF0FBECDBFDF91CF911F910F91FF90A8
:10239000EF90DF90CF900895209165023091660212
:1023A00002171307C9F010936602009365020091AB
:1023B0006603109167032091680330916903600FF1
:1023C000711F821F931F609361027093620280935A
:1023D000630290936402D0CF009161021091620277
:1023E000209163023091640260177107820793079E
:1023F00018F21092660210926502FE0131967F017A
:102400006F0110E000E08091780290917902DC0188
:10241000ED91FC910084F185E02D0995892BC1F0A7
:102420008091780290917902DC01ED91FC91028417
:10243000F385E02D0995F60181936F010F5F1F4F22
:102440000034110501F70E94770D0E94E40D94CF2E
:102450000115110509F490CF3EEF300FF7018FEF12
:102460009FEF2E2F2E19231788F42191822728E021
:10247000AC014170552796958795452B21F041E099
:10248000842740EA9427215099F7EBCFEFEFFFEF35
:10249000EC0FFD1FE00FF11F2081FE01E00FF11F87
:1024A0003081232732272327982789279827281721
:1024B000390749F6E09154038981E813C4CF9A8122
:1024C000A1E1B1E028E131E08D91891709F4D5C08F
:1024D0002A173B07C9F781E02296EFAF2297905861
:1024E00023969FAF239724968FAF249763E0CE0166
:1024F0008F5B9F4F0E945003A6CF6D8170E0762FB7
:1025000066274E81640F711D209160033091610335
:10251000923031F0913099F520915E0330915F0354
:1025200048E061157105E1F146171706C8F14B81C6
:10253000A42FB0E0BA2FAA274C814A0F5B2F511D60
:10254000460F571F2417350708F4ACC06B8170E0A5
:10255000762F66279C81690F711D833009F45AC05C
:1025600008F5813009F449C0823009F06CCF209120
:102570005803309159034E8182E090E045C020918C
:10258000620330916303933049F030E020E040E093
:10259000943039F6209164033091650349E1C1CF4D
:1025A00083E09ACF853009F445C0E8F1863009F020
:1025B0004ACF40915A0350915B032D813E813227CF
:1025C000232732272296EFAF229723968FAF2397A8
:1025D00024967FAF249725966FAF259726963FAF19
:1025E000269727962FAF2797660F771FFA01E60FDA
:1025F000F71F3183208366E07ACF20915603309114
:1026000057034E8181E090E00E94B303892B09F0CB
:102610001ACFB2CE20915A0330915B034E8183E0F2
:102620000E94F503F3CF20915C0330915D034E814E
:1026300084E0F6CF40915603509157032D813E819F
:102640003227232732272296EFAF229723968FAF88
:10265000239724967FAF249725966FAF25972696CC
:102660003FAF269727962FAF2797660F771F640FE8
:10267000751FDB012D933C93BECF963009F466CFD6
:10268000953009F03ACF2B8130E0322F22274C8150
:10269000240F311D40915E0350915F0324173507CD
:1026A00008F454CF82E018CF1F920F920FB60F920A
:1026B00011242F933F938F939F93AF93BF93809158
:1026C000700290917102A0917202B09173023091E8
:1026D0006F0223E0230F2D3758F50196A11DB11D80
:1026E00020936F028093700290937102A093720204
:1026F000B09373028091740290917502A09176025A
:10270000B09177020196A11DB11D80937402909340
:102710007502A0937602B0937702BF91AF919F911B
:102720008F913F912F910F900FBE0F901F90189592
:1027300026E8230F0296A11DB11DD2CF1F920F9242
:102740000FB60F9211242F933F934F935F936F9384
:102750007F938F939F93AF93BF93EF93FF93E091FA
:102760000701F09108010995FF91EF91BF91AF9199
:102770009F918F917F916F915F914F913F912F9199
:102780000F900FBE0F901F9018951F920F920FB6CB
:102790000F9211242F933F934F935F936F937F93E7
:1027A0008F939F93AF93BF93EF93FF93E0910501B6
:1027B000F09106010995FF91EF91BF91AF919F9123
:1027C0008F917F916F915F914F913F912F910F90DA
:1027D0000FBE0F901F9018951F920F920FB60F9279
:1027E00011242F933F934F935F936F937F938F9316
:1027F0009F93AF93BF93EF93FF9387E892E00E947C
:10280000C904FF91EF91BF91AF919F918F917F91FB
:102810006F915F914F913F912F910F900FBE0F904D
:102820001F9018951F920F920FB60F9211242F939D
:102830008F939F93EF93FF93E0919702F09198020B
:102840008081E0919D02F0919E0282FD1BC09081EB
:102850008091A0028F5F8F732091A102821741F0B7
:10286000E091A002F0E0E957FD4F958F8093A00220
:10287000FF91EF919F918F912F910F900FBE0F902D
:102880001F9018958081F4CF1F920F920FB60F9270
:1028900011240F900FBE0F901F9018950F931F9348
:1028A000CF93DF93EC0188819981009759F02A81B9
:1028B0003B812617370730F081E0DF91CF911F91E0
:1028C0000F9108958B016F5F7F4F0E94581D0097F5
:1028D00059F0998388831B830A832C813D81232BA4
:1028E00059F7FC011082E8CF80E0E7CFCF93DF9368
:1028F000EC011B861A861D861C861F861E8670E0CC
:1029000060E00A960E944E142A853B85811117C00B
:102910002115310519F0C9010E94CF1C1B861A86AA
:102920001F861E861D861C861D8A1C8A1F8A1E8A7B
:10293000198E188E1B8A1A8ADF91CF9108951F86EF
:102940001E8664E471E0C9010E941E1EEDCFEF9265
:10295000FF920F931F93CF93DF93EC017B01FB0159
:1029600001900020E9F731978F01061B170BB80182
:102970000E944E1428813981811113C0211531051F
:1029800019F0C9010E94CF1C198218821D821C8275
:102990001B821A82DF91CF911F910F91FF90EF90D0
:1029A00008951D830C83B701C901DF91CF911F9159
:1029B0000F91FF90EF900C941E1E3F924F925F92EA
:1029C0006F927F928F929F92AF92BF92CF92DF923F
:1029D000EF92FF920F931F93CF93DF93EC0120E2CE
:1029E00031E0FC0121933193CF010E947614CE0196
:1029F0004C960E947614CE01C6960E9476144E0123
:102A0000F0E58F0E911CC4010E9476145E018AE6E7
:102A1000A80EB11CC5010E9476146E01E4E8CE0E2A
:102A2000D11CC6010E9476147E01FEE9EF0EF11C56
:102A3000C7010E9476143E0188EB680E711CC30129
:102A40000E9476142E01E2ED4E0E511CC2010E942E
:102A5000761460E083E00E94C80260E08AE00E9491
:102A6000C80260E08BE00E94C80260E08DE00E9436
:102A7000C80261E084E00E94C80261E087E00E9431
:102A8000C80261E085E00E94C80261E086E00E9421
:102A9000C80261E089E00E94C80261E088E00E940B
:102AA000C80260E082E00E94C80285E895E0909349
:102AB000060180930501E9E6F0E080818360808370
:102AC000E89A83E08A831C821B821E821D82332443
:102AD00033943F82198618866DEB71E0CE010C9617
:102AE0000E94A7141B8A1A8A8AE08C8F1E8E1D8E64
:102AF00018A21F8E39A21BA21AA265EC71E0CE01AA
:102B000086960E94A7141DA61CA68BE08EAB01E042
:102B100010E018AF0FAB1AAF09AF3BAE1DAE1CAE45
:102B20006DEC71E0CE01805C9F4F0E94A714FE0106
:102B3000EA5BFF4F118210828DE0F40180833196B1
:102B40001182108232961182108232963082319632
:102B50001182108264ED71E0CE01865A9F4F0E946F
:102B6000A714FE01E05AFF4F1182108281E1F501A6
:102B700080833596308231961183008368ED71E051
:102B8000CE018C589F4F0E94A71482E1F6018083EA
:102B9000359630823196118300836EED71E0CE015F
:102BA00082579F4F0E94A7148EE0F70180833596CD
:102BB000308231961183008364EE71E0CE01885536
:102BC0009F4F0E94A71480E1F301808338968FEF16
:102BD0009FEF9183808333973082319611830083F6
:102BE0006BEE71E0CE018E539F4F0E94A71483E1DC
:102BF000F20180833596308231961183008362EF33
:102C000071E0CE0184529F4F0E94A714FE01E4514F
:102C1000FF4F84E0808331961082319687E0808375
:102C200031961082319685E08083319610823196FC
:102C300086E08083CD50DF4F1882DF91CF911F91C6
:102C40000F91FF90EF90DF90CF90BF90AF909F904B
:102C50008F907F906F905F904F903F900895E7E83E
:102C6000F2E01382128288EE93E0A0E0B0E0848369
:102C70009583A683B7838AE291E09183808385EC74
:102C800090E09587848784EC90E09787868780EC36
:102C900090E0918B808B81EC90E0938B828B82EC27
:102CA00090E0958B848B86EC90E0978B868B118ED1
:102CB000128E138E148E88E595E00E94DD148AE74B
:102CC00093E00E94DD14AAE7B3E08CE391E0119653
:102CD0009C938E9310926F0410926E04109279045C
:102CE0001092780410927B0410927A0410927D0462
:102CF00010927C0410927704109276041092910442
:102D000010929004109293041092920410929504E1
:102D10001092940410928F0410928E041092A904C1
:102D20001092A8041092AB041092AA041092AD0461
:102D30001092AC041092A7041092A6041092C10441
:102D40001092C0041092C3041092C2041092C504E1
:102D50001092C4041092BF041092BE041092D904C1
:102D60001092D8041092DB041092DA041092DD0461
:102D70001092DC041092D7041092D6041092F10441
:102D80001092F0041092F3041092F2041092F504E1
:102D90001092F4041092EF041092EE0410920905C0
:102DA0001092080510920B0510920A0510920D055D
:102DB00010920C051092070510920605109221053D
:102DC00010922005109223051092220510922505DD
:102DD0001092240510921F0510921E0510923905BD
:102DE0001092380510923B0510923A0510923D055D
:102DF00010923C0510923705109236058CE793E04F
:102E00009093710480937004ECE4F3E0F093750404
:102E1000E093740413968D919C9114979183808311
:102E200086E993E090938904809388048EE493E08C
:102E300090938D0480938C045D968D919C915E9708
:102E40009383828380EB93E09093A1048093A0040A
:102E500080E593E09093A5048093A404D7968D9188
:102E60009C91958384838AEC93E09093B90480933A
:102E7000B8041092CF03ACE3B3E015961C921E92F7
:102E8000149782E593E09093BD048093BC048091F5
:102E9000CB039091CC039783868383E090E090935B
:102EA00033038093320384EE93E09093D1048093B4
:102EB000D00484E293E09093D5048093D4048EEF01
:102EC00093E09093E9048093E80486E293E0909382
:102ED000ED048093EC0488E194E0909301058093E5
:102EE000000588E293E0909305058093040582E352
:102EF00094E090931905809318058AE293E09093EB
:102F00001D0580931C058CE891E090932705809324
:102F100026058CE494E090933105809330058CE293
:102F200093E0909335058093340586E694E0909382
:102F3000490580934805B0934B05A0934A0588E660
:102F400094E090934D0580934C058EE393E090932D
:102F50004F0580934E0586E493E09093530580934C
:102F600052051B961C921E921A9788E493E0909348
:102F70005705809356051D961C921E921C97E2E7FA
:102F8000F3E0138212821582148217821682118254
:102F90001082EAE6F3E0138212821582148217820D
:102FA000168211821082E4E5F3E013821282158208
:102FB0001482178216821186108613861286158651
:102FC000148617861686118A108A11821082128A38
:102FD000138A148A158A0895789484B5826084BD12
:102FE00084B5816084BD85B5826085BD85B581600D
:102FF00085BD80916E00816080936E00109281008B
:103000008091810082608093810080918100816045
:103010008093810080918000816080938000809106
:10302000B10084608093B1008091B0008160809392
:10303000B00080917A00846080937A0080917A0059
:10304000826080937A0080917A00816080937A0018
:1030500080917A00806880937A001092C10087E89E
:1030600092E090937902809378028CE393E09093BE
:1030700057038093560388E090E090935F0380931A
:103080005E038CE493E0909359038093580384E0AB
:1030900090E0909361038093600380E393E09093CA
:1030A0005B0380935A0386E090E0909363038093E0
:1030B000620324E233E030935D0320935C0390933A
:1030C00065038093640381E0809354038CE08093D4
:1030D0005503E0919702F091980282E08083E0919D
:1030E0009302F09194021082E0919502F091960281
:1030F00080E1808310929F02E0919B02F0919C02FC
:1031000086E08083E0919902F0919A02808180614B
:103110008083E0919902F0919A0280818860808397
:10312000E0919902F0919A02808180688083E09119
:103130009902F0919A0280818F7D80838091C200F4
:1031400086608093C20061E08CE00E94C80260E06B
:103150008CE00E949A028FE291E0A0E0B0E08093C0
:10316000660390936703A0936803B093690390E0AC
:1031700080E00E94E20D90E0009711F481E190E080
:10318000909331038093300381E090E00E94E20D40
:1031900090E0909341038093400382E090E00E948E
:1031A000E20DC82F83E090E00E94E20D2C2F30E06A
:1031B000322F2227820F932F911D909333038093F8
:1031C000320384E090E00E94E20D90E0909343038C
:1031D0008093420385E090E00E94E20DC82F86E0D4
:1031E00090E00E94E20D2C2F30E0322F2227820F38
:1031F000932F911D909335038093340387E090E0E3
:103200000E94E20DC82F88E090E00E94E20D2C2F72
:1032100030E0322F2227820F932F911D9093370396
:103220008093360389E090E00E94E20D90E0909355
:103230004503809344038AE090E00E94E20DC82F8A
:103240008BE090E00E94E20D2C2F30E0322F2227FD
:10325000820F932F911D90933903809338030E941E
:10326000770D0E94E40D83E597E00E94810B86E9CB
:1032700091E10E94810B87E998E00E94810B8CE428
:1032800092E00E949D0787E892E00E94530574E651
:10329000E72EF12CE3E0CE2ED12CF0E0AF2EF0E0C3
:1032A000BF2E0E943E0400916B0210916C0220918F
:1032B0006D0230916E02601B710B820B930B6A30B2
:1032C00071058105910508F44AC00E943E0460938F
:1032D0006B0270936C0280936D0290936E028091EA
:1032E000690290916A020196B7010E94D01B9093E7
:1032F0006A0280936902C0E080916C0390916D0333
:10330000C8171906E4F4E0916E03F0916F03008191
:10331000118180E0309751F465E471E08AE693E032
:103320000E94C107F8010995CF5FE6CFC817D1F316
:103330000280F381E02D008111818F5FF7CF8091B2
:10334000690290916A02B6010E94D01B892B39F460
:1033500080913A0390913B0399270E947406A1142F
:10336000B10409F49ECF0E94B504882309F499CFD3
:103370000E94000096CF8AE693E00E94920C82E7BA
:1033800093E00E94920C8AE793E00E94F80C88E593
:1033900095E00C94BB0CE89409C097FB3EF4909523
:1033A0008095709561957F4F8F4F9F4F9923A9F01E
:1033B000F92F96E9BB279395F695879577956795AD
:1033C000B795F111F8CFFAF4BB0F11F460FF1BC0F1
:1033D0006F5F7F4F8F4F9F4F16C0882311F096E984
:1033E00011C0772321F09EE8872F762F05C0662332
:1033F00071F096E8862F70E060E02AF09A95660FEB
:10340000771F881FDAF7880F9695879597F90895A3
:103410000E941B1A0C948C1A0E947E1A38F00E948B
:10342000851A20F0952311F00C94751A0C947B1AD0
:1034300011240C94C01A0E949D1A70F3959FC1F339
:10344000950F50E0551F629FF001729FBB27F00D52
:10345000B11D639FAA27F00DB11DAA1F649F6627A7
:10346000B00DA11D661F829F2227B00DA11D621FF6
:10347000739FB00DA11D621F839FA00D611D221FB0
:10348000749F3327A00D611D231F849F600D211D94
:10349000822F762F6A2F11249F5750409AF0F1F017
:1034A00088234AF0EE0FFF1FBB1F661F771F881F80
:1034B00091505040A9F79E3F510580F00C94751A29
:1034C0000C94C01A5F3FE4F3983ED4F38695779549
:1034D0006795B795F795E7959F5FC1F7FE2B880F26
:1034E000911D9695879597F9089597F99F6780E8BC
:1034F00070E060E008959FEF80EC089500240A9446
:103500001616170618060906089500240A941216BE
:103510001306140605060895092E0394000C11F4F1
:10352000882352F0BB0F40F4BF2B11F460FF04C09E
:103530006F5F7F4F8F4F9F4F089557FD9058440FF7
:10354000551F59F05F3F71F04795880F97FB991F02
:1035500061F09F3F79F087950895121613061406BF
:10356000551FF2CF4695F1DF08C01616170618064C
:10357000991FF1CF86957105610508940895E89427
:10358000BB2766277727CB0197F90895F999FECFD6
:1035900092BD81BDF89A992780B50895262FF99993
:1035A000FECF1FBA92BD81BD20BD0FB6F894FA9A26
:1035B000F99A0FBE019608950E941E1BA59F900DBB
:1035C000B49F900DA49F800D911D112408952F92FA
:1035D0003F924F925F926F927F928F929F92AF92A3
:1035E000BF92CF92DF92EF92FF920F931F93CF93F0
:1035F000DF93CDB7DEB7CA1BDB0B0FB6F894DEBF87
:103600000FBECDBF09942A88398848885F846E84AC
:103610007D848C849B84AA84B984C884DF80EE80F6
:10362000FD800C811B81AA81B981CE0FD11D0FB6FF
:10363000F894DEBF0FBECDBFED010895A29FB0018B
:10364000B39FC001A39F700D811D1124911DB29FD6
:10365000700D811D1124911D08955058BB27AA2774
:103660000E94451B0C948C1A0E947E1A38F00E940E
:10367000851A20F039F49F3F19F426F40C947B1A34
:103680000EF4E095E7FB0C94751AE92F0E949D1A41
:1036900058F3BA17620773078407950720F079F487
:1036A000A6F50C94BF1A0EF4E0950B2EBA2FA02DA0
:1036B0000B01B90190010C01CA01A0011124FF27DF
:1036C000591B99F0593F50F4503E68F11A16F040DA
:1036D000A22F232F342F4427585FF3CF46953795D9
:1036E0002795A795F0405395C9F77EF41F16BA0B9E
:1036F000620B730B840BBAF09150A1F0FF0FBB1F4C
:10370000661F771F881FC2F70EC0BA0F621F731F94
:10371000841F48F4879577956795B795F7959E3FF1
:1037200008F0B0CF9395880F08F09927EE0F979582
:10373000879508950E94A11B6894B1110C94C01A3A
:1037400008950E94A51A88F09F5798F0B92F9927DD
:10375000B751B0F0E1F0660F771F881F991F1AF07C
:10376000BA95C9F714C0B13091F00E94BF1AB1E008
:1037700008950C94BF1A672F782F8827B85F39F007
:10378000B93FCCF3869577956795B395D9F73EF415
:1037900090958095709561957F4F8F4F9F4F0895BD
:1037A000AA1BBB1B51E107C0AA1FBB1FA617B70767
:1037B00010F0A61BB70B881F991F5A95A9F7809583
:1037C0009095BC01CD010895052E97FB1EF4009441
:1037D0000E94FB1B57FD07D00E94111C07FC03D061
:1037E0004EF40C94FB1B50954095309521953F4F1E
:1037F0004F4F5F4F089590958095709561957F4FDD
:103800008F4F9F4F0895EE0FFF1F0590F491E02D0D
:103810000994B7FF0C94DC1A0E94DC1A821B930BEC
:103820000895A1E21A2EAA1BBB1BFD010DC0AA1F01
:10383000BB1FEE1FFF1FA217B307E407F50720F019
:10384000A21BB30BE40BF50B661F771F881F991F94
:103850001A9469F760957095809590959B01AC01DD
:10386000BD01CF0108950F931F93CF93DF93823053
:10387000910510F482E090E0E0914E06F0914F0641
:1038800030E020E0B0E0A0E0309799F42115310558
:1038900009F44AC0281B390B24303105D8F58A8138
:1038A0009B816115710589F1FB0193838283FE0180
:1038B00011C0408151810281138148175907E0F0FE
:1038C0004817590799F4109761F012960C931297C4
:1038D00013961C933296CF01DF91CF911F910F91D8
:1038E000089500934E0610934F06F4CF211531052D
:1038F00051F04217530738F0A901DB019A01BD01CD
:10390000DF01F801C1CFEF01F9CF90934F0680930B
:103910004E06CDCFFE01E20FF31F8193919322500B
:10392000310939832883D7CF20914C0630914D0639
:10393000232B41F420910B0130910C0130934D0663
:1039400020934C062091090130910A01211531057F
:1039500041F42DB73EB740910D0150910E01241B4B
:10396000350BE0914C06F0914D06E217F307A0F4F9
:103970002E1B3F0B2817390778F0AC014E5F5F4FC5
:103980002417350748F04E0F5F1F50934D064093A4
:103990004C06819391939FCFF0E0E0E09CCFCF93D2
:1039A000DF930097E9F0FC01329713821282A09115
:1039B0004E06B0914F06ED0130E020E01097A1F4E3
:1039C00020813181820F931F20914C0630914D064A
:1039D0002817390709F061C0F0934D06E0934C06B3
:1039E000DF91CF910895EA01CE17DF07E8F54A810C
:1039F0005B819E0141155105B1F7E901FB83EA8323
:103A000049915991C40FD51FEC17FD0761F48081CE
:103A100091810296840F951FE901998388838281A1
:103A200093819B838A83F0E0E0E012968D919C91D4
:103A300013970097B9F52D913C911197CD010296FE
:103A4000820F931F20914C0630914D06281739079D
:103A500039F6309751F510924F0610924E06B093FA
:103A60004D06A0934C06BCCFD383C28340815181C5
:103A7000840F951FC817D90761F44E5F5F4F888187
:103A80009981480F591F518340838A819B81938379
:103A900082832115310509F0B0CFF0934F06E093F2
:103AA0004E069ECFFD01DC01C0CF13821282D7CF1C
:103AB000B0E0A0E0EEE5FDE10C94E91A8C0100977E
:103AC00051F4CB010E94331C8C01C801CDB7DEB785
:103AD000E0E10C94051BFC01E60FF71F9C0122504E
:103AE0003109E217F30708F49DC0D901CD91DC91AB
:103AF0001197C617D70798F0C530D10530F3CE011E
:103B000004978617970708F3C61BD70B2297C19314
:103B1000D1936D937C93CF010E94CF1CD6CF5B01D4
:103B2000AC1ABD0A4C018C0E9D1EA0914E06B091A0
:103B30004F06512C412CF12CE12C109731F580913E
:103B40004C0690914D068815990509F05CC0461603
:103B5000570608F058C08091090190910A0100971A
:103B600041F48DB79EB740910D0150910E01841B19
:103B7000950BE817F90708F055C0F0934D06E09350
:103B80004C06F90171836083A0CF8D919C911197B0
:103B900012966C90129713967C901397A815B905FE
:103BA00059F56C0142E0C40ED11CCA14DB0420F1AB
:103BB000AC014A195B09DA011296159780F062820E
:103BC000738251834083D9016D937C93E114F10496
:103BD00071F0D7011396FC93EE93129776CF22964D
:103BE0008C0F9D1FF90191838083F301EFCFF09338
:103BF0004F06E0934E0669CF4816590608F42C018B
:103C00007D01D3019ACFCB010E94331C7C01009728
:103C100049F0AE01B8010E94151EC8010E94CF1CD8
:103C2000870153CF10E000E050CFFB01DC0102C060
:103C300001900D9241505040D8F70895FB01DC01EE
:103C400001900D920020E1F70895AEE0B0E0EBE2C4
:103C5000FEE10C94F51A0D891E8986E08C831A8387
:103C600009838FEF9FE79E838D83AE01475E5F4F91
:103C70006F89788DCE0101960E94481E2F8138856C
:103C8000020F131FF80110822E96E4E00C94111B12
:103C9000ABE0B0E0EEE4FEE10C94E71A7C013B01FE
:103CA0008A01FC0117821682838181FFC8C1CE017F
:103CB00001965C01F7019381F30193FD859193FFD8
:103CC00081913F01882309F453C1853239F493FD72
:103CD000859193FF81913F01853229F4B70190E0EE
:103CE0000E943820E7CF912C212C312CFFE1F315D5
:103CF00038F08B3211F190F4803209F1833229F1DE
:103D000037FC3CC020ED280F2A3050F536FE20C08D
:103D10008AE0989E200D1124922E06C08D3291F0DB
:103D2000803371F7689430F8F30193FD859193FF28
:103D300081913F018111DACF21C0689431F86894F4
:103D400032F8F2CF689433F8EFCF689434F8ECCFC0
:103D5000EAE02E9E200D1124222E689435F8E4CF3F
:103D60008E3229F436FC04C1689436F8DDCF8C36E7
:103D700019F4689437F8D8CF8836B1F2982F9F7D20
:103D800095549330E0F08336A1F18337C1F1833548
:103D900009F063C02801F2E04F0E511CF801C08009
:103DA000D180692D70E036FC02C06FEF7FEFC60155
:103DB0000E9422204C01689437F882010AC00C5FEF
:103DC0001F4FFFE3F98388248394912C6501E894C5
:103DD00037F833FE2DC0522C8114910471F5552013
:103DE00009F468CFB70180E290E00E9438205A942D
:103DF000F6CFF801808189830E5F1F4FE4CF280141
:103E0000F2E04F0E511CF801C080D180692D70E0A6
:103E100036FC02C06FEF7FEFC6010E942D204C01DF
:103E20008201D5CFB70180E290E00E9438202A9429
:103E30002814190409F0B0F7CECFF60137FC8591AC
:103E400037FE81916F01B70190E00E943820511038
:103E50005A94F1E08F1A9108BFCF843619F0893651
:103E600009F077C0F80137FE6BC0608171818281F3
:103E700093810C5F1F4FF32DFF763F2E97FF09C0F4
:103E800090958095709561957F4F8F4F9F4F689467
:103E900037F82AE030E0A5010E946820C82ECA1831
:103EA0008C2C432C36FE0CC0E89440F8C91440F426
:103EB00034FE05C032FC03C0F32DFE7E4F2E892C4C
:103EC00044FE95C0FE01EC0DF11D8081803309F0A8
:103ED00087C0242D297E422E842D8870582E43FCC5
:103EE00095C040FE8FC09C2C821418F42C0C922C90
:103EF000981844FE91C0B70180E390E00E943820FA
:103F000042FE09C088E790E041FE02C088E590E0EB
:103F1000B7010E943820C91408F48AC0CA94D12C71
:103F20009FEFC91AD90ACA0CDB1CF60182916F01F6
:103F3000B70190E00E943820AC14BD04B1F74FCF18
:103F400060817181072E000C880B990B0E5F1F4F4B
:103F500092CFD32CE894D4F82AE030E0853739F1B9
:103F6000232D297FD22E8F3601F148F48835A9F010
:103F7000F701868197812B96E2E10C94031B803731
:103F800049F08837A9F7D4FE02C06894D2F820E13E
:103F900030E00DC06894D4F8F6CF34FE03C0822F11
:103FA0008660D82E20E132E002C028E030E0F8013F
:103FB000D7FE0FC060817181828193810C5F1F4F9A
:103FC000A5010E946820C82ECA183D2CE89437F835
:103FD00067CF6081718190E080E00E5F1F4FF0CF6E
:103FE00042FC02C0839478CF8394839475CF842D50
:103FF000867809F471CFF6CFB70180E290E00E9495
:10400000382083948214C0F3512C73CF522C58184B
:10401000821408F46ECFF8CF842D867809F47BCF14
:104020008BE241FE80E247FC8DE2B70190E071CF68
:10403000B70180E390E00E9438209A946CCF8FEF14
:104040009FEF99CFFC010590615070400110D8F7A7
:10405000809590958E0F9F1F0895FC0161507040D0
:1040600001900110D8F7809590958E0F9F1F0895AD
:104070000F931F93CF93DF93182F092FEB018B81A1
:1040800081FD09C01FEF0FEF812F902FDF91CF919E
:104090001F910F91089582FF14C02E813F818C8162
:1040A0009D81281739073CF4E881F981CF010196F9
:1040B0009983888310838E819F8101969F838E834D
:1040C000E3CFE885F985812F0995892BA1F3DACF14
:1040D000FA01AA27283051F1203181F1E8946F9339
:1040E0006E7F6E5F7F4F8F4F9F4FAF4FB1E03ED0DF
:1040F000B4E03CD0670F781F891F9A1FA11D680F7D
:10410000791F8A1F911DA11D6A0F711D811D911DAF
:10411000A11D20D009F468943F912AE0269F112424
:104120003019305D3193DEF6CF010895462F477088
:10413000405D4193B3E00FD0C9F7F6CF462F4F70E3
:10414000405D4A3318F0495D31FD4052419302D041
:10415000A9F7EACFB4E0A6959795879577956795E7
:10416000BA95C9F700976105710508959B01AC01E7
:104170000A2E06945795479537952795BA95C9F70E
:10418000620F731F841F951FA01D089511E0C1E6E3
:10419000D1E004C0FE010E94031C2196C236D10763
:0641A000C9F7F894FFCFFF
:1041A600E803E803414A044A040000500680002060
:1041B6001C010203040506100100050000000000B2
:1041C600BB0CEE0C630C00000000EB044B047804FF
:1041D6005305A90487049B0400000000F80C310D68
:1041E600190C0D0A0051554555453A2063616E2755
:1041F60074207065656B206974656D2066726F6DDD
:104206002071756575653A207175657565206973E8
:1042160020656D7074792E0051554555453A2069D3
:104226006E73756666696369656E74206D656D6F1C
:10423600727920746F206372656174652061206EE7
:104246006577206E6F64652E00203A20496E74658E
:1042560072727570746F72202D2D3E2000424F547D
:10426600D34E203100424F54D34E203200502E20E0
:104276004F70740050495200504F54203100504F37
:104286005420320050485F52455300532E54454D3A
:10429600500050485F54544F520056616C6F722064
:1042A6004D425F544D505F5049523A2025640000FC
:00000001FF
