:100000000C9426010C944E010C944E010C944E015C
:100010000C944E010C944E010C944E010C944E0124
:100020000C944E010C944E010C944E010C944E0114
:100030000C944E010C944E010C944E010C944E0104
:100040000C94F10E0C944E010C94610F0C943B0F28
:100050000C944E010C944E010C944E010C944E01E4
:100060000C944E010C944E015030372053656C6552
:100070006363696F6E616461202D2D3E2053656E50
:10008000736F72204D6F76696D69656E746F20288D
:100090005049522900503620494E5445525255502D
:1000A000544F522053656C656363696F6E61646F72
:1000B00000503520494E544552525550544F52200D
:1000C00053656C656363696F6E61646F00503420C3
:1000D000434F4E4D555441444F522053656C656318
:1000E00063696F6E61646F00503420494E5445520D
:1000F000525550544F522053656C656363696F6E5F
:1001000061646F00503320434F4E4D555441444F6E
:10011000522053656C656363696F6E61646F005054
:100120003120434F4E4D555441444F522053656C3E
:10013000656363696F6E61646F00503120494E548E
:100140004552525550544F522053656C6563636954
:100150006F6E61646F0050312050554C5341444FD5
:100160005245532053656C656363696F6E61646FBC
:10017000004F4646004F4E00202D2D3E2050756CFE
:100180007361646F00202D2D3E20536F6C74616489
:100190006F004F4646004F4E00436F6E6D757461A1
:1001A000646F72202D2D3E20004153594E57414916
:1001B00054205445524D494E41444F005030372051
:1001C000416E65786F2033202D20454550524F4DAC
:1001D0002028416C6D6163656E617220436F6E66AD
:1001E000696775726163696F6E657329000000004D
:1001F00000240027002A0000000000250028002B12
:100200000000000000230026002900040404040468
:1002100004040402020202020203030303030301B3
:10022000020408102040800102040810200102048A
:10023000081020000000080002010000030407006D
:1002400000000000000000004111911411241FBEA5
:10025000CFEFD8E0DEBFCDBF26E0AEE8B2E001C010
:100260001D92AD32B207E1F712E0A0E0B1E0EEE797
:10027000F6E302C005900D92AE38B107D9F711E050
:10028000C5E2D1E004C02197FE010E949916C43254
:10029000D107C9F70E94E4120C94321B0C940000A1
:1002A000833081F028F4813099F08230A9F00895EC
:1002B0008730A9F08830C9F08430B1F48091800093
:1002C0008F7D03C0809180008F7780938000089598
:1002D00084B58F7784BD089584B58F7DFBCF8091E1
:1002E000B0008F778093B00008958091B0008F7D2B
:1002F000F9CF0F931F93CF93DF93FC012581222326
:1003000009F455C0EC0186819781009731F001977F
:1003100009F437C090E080E023C0208130E0F9018B
:10032000ED5CFD4F8491F901E15EFD4F0491F9010F
:10033000E55FFD4F1491112369F381110E94500173
:10034000E12FF0E0EE0FFF1FEF5FFD4FA591B4919D
:10035000EC910E2331E020E009F430E0832F922F5E
:1003600029813A812817390711F19A838983E8890D
:10037000F9893097E1F0CE01DF91CF911F910F9174
:10038000099480818E3008F08E508770806480934D
:100390007C0080917A00806480937A0080917A005A
:1003A00086FDFCCF8091780090917900D9CFDF91C4
:1003B000CF911F910F910895CF93DF93EC01888126
:1003C00099810E947901EC81FD81A881B981119602
:1003D0008D919C91208131812817390751F09183AB
:1003E0008083EE85FF85309721F0CE01DF91CF919C
:1003F0000994DF91CF9108951F93CF93DF93282F16
:1004000030E0F901ED5CFD4F8491F901E15EFD4FB3
:10041000D491F901E55FFD4FC491CC23A9F0162FCB
:1004200081110E945001EC2FF0E0EE0FFF1FE95008
:10043000FE4FA591B4918FB7F894EC91111108C0BB
:10044000D095DE23DC938FBFDF91CF911F9108956C
:10045000DE2BF8CFCF93DF9390E0FC01E15EFD4F00
:100460002491855F9D4FFC0184918823D1F090E019
:10047000880F991FFC01E351FE4FA591B491FC0137
:10048000E950FE4FC591D49161110EC09FB7F89409
:100490008C91E22FE0958E238C932881E223E883D0
:1004A0009FBFDF91CF9108958FB7F894EC91E22B25
:1004B000EC938FBFF6CF3FB7F8948091B202909142
:1004C000B302A091B402B091B50226B5A89B05C0B5
:1004D0002F3F19F00196A11DB11D3FBFBA2FA92FC3
:1004E000982F8827BC01CD01620F711D811D911DC0
:1004F00042E0660F771F881F991F4A95D1F708952C
:100500008F929F92AF92BF92CF92DF92EF92FF9223
:100510004B015C010E945B026B017C010E945B024B
:100520006C197D098E099F09683E7340810591050C
:10053000A8F321E0821A9108A108B10888EEC80E3C
:1005400083E0D81EE11CF11C81149104A104B104C4
:1005500029F7FF90EF90DF90CF90BF90AF909F90E2
:100560008F9008950F931F93CF93DF938C01C62F25
:1005700080917803823074F09091C00090649093E1
:10058000C00061E00E94FC0161E070E080E090E06A
:100590000E948002902FF8012FEF3FEF81912827D2
:1005A00088E0A9014170552736952795452B21F004
:1005B00041E0242740EA3427815099F78E2F891B88
:1005C0008C1760F3322723273227F801EC0FF11D37
:1005D0003083E1E0EC0FE00FF12FF11D2083CE5FBF
:1005E0008091B6029091B702D0E0DC01ED91FC91D0
:1005F0000280F381E02DAE01B80109956AE070E058
:1006000080E090E00E9480028091780382303CF08C
:100610009091C00096FFFCCF60E00E94FC01CE01EB
:10062000DF91CF911F910F9108950F931F93CF9357
:10063000DF93CDB7DEB7C054D1090FB6F894DEBF53
:100640000FBECDBF9091770399838A8381E08B831E
:10065000DB01AA0FBB1FA20FB31FCB0120E0460F87
:10066000572F511D382F361B8417950770F40D91A5
:100670001D91E1E0F0E0012B09F4E0E001C0EE0F94
:100680003A95EAF72E2B0196EDCF2C8364E0CE014C
:1006900001960E94B202C05CDF4F0FB6F894DEBF35
:1006A0000FBECDBFDF91CF911F910F910895EF92B3
:1006B000FF920F931F93CF93DF93CDB7DEB7C05454
:1006C000D1090FB6F894DEBF0FBECDBF909177036E
:1006D00099838A83842F880F8B83CB01880F991F7E
:1006E000280F391FDE0111967B0163E070E0CD0118
:1006F0004E0D5F2D511D1296E416F50688F4F90192
:10070000108101812E5F3F4F11960C931197129625
:100710001C9312976E5F7F4FFFEFEF1AFF0AEBCF2C
:100720000E94B202C05CDF4F0FB6F894DEBF0FBE6E
:10073000CDBFDF91CF911F910F91FF90EF90089562
:10074000AF92BF92CF92DF92EF92FF920F931F93DF
:10075000CF93DF936C017B018B01040F151FEB011D
:100760005E01AE18BF08C017D10759F06991D601D4
:10077000ED91FC910190F081E02DC6010995892B46
:1007800079F7C501DF91CF911F910F91FF90EF9005
:10079000DF90CF90BF90AF900895FC01538D448DB2
:1007A000252F30E0842F90E0821B930B541710F01C
:1007B000CF96089501970895FC01918D828D981729
:1007C00061F0A28DAE0FBF2FB11D5D968C91928D01
:1007D0009F5F9F73928F90E008958FEF9FEF089532
:1007E000FC01918D828D981731F0828DE80FF11DFB
:1007F000858D90E008958FEF9FEF0895FC01918D16
:10080000228D892F90E0805C9F4F821B91098F730E
:100810009927089588EB92E00E94FE0321E0892B3E
:1008200009F420E0822F089580E090E0892B29F0E0
:100830000E940A0481110C9400000895FC01A48D0B
:10084000A80FB92FB11DA35ABF4F2C91848D90E0F2
:1008500001968F739927848FA689B7892C93A089D5
:10086000B1898C91837080648C93938D848D98135F
:1008700006C00288F389E02D80818F7D80830895F2
:10088000EF92FF920F931F93CF93DF93EC0181E0E0
:10089000888F9B8D8C8D98131AC0E889F989808187
:1008A00085FF15C09FB7F894EE89FF896083E889BA
:1008B000F98980818370806480839FBF81E090E0AC
:1008C000DF91CF911F910F91FF90EF900895F62E39
:1008D0000B8D10E00F5F1F4F0F731127E02E8C8DD3
:1008E0008E110CC00FB607FCFACFE889F989808118
:1008F00085FFF5CFCE010E941E04F1CFEB8DEC0FEA
:10090000FD2FF11DE35AFF4FF0829FB7F8940B8F34
:10091000EA89FB8980818062CFCF0F931F93CF93A9
:10092000DF938C01D0E0C0E0F801EC0FFD1F649173
:10093000662341F088EB92E00E944004892B11F07D
:100940002196F2CFCE01DF91CF911F910F910895A3
:10095000CF93DF93EC01888D8823B9F0AA89BB89F6
:10096000E889F9898C9185FD03C0808186FD0DC0E1
:100970000FB607FCF7CF8C9185FFF2CF808185FF02
:10098000EDCFCE010E941E04E9CFDF91CF910895F3
:100990001F93CF93DF93FC012181261731F0162F8F
:1009A000EC0180810E94FC011983DF91CF911F919E
:1009B0000895CF93DF93DC01ED91FC911197208195
:1009C000203109F51496CD91DC9161817281072E59
:1009D000000C880B990B0E94A3142FEF3FEF4FE9F7
:1009E0005BE30E94DE1420E030E040E05FE30E9421
:1009F000E91520E030E048EC52E40E94DE140E9449
:100A0000561679836883DF91CF91089580915F03B3
:100A10009091600380359105E0F48BE395E00E94AE
:100A2000790185E595E00E9479018FE695E00E94C5
:100A3000790189E895E00E94790181EF95E00E94B3
:100A4000790187ED95E00E9479018BE096E00C94A6
:100A500079018FE894E00E94DC0181EA94E00E9431
:100A6000DC0183EB94E00E94DC0185EC94E00E94C1
:100A7000DC018DE095E00E94DC018FE195E00E94B1
:100A8000DC0189EE94E00E94DC0187ED94E00E9495
:100A9000DC018BEF94E00C94DC01FB010190002061
:100AA000E9F73197AF01461B570BDC01ED91FC9143
:100AB0000280F381E02D0994CF93DF930E948D048F
:100AC000EC0163E371E088EB92E00E944D058C0F2E
:100AD0009D1FDF91CF9108950F931F93CF93DF93C5
:100AE000EC010E944D058C0163E371E0CE010E9490
:100AF0004D05800F911FDF91CF911F910F910895A8
:100B00000F931F93CF93DF938C01EB0188EB92E05F
:100B10000E946C05F80180819181009739F0BE0137
:100B2000DF91CF911F910F910C946C05DF91CF91C4
:100B30001F910F910895EF92FF920F931F93CF9300
:100B4000DF938C01D62FC0E0D80112968D919C9135
:100B50001397C8171906E4F41496ED91FC91E08000
:100B6000F18080E0309759F466E371E0C8010E949B
:100B700080056D2FC7010E94C804CF5FE5CFC8175D
:100B8000C1F30280F381E02DE080F1808F5FF7CF29
:100B9000DF91CF911F910F91FF90EF900895CF9328
:100BA000DF93EC014B815C8129813A814217530725
:100BB00071F589E991E00E948D048091A5029091E0
:100BC000A602892BE9F481E090E09093A60280933D
:100BD000A50286E991E00E945C058C899D89181622
:100BE0001906ACF461E08091A5029091A602892BD0
:100BF00009F460E0CE014296DF91CF910C949B0501
:100C00001092A6021092A50282E991E0E4CFDF9152
:100C1000CF910895CF93DF93EC014E855F856A8570
:100C20007B8588EB92E00E94A0032B813C81898127
:100C30009A8128173907C1F485E891E00E945C0584
:100C40008C899D891816190694F461E02B813C81EA
:100C500089819A812817390709F460E0CE0142960C
:100C6000DF91CF910C949B0588E791E0E7CFDF916E
:100C7000CF910895BF92CF92DF92EF92FF920F93A0
:100C80001F93CF93DF938C016B01D0E0C0E0862FE0
:100C90008170B82ED80112968D919C911397C81728
:100CA000D907ACF59C2F1496ED91FC91E080F18072
:100CB00080E0309719F566E371E0C8010E94800575
:100CC000D7011296ED91FC91208131816B2DB2E01C
:100CD000CB16D10429F461E02115310509F060E05B
:100CE000862F90E08217930739F091838083F70174
:100CF000808191810E94C8042196CCCF891700F78A
:100D00000280F381E02DE080F1808F5FF7CFDF91EB
:100D1000CF911F910F91FF90EF90DF90CF90BF90F8
:100D20000895DC01ED91FC9120812E3019F02331E2
:100D3000C1F008952181328140916503509166038D
:100D400070E060E04217530748F040916303509110
:100D500064032417350770F461E070E006960C9484
:100D60003A0641815281209167033091680342170E
:100D7000530790F308950F931F93CF93DF93EC01E4
:100D8000A881B981E889F98913964D915C911497EE
:100D900011962D913C9142175307D9F02FB7F89433
:100DA0004091AE025091AF026091B0027091B102D9
:100DB0002FBF428353836483758321E02183108294
:100DC00061E070E00696DF91CF911F910F910C9436
:100DD0003A0621812223B1F12FB7F8944091AE0257
:100DE0005091AF026091B0027091B1022FBF0281A9
:100DF000138124813581401751076207730720F45E
:100E00004150510961097109401B510B620B730B71
:100E1000A681B7810D90BC91A02D28EE33E0A29F52
:100E20008001A39F100DB29F100D112430E020E02F
:100E30004017510762077307B0F0118212821382C4
:100E400014821582E889F989208121110CC089EA70
:100E500091E00E945C05E889F98981E0808370E077
:100E600060E0CE01AFCFDF91CF911F910F91089538
:100E7000DC01ED91FC914381548121813281421743
:100E8000530729F462E070E006960C943A06089540
:100E90000C9438070F931F93CF93DF93D0E0C0E0FB
:100EA0008091970390919803C817D9070CF59C2F50
:100EB000E0919903F0919A030081118180E03097CD
:100EC00071F466E371E085E993E00E948005D80142
:100ED0001E96ED91FC91C80109952196E1CF8917E5
:100EE000B0F70280F381E02D008111818F5FF7CF91
:100EF000DF91CF911F910F910895EF92FF920F9381
:100F00001F93CF93DF93EC017B010E811F8184E05F
:100F100090E00E949F169F838E83892B29F469E6B7
:100F200071E0CE010E948005EE81FF811382128262
:100F3000F182E0828C819D81892B71F4FD83EC83A9
:100F40008A819B8101969B838A83DF91CF911F9138
:100F50000F91FF90EF900895D8011396FC93EE93B4
:100F60001297EECFEF92FF920F931F93CF93DF93E1
:100F7000EC017B010E811F8184E090E00E949F16AE
:100F80009F838E83892B29F469E671E0CE010E944C
:100F90008005EE81FF8113821282F182E0828C81D2
:100FA0009D81892B71F4FD83EC838A819B8101965D
:100FB0009B838A83DF91CF911F910F91FF90EF90D8
:100FC0000895D8011396FC93EE931297EECF0F93EA
:100FD0001F93CF93DF938C01C0919303D09194031F
:100FE00084E090E00E949F16909394038093930373
:100FF000892B31F469E671E08DE893E00E94800569
:10100000E0919303F0919403138212821183008381
:101010008091910390919203892B91F4F093920324
:10102000E093910380918F039091900301969093A8
:10103000900380938F03DF91CF911F910F910895BB
:10104000FB83EA83EFCFCF93DF93EC012B813C81CD
:1010500089819A8128173907D1F44E855F856A8581
:101060007B8588EB92E00E94A0036AE971E088EB3F
:1010700092E00E944D0588859985892BC9F481E00D
:1010800090E09987888785E791E00E945C058C89CC
:101090009D89181619068CF461E088859985892B3D
:1010A00009F460E0CE014296DF91CF910C949B054C
:1010B0001986188681E791E0E8CFDF91CF910895F6
:1010C0000F931F93CF93DF93EC018C819D81009749
:1010D00069F0FC01028113810E943B171D830C8380
:1010E0008A819B8101979B838A83EFCF81E0DF9187
:1010F000CF911F910F910895CF93DF93EC01449608
:101100000E9460081B8A1A8ACE018E960E9460088F
:101110001DA61CA6CE01885B9F4F0E946008FE01A1
:10112000EA5BFF4F11821082CE018E599F4F0E94C1
:101130006008FE01E05AFF4F118210827A961182F8
:101140001082CE0184589F4F0E946008FE01EC5629
:10115000FF4F11821082CE018A569F4FDF91CF91AF
:101160000C9460080F931F93CF93DF93EC018C8155
:101170009D81009769F0FC01028113810E943B1759
:101180001D830C838A819B8101979B838A83EFCF88
:1011900081E0DF91CF911F910F910895CF93DF935D
:1011A000EC0188509F4F0E94B208FE01F395118216
:1011B0001082CE01865F9E4F0E94B208FE01EE5E55
:1011C000FE4F11821082CE01845E9E4F0E94B208B3
:1011D000FE01EC5DFE4F11821082CE01825D9E4FBA
:1011E0000E94B208FE01EA5CFE4F11821082E85BA9
:1011F000FF4F11821082CE018A589E4F0E94B20882
:10120000FE01E057FE4F11821082CE0188579E4F9B
:101210000E94B208FE01E65AFE4F11821082CE01F2
:101220008E5A9E4F0E94B208FE01E85BFE4F11826B
:101230001082CE01805C9E4F0E94B208FE01E459EC
:10124000FE4F11821082CE018C599E4FDF91CF91BB
:101250000C94B2080F931F93CF93DF93EC010C8192
:101260001D81012B51F08C819D81FC010281138134
:101270000E943B171D830C83F4CFDF91CF911F9108
:101280000F910895CF93DF93EC0142960E942A09B3
:101290008A859B85009721F0DF91CF910C943B17B5
:1012A000DF91CF910895CF93DF93EC0181E191E03D
:1012B00099838883CE018E529F4F0E944209CE01AE
:1012C00088549F4F0E944209CE0182569F4F0E9430
:1012D0004209CE018C579F4F0E944209CE01865988
:1012E0009F4F0E944209CE01805B9F4F0E9442099E
:1012F000CE01C6960E944209CE014C960E94420938
:10130000CE010296DF91CF910C944209CF93DF93E7
:10131000EC010E945309CE01DF91CF910C943B1751
:10132000CF93DF93EC018DE291E099838883CE0126
:1013300088579E4F0E942A09CE018A589E4F0E94CC
:101340002A09CE018C599E4F0E942A09CE018E5A3D
:101350009E4F0E942A09CE01805C9E4F0E942A095E
:10136000CE01825D9E4F0E942A09CE01845E9E4F6F
:101370000E942A09CE01865F9E4F0E942A09CE0153
:1013800088509F4F0E942A09CE01DF91CF910C9483
:101390005309CF93DF93EC010E949009CE01DF91B6
:1013A000CF910C943B17CF93DF9389E395E00E9494
:1013B0007C088DE993E00E94CE088091990390917A
:1013C0009A03009799F0FC01C281D3810E943B17D8
:1013D000D0939A03C09399038091970390919803B7
:1013E00001979093980380939703E7CFDF91CF9174
:1013F00008951F93CF93DF93EC01162F0E949C1545
:10140000181739F0612FCE01DF91CF911F910C9405
:10141000A415DF91CF911F9108950C949C152F92E4
:101420003F924F925F926F927F928F929F92AF9274
:10143000BF92CF92DF92EF92FF920F931F93CF93C1
:10144000DF93CDB7DEB7CC56D1090FB6F894DEBF27
:101450000FBECDBF8091B6029091B702DC01ED9135
:10146000FC910084F185E02D09958C010E945B02BE
:1014700001151105F1F41092930210929202C459D1
:10148000DF4F0FB6F894DEBF0FBECDBFDF91CF9117
:101490001F910F91FF90EF90DF90CF90BF90AF9092
:1014A0009F908F907F906F905F904F903F902F9084
:1014B0000895209192023091930202171307C9F008
:1014C00010939302009392020091890310918A0372
:1014D00020918B0330918C03600F711F821F931F2B
:1014E00060938E0270938F0280939002909391028A
:1014F000C6CF00918E0210918F0220919002309100
:101500009102601771078207930708F4B8CF109211
:10151000930210929202FE0131961F017F0110E0AA
:1015200000E08091B6029091B702DC01ED91FC9150
:101530000084F185E02D0995892B09F46FC0809115
:10154000B6029091B702DC01ED91FC910284F38523
:10155000E02D0995F70181937F010F5F1F4F003444
:101560001105F9F610E000E061E00130110509F421
:101570006CC10230110509F472C180916903909128
:101580006A03892B09F460E085E296E00E94C804B2
:101590000F5F1F4F0330110539F7F12CE12C6AE082
:1015A000C62E66E0D62E78E3672E77E0772E552498
:1015B0005394E3E2AE2EE8E0BE2E0FEC15E0B2E06D
:1015C000EB16F10409F4A6C30CF05AC1F1E0EF16D2
:1015D000F10409F492C360915F0390E080E00E94FF
:1015E000F90980915F039091A402891779F08093A3
:1015F000A402813409F405C308F09FC1823109F4C3
:10160000CEC208F06FC1813109F4B6C2BFEFEB1A48
:10161000FB0AE5E0EE16F10491F631CF0115110554
:1016200009F42DCF3EEF300FF1018FEF9FEF2E2FFA
:101630002219231788F42191822728E0AC014170F8
:10164000552796958795452B21F041E0842740EA60
:101650009427215099F7EBCFEFEFFFEFEC0FFD1F31
:10166000E00FF11F2081FE01E00FF11F30812327E1
:10167000322723279827892798272817390709F021
:1016800071CFE09177038981E8136CCF9A81A6E04E
:10169000B1E02DE031E08D91891709F48BC32A1751
:1016A0003B07C9F781E0A696EFAFA6979058A7969B
:1016B0009FAFA797A8968FAFA89763E0CE018B59ED
:1016C0009F4F0E94B2024ECF4D8150E0542F4427CD
:1016D0006E81640F752F711D2091830330918403F7
:1016E000923031F0913099F520918103309182034D
:1016F00048E061157105E1F146171706C8F14B8105
:10170000A42FB0E0BA2FAA274C814A0F5B2F511D9E
:10171000460F571F2417350708F461C36B8170E02B
:10172000762F66279C81690F711D833009F45AC09A
:1017300008F5813009F449C0823009F013CF2091B7
:101740007B0330917C034E8182E090E045C0209184
:10175000850330918603933049F030E020E040E08B
:10176000943039F6209187033091880349E1C1CF45
:1017700083E099CF853009F445C0E8F1863009F05F
:10178000F1CE40917D0350917E032D813E81322721
:1017900023273227A696EFAFA697A7968FAFA797D6
:1017A000A8967FAFA897A9966FAFA997AA963FAFC3
:1017B000AA97AB962FAFAB97660F771FFA01E60F8C
:1017C000F71F3183208366E079CF20917903309130
:1017D0007A034E8181E090E00E941503892B09F085
:1017E000C1CE4DCE20917D0330917E034E8183E0AA
:1017F0000E945703F3CF20917F03309180034E81E5
:1018000084E0F6CF4091790350917A032D813E8197
:10181000322723273227A696EFAFA697A7968FAF3A
:10182000A797A8967FAFA897A9966FAFA997AA96F2
:101830003FAFAA97AB962FAFAB97660F771F640F9A
:10184000751FDB012D933C93BECF80916B0390916C
:101850006C03892B09F460E087E296E097CE8091D3
:101860006D0390916E03892B09F460E0E091C5044B
:10187000F091C604658381E090E00E94F90988CE6A
:1018800023E0E216F10409F46DC244E0E416F10429
:1018900009F0A1CE809067039090680388E090E003
:1018A0000E940D0A482E89E090E00E940D0A242D26
:1018B00030E0322F2227820F932F911D8816990630
:1018C00031F064E572E088EB92E00E946C05609173
:1018D000680388E090E00E94F9096091670389E05D
:1018E00090E015C2833109F479C1823309F08ECEBC
:1018F00084E091E00E945C050E94D30910934C059E
:1019000000934B0565E276E08DE495E00E94B20716
:10191000109366050093650565E276E087E695E03D
:101920000E94B2071093800500937F0565E276E080
:1019300081E895E00E94B20769CE843509F49DC123
:10194000C8F5823409F47AC1833409F05FCE8DEC96
:1019500090E00E945C050E94D30910934C0500930F
:101960004B0565E276E08DE495E00E94B20767E200
:1019700076E08DE495E00E94B2071093660500932F
:10198000650565E276E087E695E00E94B20767E2CA
:1019900076E087E695E00E94B207109380050093F9
:1019A0007F0565E276E081E895E00E94B20767E294
:1019B00076E0BECF823609F47BC1803709F026CEAF
:1019C00088E690E00E945C0580919C0281110CC029
:1019D000109295021092960210929702109298021D
:1019E0001092990250929C020E94D309E091C50482
:1019F000F091C604158210926E0310926D038091CF
:101A000062038F93809161038F938FE392E09F93A2
:101A10008F933F922F920E949118B10188EB92E030
:101A20000E946C05E1E6F3E0F0939B02E0939A02DA
:101A30002FB7F8948091AE029091AF02A091B002BE
:101A4000B091B1022FBF8093960290939702A0931A
:101A50009802B0939902509295021092940284E9F0
:101A600092E09093D6048093D504ABEBB6E0B093AC
:101A7000D404A093D30465E375E08BEC94E00E945A
:101A80007D07E8E4F7E0F0939E04E0939D0465E3AE
:101A900075E085E994E00E947D0788E497E09093E3
:101AA000B0048093AF0465E375E087EA94E00E9498
:101AB0007D07A8E4B7E0B093C204A093C10465E336
:101AC00075E089EB94E00E947D07E1E9F6E0F09390
:101AD000F804E093F70461E375E08FEE94E00E9470
:101AE0007D0781E996E09093E6048093E50465E341
:101AF00075E08DED94E00E947D07A9EDB4E0B09310
:101B00000A05A093090580909B0390909C0384E0B4
:101B100090E00E949F1690939C0380939B030F90EC
:101B20000F900F900F900F900F90892B31F469E672
:101B300071E085E993E00E948005E0919B03F091BC
:101B40009C031382128285EC94E0918380838091C0
:101B5000990390919A03892B09F0C9C0F0939A03D5
:101B6000E093990380919703909198030196909345
:101B70009803809397034ACD86E591E00E945C0527
:101B80000E94D309D0924C05C0924B05D0926605B5
:101B9000C0926505D0928005C0927F0537CD8AE35B
:101BA00091E00E945C050E94D309B0924C05A0927E
:101BB0004B051092440510924305B0926605A09221
:101BC000650510925E0510925D05B0928005A092A9
:101BD0007F05109278051092770518CD8FE191E07E
:101BE0000E945C050E94D30910934C0500934B059D
:101BF00010936605009365051093800500937F059B
:101C000005CD63E272E088EB92E00E946C050E94D1
:101C1000D309D0924C05C0924B0565E276E08DE485
:101C200095E00E94B207D0926605C092650567E212
:101C300076E087E695E00E94B207ACCF88EE90E0B0
:101C40000E945C050E94D309B0924C05A0924B05FE
:101C500065E276E08DE495E00E94B207B0926605F9
:101C6000A092650567E276E087E695E00E94B207FC
:101C7000B0928005A0927F05C9CC81EB90E00E94D4
:101C80005C050E94D30970929E0460929D0461E3FA
:101C900075E085E994E00E947D077092B00460923F
:101CA000AF0465E375E087EA94E00E947D07AECC5F
:101CB00085E990E00E945C050E94D30970929E0421
:101CC00060929D0465E375E085E994E00E947D07DC
:101CD0007092B0046092AF0461E375E087EA94E02B
:101CE0000E947D077092C2046092C1048FCCD4011F
:101CF0001396FC93EE93129735CF6091620382E0C6
:101D000090E00E94F9096091610383E090E00E94F5
:101D1000F9097CCC809063039090640384E090E0A8
:101D20000E940D0A482E85E090E00E940D0A242DA5
:101D300030E0322F2227820F932F911D88169906AB
:101D400031F064E572E088EB92E00E946C056091EE
:101D5000640384E090E00E94F9096091630385E0E8
:101D600090E0D5CF809065039090660386E090E088
:101D70000E940D0A482E87E090E00E940D0A242D53
:101D800030E0322F2227820F932F911D881699065B
:101D900031F064E572E088EB92E00E946C0560919E
:101DA000660386E090E00E94F9096091650387E090
:101DB00090E0ADCF963009F4B1CC953009F084CCE9
:101DC0002B8130E0322F22274C81240F311D40918E
:101DD0008103509182032417350708F49FCC82E0D9
:101DE00062CC1F920F920FB60F9211242F933F9344
:101DF0008F939F93AF93BF938091AE029091AF0268
:101E0000A091B002B091B1023091AD0223E0230F56
:101E10002D3758F50196A11DB11D2093AD02809379
:101E2000AE029093AF02A093B002B093B102809142
:101E3000B2029091B302A091B402B091B5020196A2
:101E4000A11DB11D8093B2029093B302A093B4027E
:101E5000B093B502BF91AF919F918F913F912F9118
:101E60000F900FBE0F901F90189526E8230F029633
:101E7000A11DB11DD2CF1F920F920FB60F92112448
:101E80002F933F934F935F936F937F938F939F9382
:101E9000AF93BF93EF93FF9388EB92E00E941E04F1
:101EA000FF91EF91BF91AF919F918F917F916F9132
:101EB0005F914F913F912F910F900FBE0F901F9008
:101EC00018951F920F920FB60F9211242F938F9394
:101ED0009F93EF93FF93E091C802F091C902808134
:101EE000E091CE02F091CF0282FD1BC090818091E3
:101EF000D1028F5F8F732091D202821741F0E0915F
:101F0000D102F0E0E854FD4F958F8093D102FF910C
:101F1000EF919F918F912F910F900FBE0F901F9077
:101F200018958081F4CF0F931F93CF93DF93EC012B
:101F300088819981009759F02A813B8126173707BC
:101F400030F081E0DF91CF911F910F9108958B01C7
:101F50006F5F7F4F0E94C417009759F09983888361
:101F60001B830A832C813D81232B59F7FC011082AE
:101F7000E8CF80E0E7CFCF93DF93EC011B861A8692
:101F80001D861C861F861E8670E060E00A960E94F1
:101F9000930F2A853B85811117C02115310519F052
:101FA000C9010E943B171B861A861F861E861D8646
:101FB0001C861D8A1C8A1F8A1E8A198E188E1B8AEF
:101FC0001A8ADF91CF9108951F861E8665E371E01E
:101FD000C9010E948A18EDCFEF92FF920F931F93D1
:101FE000CF93DF93EC017B01FB0101900020E9F727
:101FF00031978F01061B170BB8010E94930F2881A0
:102000003981811113C02115310519F0C9010E94D0
:102010003B17198218821D821C821B821A82DF9153
:10202000CF911F910F91FF90EF9008951D830C8326
:10203000B701C901DF91CF911F910F91FF90EF90F0
:102040000C948A183F924F925F926F927F928F9278
:102050009F92AF92BF92CF92DF92EF92FF920F9337
:102060001F93CF93DF93EC0121E131E0FC01219339
:102070003193CF010E94BB0FCE014C960E94BB0F43
:10208000CE01C6960E94BB0F4E01F0E58F0E911C4B
:10209000C4010E94BB0F5E018AE6A80EB11CC501F7
:1020A0000E94BB0F6E01E4E8CE0ED11CC6010E9457
:1020B000BB0F7E01FEE9EF0EF11CC7010E94BB0FB2
:1020C0003E0188EB680E711CC3010E94BB0F2E01FC
:1020D000E2ED4E0E511CC2010E94BB0F60E083E096
:1020E0000E942A0260E08AE00E942A0260E08BE0FF
:1020F0000E942A0261E084E00E942A0261E087E0F7
:102100000E942A0283E08A831C821B821E821D8217
:10211000332433943F82198618866EEA71E0CE012B
:102120000C960E94EC0F1B8A1A8A8AE08C8F1E8EF6
:102130001D8E18A21F8E39A21BA21AA266EB71E097
:10214000CE0186960E94EC0F1DA61CA68BE08EABDE
:1021500001E010E018AF0FAB1AAF09AF3BAE1DAEF8
:102160001CAE6EEB71E0CE01805C9F4F0E94EC0FC5
:10217000FE01EA5BFF4F118210828DE0F401808343
:1021800031961182108232961182108232963082FC
:1021900031961182108263ED71E0CE01865A9F4F15
:1021A0000E94EC0FFE01E05AFF4F1182108281E184
:1021B000F5018083359630823196118300836EEE6F
:1021C00071E0CE018C589F4F0E94EC0F82E1F60126
:1021D00080833596308231961183008364EF71E0FD
:1021E000CE0182579F4F0E94EC0F8EE0F701808353
:1021F000359630823196118300836AEF71E0CE010B
:1022000088559F4F0E94EC0F83E1F3018083359640
:10221000308231961183008368E072E0CE018E53E4
:102220009F4F0E94EC0F80E1F2018083359630824F
:1022300031961183008367E172E0CE0184529F4F93
:102240000E94EC0FFE01E451FF4F84E08083319641
:102250001082319687E08083C151DF4F1882DF9171
:10226000CF911F910F91FF90EF90DF90CF90BF9093
:10227000AF909F908F907F906F905F904F903F9026
:102280000895E8EBF2E01382128288EE93E0A0E07A
:10229000B0E084839583A683B7838BE191E091833B
:1022A000808385EC90E09587848784EC90E0978725
:1022B000868780EC90E0918B808B81EC90E0938B13
:1022C000828B82EC90E0958B848B86EC90E0978BF0
:1022D000868B118E128E138E148E89E395E00E94E8
:1022E00022108DE993E00E942210ADE9B3E08DE267
:1022F00091E011969C938E9310928E0410928D040F
:10230000109298041092970410929A0410929904D3
:1023100010929C0410929B041092960410929504C3
:102320001092AA041092A9041092AC041092AB046B
:102330001092AE041092AD041092A8041092A7045B
:102340001092BC041092BB041092BE041092BD0403
:102350001092C0041092BF041092BA041092B904F3
:102360001092CE041092CD041092D0041092CF049B
:102370001092D2041092D1041092CC041092CB048B
:102380001092E0041092DF041092E2041092E10433
:102390001092E4041092E3041092DE041092DD0423
:1023A0001092F2041092F1041092F4041092F304CB
:1023B0001092F6041092F5041092F0041092EF04BB
:1023C000109204051092030510920605109205055F
:1023D000109208051092070510920205109201054F
:1023E00010921605109215051092180510921705F7
:1023F00010921A05109219051092140510921305E7
:10240000109228051092270510922A05109229058E
:1024100010922C0510922B0510922605109225057E
:102420008FE993E09093900480938F04EFE6F3E0BC
:10243000F0939404E093930413968D919C911497D8
:102440009183808389EB93E09093A2048093A1040D
:1024500081E793E09093A6048093A5045D968D9107
:102460009C915E979383828383ED93E09093B40471
:102470008093B30483E793E09093B8048093B70408
:10248000D7968D919C91958384838DEE93E0909364
:10249000C6048093C5041092F203A9E6B3E0159632
:1024A0001C921E92149785E793E09093CA04809340
:1024B000C9048091EE039091EF039783868383E0B4
:1024C00090E0909362038093610387E094E090939F
:1024D0000E0580930D0585E593E09093120580939A
:1024E000110581E294E09093200580931F0587E514
:1024F00093E090932405809323058BE394E09093DD
:10250000EA048093E90489E593E09093EE048093D4
:10251000ED0485E594E09093D8048093D7048BE58F
:1025200093E09093DC048093DB048FE694E0909337
:10253000FC048093FB048DE593E090930005809369
:10254000FF0489E894E09093320580933105B093BD
:102550003405A09333058BE894E09093360580937F
:1025600035058BE693E09093380580933705E5E9D0
:10257000F3E013821282158214821782168211826E
:102580001082EDE8F3E01382128215821482178222
:10259000168211821082E7E7F3E01382128215821D
:1025A000148217821682118610861386128615866B
:1025B000148617861686118A108A11821082128A52
:1025C000138A148A158A0895CF93DF93CDB7DEB7A7
:1025D000C456D1090FB6F894DEBF0FBECDBF7894B4
:1025E00084B5826084BD84B5816084BD85B5826018
:1025F00085BD85B5816085BD80916E0081608093C9
:102600006E00109281008091810082608093810031
:102610008091810081608093810080918000816041
:10262000809380008091B10084608093B10080919C
:10263000B00081608093B00080917A0084608093C4
:102640007A0080917A00826080937A0080917A008B
:10265000816080937A0080917A00806880937A000C
:102660001092C10088EB92E09093B7028093B6027B
:1026700089E693E090937A038093790383E090E076
:1026800090938203809381038FE693E090937C0381
:1026900080937B0384E090E0909384038093830392
:1026A0008FE593E090937E0380937D0385E090E037
:1026B000909386038093850325E533E03093800370
:1026C00020937F03909388038093870381E0809316
:1026D00077038CE080937803E091C802F091C902FF
:1026E00082E08083E091C402F091C5021082E09103
:1026F000C602F091C70280E180831092D002E0917F
:10270000CC02F091CD0286E08083E091CA02F09184
:10271000CB02808180618083E091CA02F091CB027C
:10272000808188608083E091CA02F091CB02808131
:1027300080688083E091CA02F091CB0280818F7D16
:1027400080838091C20086608093C20061E08CE04B
:102750000E942A0260E08CE00E94FC018FE291E07E
:10276000A0E0B0E08093890390938A03A0938B0349
:10277000B0938C0390E080E00E940D0A90E00097F7
:1027800011F481E190E09093600380935F039F9345
:102790008F9380E692E09F938F938E010F5F1F4F80
:1027A0001F930F930E949118B80188EB92E00E944A
:1027B0006C0581E090E00E940D0A282F30E03093F4
:1027C0006E0320936D031F928F938CE792E09F938B
:1027D0008F931F930F930E949118B80188EB92E09A
:1027E0000E946C0582E090E00E940D0A182F83E0A1
:1027F00090E00E940D0A212F30E0322F2227820F15
:10280000932F911D909362038093610386E095E07E
:102810000E94E7078FE09AE00E94E7078AE497E0CA
:102820000E94E7078CEB91E00E945C0588EB92E048
:102830000E94A8040FB6F894DEBF0FBECDBF24E6F9
:10284000E22EF12C30E0C32E30E0D32E2FB7F894D7
:102850008091AE029091AF02A091B002B091B1020E
:102860002FBF4091A9025091AA026091AB027091D2
:10287000AC02841B950BA60BB70B0A97A105B105FB
:1028800008F443C02FB7F8948091AE029091AF0244
:10289000A091B002B091B1022FBF8093A902909392
:1028A000AA02A093AB02B093AC028091A7029091D0
:1028B000A8020196B7010E9485169093A802809302
:1028C000A70210E080918F039091900318171906CA
:1028D000E4F4E0919103F0919203A080B18080E054
:1028E000309751F466E371E08DE893E00E94800533
:1028F000F50109951F5FE6CF1817D1F30280F38128
:10290000E02DA080B1808F5FF7CFC114D10409F40E
:102910009DCF0E940A04882309F498CF0E940000EA
:1029200095CF8DE893E00E942A0985E993E00E9403
:102930002A098DE993E00E94900989E395E00C94BF
:102940005309E89409C097FB3EF4909580957095E3
:1029500061957F4F8F4F9F4F9923A9F0F92F96E9EB
:10296000BB279395F695879577956795B795F11160
:10297000F8CFFAF4BB0F11F460FF1BC06F5F7F4FFD
:102980008F4F9F4F16C0882311F096E911C077230F
:1029900021F09EE8872F762F05C0662371F096E818
:1029A000862F70E060E02AF09A95660F771F881FE7
:1029B000DAF7880F9695879597F908950E94F11494
:1029C0000C9462150E94541538F00E945B1520F09B
:1029D000952311F00C944B150C94511511240C9463
:1029E00096150E94731570F3959FC1F3950F50E0F3
:1029F000551F629FF001729FBB27F00DB11D639FB1
:102A0000AA27F00DB11DAA1F649F6627B00DA11D56
:102A1000661F829F2227B00DA11D621F739FB00DFC
:102A2000A11D621F839FA00D611D221F749F33276C
:102A3000A00D611D231F849F600D211D822F762F05
:102A40006A2F11249F5750409AF0F1F088234AF0E2
:102A5000EE0FFF1FBB1F661F771F881F915050404E
:102A6000A9F79E3F510580F00C944B150C949615D8
:102A70005F3FE4F3983ED4F3869577956795B795D5
:102A8000F795E7959F5FC1F7FE2B880F911D9695EF
:102A9000879597F9089597F99F6780E870E060E05F
:102AA00008959FEF80EC089500240A9416161706E7
:102AB00018060906089500240A941216130614062F
:102AC00005060895092E0394000C11F4882352F092
:102AD000BB0F40F4BF2B11F460FF04C06F5F7F4F4A
:102AE0008F4F9F4F089557FD9058440F551F59F031
:102AF0005F3F71F04795880F97FB991F61F09F3FEB
:102B000079F087950895121613061406551FF2CF13
:102B10004695F1DF08C0161617061806991FF1CF63
:102B200086957105610508940895E894BB2766278A
:102B30007727CB0197F90895F999FECF92BD81BD12
:102B4000F89A992780B50895262FF999FECF1FBAD4
:102B500092BD81BD20BD0FB6F894FA9AF99A0FBEC6
:102B6000019608952F923F924F925F926F927F92BB
:102B70008F929F92AF92BF92CF92DF92EF92FF928D
:102B80000F931F93CF93DF93CDB7DEB7CA1BDB0B39
:102B90000FB6F894DEBF0FBECDBF09942A883988DE
:102BA00048885F846E847D848C849B84AA84B984E5
:102BB000C884DF80EE80FD800C811B81AA81B981F1
:102BC000CE0FD11D0FB6F894DEBF0FBECDBFED0105
:102BD00008955058BB27AA270E9401160C9462152D
:102BE0000E94541538F00E945B1520F039F49F3F85
:102BF00019F426F40C9451150EF4E095E7FB0C94AF
:102C00004B15E92F0E94731558F3BA176207730723
:102C10008407950720F079F4A6F50C9495150EF429
:102C2000E0950B2EBA2FA02D0B01B90190010C01DC
:102C3000CA01A0011124FF27591B99F0593F50F4F4
:102C4000503E68F11A16F040A22F232F342F44274C
:102C5000585FF3CF469537952795A795F040539544
:102C6000C9F77EF41F16BA0B620B730B840BBAF014
:102C70009150A1F0FF0FBB1F661F771F881FC2F77F
:102C80000EC0BA0F621F731F841F48F48795779593
:102C90006795B795F7959E3F08F0B0CF9395880F4D
:102CA00008F09927EE0F9795879508950E947B1558
:102CB00088F09F5798F0B92F9927B751B0F0E1F0FD
:102CC000660F771F881F991F1AF0BA95C9F714C0AD
:102CD000B13091F00E949515B1E008950C949515CE
:102CE000672F782F8827B85F39F0B93FCCF38695E6
:102CF00077956795B395D9F73EF490958095709543
:102D000061957F4F8F4F9F4F0895AA1BBB1B51E1C9
:102D100007C0AA1FBB1FA617B70710F0A61BB70B4B
:102D2000881F991F5A95A9F780959095BC01CD01F0
:102D30000895EE0FFF1F0590F491E02D09940F9375
:102D40001F93CF93DF938230910510F482E090E0DF
:102D5000E0912B06F0912C0630E020E0B0E0A0E0FE
:102D6000309799F42115310509F44AC0281B390B15
:102D700024303105D8F58A819B816115710589F16F
:102D8000FB0193838283FE0111C040815181028146
:102D9000138148175907E0F04817590799F410971D
:102DA00061F012960C93129713961C933296CF01F2
:102DB000DF91CF911F910F91089500932B061093EF
:102DC0002C06F4CF2115310551F04217530738F086
:102DD000A901DB019A01BD01DF01F801C1CFEF01BB
:102DE000F9CF90932C0680932B06CDCFFE01E20FF6
:102DF000F31F819391932250310939832883D7CFD0
:102E00002091290630912A06232B41F420910201BA
:102E10003091030130932A06209329062091000166
:102E2000309101012115310541F42DB73EB7409194
:102E3000040150910501241B350BE0912906F09106
:102E40002A06E217F307A0F42E1B3F0B28173907B9
:102E500078F0AC014E5F5F4F2417350748F04E0FF6
:102E60005F1F50932A0640932906819391939FCF29
:102E7000F0E0E0E09CCFCF93DF930097E9F0FC0116
:102E8000329713821282A0912B06B0912C06ED018D
:102E900030E020E01097A1F420813181820F931F50
:102EA0002091290630912A062817390709F061C0B8
:102EB000F0932A06E0932906DF91CF910895EA0165
:102EC000CE17DF07E8F54A815B819E014115510568
:102ED000B1F7E901FB83EA8349915991C40FD51FEA
:102EE000EC17FD0761F4808191810296840F951F94
:102EF000E90199838883828193819B838A83F0E0AF
:102F0000E0E012968D919C9113970097B9F52D9161
:102F10003C911197CD010296820F931F20912906B3
:102F200030912A062817390739F6309751F5109253
:102F30002C0610922B06B0932A06A0932906BCCF2C
:102F4000D383C28340815181840F951FC817D9074D
:102F500061F44E5F5F4F88819981480F591F5183FB
:102F600040838A819B81938382832115310509F0F7
:102F7000B0CFF0932C06E0932B069ECFFD01DC0131
:102F8000C0CF13821282D7CFB0E0A0E0EAECF7E125
:102F90000C94B4158C01009751F4CB010E949F163C
:102FA0008C01C801CDB7DEB7E0E10C94D015FC016F
:102FB000E60FF71F9C0122503109E217F30708F4CE
:102FC0009DC0D901CD91DC911197C617D70798F014
:102FD000C530D10530F3CE0104978617970708F363
:102FE000C61BD70B2297C193D1936D937C93CF01CE
:102FF0000E943B17D6CF5B01AC1ABD0A4C018C0E68
:103000009D1EA0912B06B0912C06512C412CF12C29
:10301000E12C109731F58091290690912A068815A8
:10302000990509F05CC04616570608F058C0809113
:10303000000190910101009741F48DB79EB7409136
:10304000040150910501841B950BE817F90708F05E
:1030500055C0F0932A06E0932906F9017183608335
:10306000A0CF8D919C91119712966C901297139608
:103070007C901397A815B90559F56C0142E0C40E70
:10308000D11CCA14DB0420F1AC014A195B09DA0136
:103090001296159780F06282738251834083D90122
:1030A0006D937C93E114F10471F0D7011396FC93B6
:1030B000EE93129776CF22968C0F9D1FF901918384
:1030C0008083F301EFCFF0932C06E0932B0669CFBA
:1030D0004816590608F42C017D01D3019ACFCB0183
:1030E0000E949F167C01009749F0AE01B8010E9432
:1030F0008118C8010E943B17870153CF10E000E000
:1031000050CFFB01DC0102C001900D9241505040B4
:10311000D8F70895FB01DC0101900D920020E1F742
:103120000895AEE0B0E0E7E9F8E10C94C0150D8930
:103130001E8986E08C831A8309838FEF9FE79E8325
:103140008D83AE01475E5F4F6F89788DCE0101960A
:103150000E94B4182F813885020F131FF8011082C6
:103160002E96E4E00C94DC15ABE0B0E0EAEBF8E17D
:103170000C94B2157C013B018A01FC011782168276
:10318000838181FFC8C1CE0101965C01F701938163
:10319000F30193FD859193FF81913F01882309F409
:1031A00053C1853239F493FD859193FF81913F019D
:1031B000853229F4B70190E00E94A41AE7CF912C40
:1031C000212C312CFFE1F31538F08B3211F190F402
:1031D000803209F1833229F137FC3CC020ED280F01
:1031E0002A3050F536FE20C08AE0989E200D11242A
:1031F000922E06C08D3291F0803371F7689430F8CA
:10320000F30193FD859193FF81913F018111DACF05
:1032100021C0689431F8689432F8F2CF689433F89A
:10322000EFCF689434F8ECCFEAE02E9E200D112405
:10323000222E689435F8E4CF8E3229F436FC04C18E
:10324000689436F8DDCF8C3619F4689437F8D8CF07
:103250008836B1F2982F9F7D95549330E0F08336F5
:10326000A1F18337C1F1833509F063C02801F2E091
:103270004F0E511CF801C080D180692D70E036FCE2
:1032800002C06FEF7FEFC6010E948E1A4C01689456
:1032900037F882010AC00C5F1F4FFFE3F9838824CF
:1032A0008394912C6501E89437F833FE2DC0522C9D
:1032B0008114910471F5552009F468CFB70180E2BB
:1032C00090E00E94A41A5A94F6CFF8018081898375
:1032D0000E5F1F4FE4CF2801F2E04F0E511CF801A2
:1032E000C080D180692D70E036FC02C06FEF7FEFA7
:1032F000C6010E94991A4C018201D5CFB70180E224
:1033000090E00E94A41A2A942814190409F0B0F736
:10331000CECFF60137FC859137FE81916F01B70161
:1033200090E00E94A41A51105A94F1E08F1A91086B
:10333000BFCF843619F0893609F077C0F80137FE1F
:103340006BC060817181828193810C5F1F4FF32D6F
:10335000FF763F2E97FF09C09095809570956195F7
:103360007F4F8F4F9F4F689437F82AE030E0A501D8
:103370000E94D41AC82ECA188C2C432C36FE0CC0BE
:10338000E89440F8C91440F434FE05C032FC03C090
:10339000F32DFE7E4F2E892C44FE95C0FE01EC0DD0
:1033A000F11D8081803309F087C0242D297E422EB3
:1033B000842D8870582E43FC95C040FE8FC09C2CF5
:1033C000821418F42C0C922C981844FE91C0B7016A
:1033D00080E390E00E94A41A42FE09C088E790E0D2
:1033E00041FE02C088E590E0B7010E94A41AC9140A
:1033F00008F48AC0CA94D12C9FEFC91AD90ACA0C02
:10340000DB1CF60182916F01B70190E00E94A41AC3
:10341000AC14BD04B1F74FCF60817181072E000C51
:10342000880B990B0E5F1F4F92CFD32CE894D4F8E2
:103430002AE030E0853739F1232D297FD22E8F36CF
:1034400001F148F48835A9F0F701868197812B9620
:10345000E2E10C94CE15803749F08837A9F7D4FE05
:1034600002C06894D2F820E130E00DC06894D4F82E
:10347000F6CF34FE03C0822F8660D82E20E132E0E2
:1034800002C028E030E0F801D7FE0FC060817181F2
:10349000828193810C5F1F4FA5010E94D41AC82E10
:1034A000CA183D2CE89437F867CF6081718190E0AD
:1034B00080E00E5F1F4FF0CF42FC02C0839478CFB4
:1034C0008394839475CF842D867809F471CFF6CFD9
:1034D000B70180E290E00E94A41A83948214C0F3A2
:1034E000512C73CF522C5818821408F46ECFF8CF99
:1034F000842D867809F47BCF8BE241FE80E247FC85
:103500008DE2B70190E071CFB70180E390E00E94B7
:10351000A41A9A946CCF8FEF9FEF99CFFC0105907E
:10352000615070400110D8F7809590958E0F9F1FC5
:103530000895FC016150704001900110D8F780950A
:1035400090958E0F9F1F08950F931F93CF93DF9336
:10355000182F092FEB018B8181FD09C01FEF0FEFA1
:10356000812F902FDF91CF911F910F91089582FFAE
:1035700014C02E813F818C819D81281739073CF42E
:10358000E881F981CF0101969983888310838E8128
:103590009F8101969F838E83E3CFE885F985812FF4
:1035A0000995892BA1F3DACFFA01AA27283051F126
:1035B000203181F1E8946F936E7F6E5F7F4F8F4F64
:1035C0009F4FAF4FB1E03ED0B4E03CD0670F781FC3
:1035D000891F9A1FA11D680F791F8A1F911DA11DA8
:1035E0006A0F711D811D911DA11D20D009F46894E1
:1035F0003F912AE0269F11243019305D3193DEF689
:10360000CF010895462F4770405D4193B3E00FD03E
:10361000C9F7F6CF462F4F70405D4A3318F0495D29
:1036200031FD4052419302D0A9F7EACFB4E0A6950C
:103630009795879577956795BA95C9F7009761052E
:10364000710508959B01AC010A2E06945795479584
:1036500037952795BA95C9F7620F731F841F951F79
:10366000A01D089511E0C5E2D1E004C0FE010E9452
:0E36700099162196C632D107C9F7F894FFCFFC
:10367E0000002D0680000102030405061000000064
:10368E0000530986097C08000000004004A003CD09
:10369E0003A804FE03DC03F003000000009009C938
:1036AE0009CE080D0A0051554555453A2063616E05
:1036BE002774207065656B206974656D2066726F66
:1036CE006D2071756575653A207175657565206932
:1036DE007320656D7074792E0051554555453A200D
:1036EE00696E73756666696369656E74206D656D66
:1036FE006F727920746F206372656174652061202A
:10370E006E6577206E6F64652E00203A20496E74C8
:10371E006572727570746F72202D2D3E2000424FAF
:10372E0054D34E203100424F54D34E2032005075A8
:10373E006C7361646F72204F70746F636F706C6125
:10374E00646F00504952202853656E736F72206467
:10375E0065204D6F76696D69656E746F2900504FE7
:10376E0054203100504F54203200466F746F7272E5
:10377E0065736973746F7200466F746F5472616E05
:10378E00736973746F720054656D706572617475D0
:10379E0072610050342050554C5341444F524553A2
:1037AE002053656C656363696F6E61646F200056AC
:1037BE00616C6F72204D425F544D505F5049523ACA
:1037CE002025640041637475616C697A61646F00D1
:1037DE005072E163746963612053656C656363695C
:1037EE006F6E6164613A203078255800504952203E
:0E37FE00616374697661646F3A20256400008F
:00000001FF
