:100000000C944B010C9473010C9473010C947301C8
:100010000C9473010C9473010C9473010C94730190
:100020000C9473010C9473010C9473010C94730180
:100030000C9473010C9473010C9473010C94730170
:100040000C94E7110C9473010C9457120C94311218
:100050000C9473010C9473010C9473010C94730150
:100060000C9473010C94730150313020476172611C
:100070006A6500503130205065727369616E6100AD
:100080005030392053656C656363696F6E616461DC
:10009000202D2D3E2053656E736F72657320416E67
:1000A000616CF36769636F732028416C6C290050A1
:1000B00030372053656C656363696F6E61646120DE
:1000C0002D2D3E2053656E736F72204D6F76696DD6
:1000D00069656E746F2028504952290050362049B6
:1000E0004E544552525550544F522053656C6563DF
:1000F00063696F6E61646F00503520494E544552FC
:10010000525550544F522053656C656363696F6E4E
:1001100061646F00503420434F4E4D555441444F5D
:10012000522053656C656363696F6E61646F005044
:100130003420494E544552525550544F5220536525
:100140006C656363696F6E61646F00503420505555
:100150004C5341444F5245532053656C656363696A
:100160006F6E61646F2000503320434F4E4D5554E5
:1001700041444F522053656C656363696F6E6164DF
:100180006F00503120434F4E4D555441444F522043
:1001900053656C656363696F6E61646F00503120F5
:1001A000494E544552525550544F522053656C6538
:1001B0006363696F6E61646F0050312050554C531A
:1001C00041444F5245532053656C656363696F6EBC
:1001D00061646F004F4646004F4E00202D2D3E209B
:1001E00050756C7361646F00202D2D3E20536F6C31
:1001F0007461646F004F4646004F4E00436F6E6D52
:10020000757461646F72202D2D3E20004153594E4C
:1002100057414954205445524D494E41444F005096
:1002200030392053656E736F7220416E616CF367D5
:1002300069636F20416C6C000000000024002700FF
:100240002A0000000000250028002B00000000000C
:100250002300260029000404040404040404020208
:100260000202020203030303030301020408102035
:100270004080010204081020010204081020000040
:100280000008000201000003040700000000000055
:1002900000005614F11711241FBECFEFD8E0DEBFC7
:1002A000CDBF25E0A0E0B2E001C01D92A53FB2079E
:1002B000E1F712E0A0E0B1E0ECE8FEE302C0059057
:1002C0000D92A030B107D9F711E0CAE4D1E004C023
:1002D0002197FE010E94A01AC934D107C9F70E94D4
:1002E0002D160C94391F0C9400008F929F92AF92A0
:1002F000BF92CF92DF92EF92FF92CF93DF93EC0108
:10030000E881F98161817281072E000C880B990BBD
:100310000E9408182FEF3FEF4FE95BE30E94671838
:1003200020E030E040E05FE30E94721920E030E01E
:1003300048EC52E40E9467184B015C010E94511A7C
:100340006B01072E000C880B990B0E9408189B016B
:10035000AC01C501B4010E94721920E030E048EC04
:1003600052E40E9467180E94511A623371055CF0D2
:100370008FEFC81AD80AB601DD0C880B990B0E94C2
:1003800008184B015C010C80DD81C02DC501B40152
:100390000E94511A18826983DF91CF91FF90EF90EC
:1003A000DF90CF90BF90AF909F908F900895833053
:1003B00081F028F4813099F08230A9F008958730D7
:1003C000A9F08830C9F08430B1F4809180008F7D2D
:1003D00003C0809180008F7780938000089584B55A
:1003E0008F7784BD089584B58F7DFBCF8091B00059
:1003F0008F778093B00008958091B0008F7DF9CF02
:100400000F931F93CF93DF93FC012581222309F4DF
:1004100055C0EC0186819781009731F0019709F46E
:1004200037C090E080E023C0208130E0F901E2583D
:10043000FD4F8491F901E659FD4F0491F901EA5A03
:10044000FD4F1491112369F381110E94D701E12F0F
:10045000F0E0EE0FFF1FE45BFD4FA591B491EC912E
:100460000E2331E020E009F430E0832F922F298120
:100470003A812817390711F19A838983E889F98924
:100480003097E1F0CE01DF91CF911F910F91099448
:1004900080818E3008F08E508770806480937C005D
:1004A00080917A00806480937A0080917A0086FD42
:1004B000FCCF8091780090917900D9CFDF91CF91D6
:1004C0001F910F910895CF93DF93EC01888199815B
:1004D0000E940002EC81FD81A881B98111968D9165
:1004E0009C91208131812817390751F091838083B5
:1004F000EE85FF85309721F0CE01DF91CF910994F1
:10050000DF91CF9108951F93CF93DF93282F30E091
:10051000F901E258FD4F8491F901E659FD4FD4915C
:10052000F901EA5AFD4FC491CC23A9F0162F81118D
:100530000E94D701EC2FF0E0EE0FFF1FEE5BFD4FA6
:10054000A591B4918FB7F894EC91111108C0D09592
:10055000DE23DC938FBFDF91CF911F910895DE2BB7
:10056000F8CFCF93DF9390E0FC01E659FD4F249143
:100570008A5A9D4FFC0184918823D1F090E0880F26
:10058000991FFC01E85CFD4FA591B491FC01EE5B65
:10059000FD4FC591D49161110EC09FB7F8948C9115
:1005A000E22FE0958E238C932881E223E8839FBF7E
:1005B000DF91CF9108958FB7F894EC91E22BEC93F3
:1005C0008FBFF6CF3FB7F894809124029091250217
:1005D000A0912602B091270226B5A89B05C02F3F07
:1005E00019F00196A11DB11D3FBFBA2FA92F982F59
:1005F0008827BC01CD01620F711D811D911D42E054
:10060000660F771F881F991F4A95D1F708958F921B
:100610009F92AF92BF92CF92DF92EF92FF924B01E7
:100620005C010E94E2026B017C010E94E2026C19F3
:100630007D098E099F09683E734081059105A8F3E5
:1006400021E0821A9108A108B10888EEC80E83E063
:10065000D81EE11CF11C81149104A104B10429F7F6
:10066000FF90EF90DF90CF90BF90AF909F908F90D2
:1006700008950F931F93CF93DF938C01C62F809122
:10068000F802823074F09091C00090649093C000A2
:1006900061E00E94830261E070E080E090E00E94EF
:1006A0000703902FF8012FEF3FEF8191282788E073
:1006B000A9014170552736952795452B21F041E03A
:1006C000242740EA3427815099F78E2F891B8C17F5
:1006D00060F3322723273227F801EC0FF11D308316
:1006E000E1E0EC0FE00FF12FF11D2083CE5F809150
:1006F000280290912902D0E0DC01ED91FC9102806A
:10070000F381E02DAE01B80109956AE070E080E068
:1007100090E00E9407038091F80282303CF09091B3
:10072000C00096FFFCCF60E00E948302CE01DF9103
:10073000CF911F910F9108950F931F93CF93DF9344
:10074000CDB7DEB7C054D1090FB6F894DEBF0FBEE7
:10075000CDBF9091F70299838A8381E08B83DB017F
:10076000AA0FBB1FA20FB31FCB0120E0460F572FCC
:10077000511D382F361B8417950770F40D911D916C
:10078000E1E0F0E0012B09F4E0E001C0EE0F3A9562
:10079000EAF72E2B0196EDCF2C8364E0CE01019673
:1007A0000E943903C05CDF4F0FB6F894DEBF0FBE66
:1007B000CDBFDF91CF911F910F910895EF92FF92DE
:1007C0000F931F93CF93DF93CDB7DEB7C054D109FA
:1007D0000FB6F894DEBF0FBECDBF9091F70299839C
:1007E0008A83842F880F8B83CB01880F991F280F52
:1007F000391FDE0111967B0163E070E0CD014E0DE3
:100800005F2D511D1296E416F50688F4F90110814A
:1008100001812E5F3F4F11960C93119712961C93F6
:1008200012976E5F7F4FFFEFEF1AFF0AEBCF0E9428
:100830003903C05CDF4F0FB6F894DEBF0FBECDBFEB
:10084000DF91CF911F910F91FF90EF9008952FB7F7
:10085000F89460912002709121028091220290917F
:1008600023022FBF0895AF92BF92CF92DF92EF92F3
:10087000FF920F931F93CF93DF936C017B018B014A
:10088000040F151FEB015E01AE18BF08C017D1079A
:1008900059F06991D601ED91FC910190F081E02D24
:1008A000C6010995892B79F7C501DF91CF911F9179
:1008B0000F91FF90EF90DF90CF90BF90AF90089591
:1008C000FC01538D448D252F30E0842F90E0821B56
:1008D000930B541710F0CF96089501970895FC01DB
:1008E000918D828D981761F0A28DAE0FBF2FB11D33
:1008F0005D968C91928D9F5F9F73928F90E008958B
:100900008FEF9FEF0895FC01918D828D981731F044
:10091000828DE80FF11D858D90E008958FEF9FEF98
:100920000895FC01918D228D892F90E0805C9F4F6E
:10093000821B91098F73992708958AE292E00E94A1
:10094000910421E0892B09F420E0822F089580E0B2
:1009500090E0892B29F00E949D0481110C940000E5
:100960000895FC01A48DA80FB92FB11DA35ABF4F44
:100970002C91848D90E001968F739927848FA6899E
:10098000B7892C93A089B1898C91837080648C93F2
:10099000938D848D981306C00288F389E02D8081A1
:1009A0008F7D80830895EF92FF920F931F93CF93D3
:1009B000DF93EC0181E0888F9B8D8C8D98131AC09A
:1009C000E889F989808185FF15C09FB7F894EE8981
:1009D000FF896083E889F9898081837080648083DE
:1009E0009FBF81E090E0DF91CF911F910F91FF9029
:1009F000EF900895F62E0B8D10E00F5F1F4F0F73D1
:100A00001127E02E8C8D8E110CC00FB607FCFACF8B
:100A1000E889F989808185FFF5CFCE010E94B10474
:100A2000F1CFEB8DEC0FFD2FF11DE35AFF4FF0825C
:100A30009FB7F8940B8FEA89FB8980818062CFCFC2
:100A40000F931F93CF93DF938C01D0E0C0E0F801A8
:100A5000EC0FFD1F6491662341F08AE292E00E9450
:100A6000D304892B11F02196F2CFCE01DF91CF91E3
:100A70001F910F910895CF93DF93EC01888D882308
:100A8000B9F0AA89BB89E889F9898C9185FD03C0F1
:100A9000808186FD0DC00FB607FCF7CF8C9185FFD6
:100AA000F2CF808185FFEDCFCE010E94B104E9CF66
:100AB000DF91CF9108951F93CF93DF93FC012181A4
:100AC000261731F0162FEC0180810E9483021983D2
:100AD000DF91CF911F9108958F929F92AF92BF9215
:100AE000CF92DF92EF92FF92CF93DF93EC01C09011
:100AF0002304D0902404E0902504F0902604609113
:100B00001B0470911C0480911D0490911E04809020
:100B1000170490901804A0901904B0901A04681952
:100B200079098A099B090E9406189B01AC01C7013B
:100B3000B601219709F05DC00E94731960932304E8
:100B4000709324048093250490932604C09023047A
:100B5000D0902404E0902504F090260460911304C2
:100B60007091140480911504909116040E94061847
:100B70004B015C01AC019B01C701B6010E94871AC1
:100B80001816D4F58092230490922404A092250490
:100B9000B092260420E030E048EC52E46091230457
:100BA0007091240480912504909126040E94671876
:100BB00020E030E041EE55E40E94DF190E94511A16
:100BC0007093D2026093D1020E94270460931704AD
:100BD000709318048093190490931A04DF91CF91B5
:100BE000FF90EF90DF90CF90BF90AF909F908F904D
:100BF00008950E947219A2CF20E030E0A901C70138
:100C0000B6010E94011887FFC5CF80E090E0A0E206
:100C1000B1E48093230490932404A0932504B0931B
:100C20002604B8CFCF93DF93C0911F04D091200446
:100C3000C130D10509F458C058F0C230D10509F4CB
:100C40007EC0C330D10509F4C4C0DF91CF910895AF
:100C500080913F04909140042091290430912A040E
:100C6000232B09F5892B89F361E08DEE95E00E9435
:100C70005B0561E08FEE95E00E945B0583E090E00C
:100C80009093200480931F049093D4028093D30206
:100C90000E9427046093170470931804809319042A
:100CA00090931A04D2CF892B81F661E08DEE95E006
:100CB0000E945B0560E08FEE95E00E945B05C2E05C
:100CC000D0E0D0932004C0931F040E9427046093B7
:100CD0001704709318048093190490931A04D09306
:100CE000D402C093D302B1CF8091290490912A04F9
:100CF000892B09F0AACF80913F0490914004892B61
:100D000009F0A3CF60E08DEE95E00E945B0560E006
:100D10008FEE95E00E945B051092200410921F0454
:100D20000E94270460931704709318048093190499
:100D300090931A041092D4021092D30286CF80911D
:100D4000290490912A04892BF1F480913F04909119
:100D5000400460E0892B39F18DEE95E00E945B053F
:100D600060E08FEE95E00E945B0581E090E090935B
:100D7000200480931F04D0932204C09321049093F5
:100D8000D4028093D3020E94270460931B047093C3
:100D90001C0480931D0490931E0490E080E0DF917A
:100DA000CF910C946C058DEE95E00E945B0560E0A0
:100DB0008FEE95E00E945B051092200410921F04B4
:100DC000D0932204C09321041092D4021092D30233
:100DD000DACF80913F049091400420912904309112
:100DE0002A04232B29F5892BB1F460E08DEE95E0E0
:100DF0000E945B0560E08FEE95E00E945B0510921B
:100E0000200410921F04D0932204C0932104109256
:100E1000D4021092D3020E94270460931B047093A3
:100E20001C0480931D0490931E0481E090E0B7CFD2
:100E3000892B89F760E08DEE95E00E945B0560E00C
:100E40008FEE95E00E945B0581E090E09093200496
:100E500080931F04D0932204C09321049093D40262
:100E60008093D302D8CF0C941206DC01ED91FC9153
:100E700023813481818192812817390781F480810F
:100E8000833031F410922A04109229040C94120633
:100E90008A30E1F71092400410923F04F7CFA091FE
:100EA000F704B091F8048D919C91892B79F780819A
:100EB000833039F481E090E090932A0480932904F0
:100EC000E5CF8A3019F781E090E090934004809359
:100ED0003F04DCCF8091D5029091D60280359105F8
:100EE00080F48FEF94E00E94000289E195E00E9477
:100EF000000283E395E00E9400028DE495E00C94EB
:100F0000000287E294E00E9463028DE394E00E9475
:100F1000630283E594E00E94630289E694E00E9404
:100F200063028FE794E00E94630285E994E00E94E7
:100F300063028BEA94E00E94630281EC94E00E94D9
:100F4000630287ED94E00C946302FB0101900020A2
:100F5000E9F73197AF01461B570BDC01ED91FC918E
:100F60000280F381E02D0994CF93DF930E94200546
:100F7000EC0163E371E08AE292E00E94A5078C0F26
:100F80009D1FDF91CF9108950F931F93CF93DF9310
:100F9000EC010E94A5078C0163E371E0CE010E9481
:100FA000A507800F911FDF91CF911F910F91089599
:100FB0000F931F93CF93DF938C01EB018AE292E0B2
:100FC0000E94C407F80180819181009739F0BE0129
:100FD000DF91CF911F910F910C94C407DF91CF91B6
:100FE0001F910F910895EF92FF920F931F93CF934C
:100FF000DF938C01D62FC0E0D80112968D919C9181
:101000001397C8171906E4F41496ED91FC91E0804B
:10101000F18080E0309759F466E371E0C8010E94E6
:10102000D8076D2FC7010E945B05CF5FE5CFC817BA
:10103000C1F30280F381E02DE080F1808F5FF7CF74
:10104000DF91CF911F910F91FF90EF900895CF9373
:10105000DF93EC014B815C8129813A814217530770
:1010600071F58CEF91E00E9420058091170290911C
:101070001802892BE9F481E090E0909318028093A4
:10108000170289EF91E00E94B4078C899D89181698
:101090001906ACF461E08091170290911802892B37
:1010A00009F460E0CE014296DF91CF910C94F307F2
:1010B000109218021092170285EF91E0E4CFDF91B1
:1010C000CF910895CF93DF93EC014E855F856A85BC
:1010D0007B858AE292E00E9433042B813C818981E6
:1010E0009A8128173907C1F488EE91E00E94B4076D
:1010F0008C899D891816190694F461E02B813C8136
:1011000089819A812817390709F460E0CE01429657
:10111000DF91CF910C94F3078BED91E0E7CFDF9156
:10112000CF910895BF92CF92DF92EF92FF920F93EB
:101130001F93CF93DF938C016B01D0E0C0E0862F2B
:101140008170B82ED80112968D919C911397C81773
:10115000D907ACF59C2F1496ED91FC91E080F180BD
:1011600080E0309719F566E371E0C8010E94D80766
:10117000D7011296ED91FC91208131816B2DB2E067
:10118000CB16D10429F461E02115310509F060E0A6
:10119000862F90E08217930739F091838083F701BF
:1011A000808191810E945B052196CCCF891700F741
:1011B0000280F381E02DE080F1808F5FF7CFDF9137
:1011C000CF911F910F91FF90EF90DF90CF90BF9044
:1011D0000895CF93DF93EC01E881F981AC89BD8953
:1011E000418152812D913C912417350790F0208543
:1011F0003185232B59F461E070E006960E94920835
:10120000E881F98181E090E091878087DF91CF913B
:10121000089511861086FACFCF93DF93EC01EC8905
:10122000FD8940815181EA89FB8920813181241720
:10123000350774F1E881F9818085918581309105C8
:1012400041F08230910599F01092E2021092E10291
:101250000BC02181328142175307B4F061E070E086
:10126000CE0106960E94920882E090E00DC0418176
:1012700052814217530744F070E060E0CE010696B9
:101280000E94920881E090E0E881F981918780874F
:10129000DF91CF910895CF92DF92EF92FF920F935B
:1012A0001F93CF93DF938C01DC01ED91FC9111979B
:1012B0005096CD91DC9123813481818192812817D0
:1012C0003907B9F00E9427046A837B838C839D834E
:1012D00081E08983188261E070E0C8010696DF91A1
:1012E000CF911F910F91FF90EF90DF90CF900C94D2
:1012F00092088981882361F10E942704CA80DB80DB
:10130000EC80FD806C157D058E059F05A8F5C094C9
:10131000D094E094F0946C0D7D1D8E1D9F1DEE8188
:10132000FF814081518128EE33E0429F6001439F5D
:10133000D00C529FD00C1124F12CE12C6C157D05A2
:101340008E059F05F0F019821A821B821C821D8275
:10135000D8015096ED91FC918081811112C08CE0F2
:1013600092E00E94B407D8015096ED91FC9181E083
:10137000808370E060E0B1CF6C197D098E099F0910
:10138000CECFDF91CF911F910F91FF90EF90DF9023
:10139000CF900895DC01ED91FC914381548121812E
:1013A00032814217530729F462E070E006960C94EC
:1013B000920808950C94CA090F931F93CF93DF935B
:1013C000D0E0C0E08091170390911803C817D907A7
:1013D0000CF59C2FE0911903F0911A030081118103
:1013E00080E0309771F466E371E085E193E00E945C
:1013F000D807D8011E96ED91FC91C8010995219658
:10140000E1CF8917B0F70280F381E02D00811181CF
:101410008F5FF7CFDF91CF911F910F910895EF92DA
:10142000FF920F931F93CF93DF93EC017B010E810B
:101430001F8184E090E00E94A61A9F838E83892BEF
:1014400029F469E671E0CE010E94D807EE81FF81A0
:1014500013821282F182E0828C819D81892B71F44A
:10146000FD83EC838A819B8101969B838A83DF9134
:10147000CF911F910F91FF90EF900895D80113968F
:10148000FC93EE931297EECFEF92FF920F931F9380
:10149000CF93DF93EC017B010E811F8184E090E00C
:1014A0000E94A61A9F838E83892B29F469E671E036
:1014B000CE010E94D807EE81FF8113821282F18251
:1014C000E0828C819D81892B71F4FD83EC838A817C
:1014D0009B8101969B838A83DF91CF911F910F910E
:1014E000FF90EF900895D8011396FC93EE93129716
:1014F000EECF0F931F93CF93DF938C01C091130313
:10150000D091140384E090E00E94A61A90931403F3
:1015100080931303892B31F469E671E08DE093E049
:101520000E94D807E0911303F091140313821282F2
:10153000118300838091110390911203892B91F400
:10154000F0931203E093110380910F039091100325
:1015500001969093100380930F03DF91CF911F9119
:101560000F910895FB83EA83EFCFCF93DF93EC01D4
:101570002B813C8189819A8128173907D1F44E85C6
:101580005F856A857B858AE292E00E9433046AE97E
:1015900071E08AE292E00E94A50788859985892BEF
:1015A000C9F481E090E09987888788ED91E00E94F6
:1015B000B4078C899D89181619068CF461E088851A
:1015C0009985892B09F460E0CE014296DF91CF9195
:1015D0000C94F3071986188684ED91E0E8CFDF912B
:1015E000CF9108950F931F93CF93DF93EC018C81DC
:1015F0009D81009769F0FC01028113810E94421BCA
:101600001D830C838A819B8101979B838A83EFCF03
:1016100081E0DF91CF911F910F910895CF93DF93D8
:10162000EC0144960E94F20A1B8A1A8ACE018E9619
:101630000E94F20A1DA61CA6CE01885B9F4F0E9445
:10164000F20AFE01EA5BFF4F11821082CE018E5931
:101650009F4F0E94F20AFE01E05AFF4F1182108252
:101660007A9611821082CE0184589F4F0E94F20A0E
:10167000FE01EC56FF4F11821082CE018A569F4F19
:10168000DF91CF910C94F20A0F931F93CF93DF93C6
:10169000EC018C819D81009769F0FC01028113812E
:1016A0000E94421B1D830C838A819B8101979B832F
:1016B0008A83EFCF81E0DF91CF911F910F91089541
:1016C000CF93DF93EC01805F9E4F0E94440BFE019D
:1016D000E85EFE4F118210823C9711821082CE018B
:1016E0008A5D9E4F0E94440BFE01E25DFE4F118217
:1016F00010823C9711821082CE01845C9E4F0E9422
:10170000440BFE01EC5BFE4F11821082CE018E5A1B
:101710009E4F0E94440BFE01E65AFE4F118210823A
:10172000769611821082CE0188599E4F0E94440BFA
:10173000FE01EA57FE4F11821082CE0182589E4F61
:101740000E94440BFE01E456FE4F11821082CE012E
:101750008C569E4F0E94440BFE01E853FE4F1182AF
:101760001082CE0180549E4FDF91CF910C94440B98
:10177000CF93DF938DEF94E00E940E0B8DE193E009
:101780000E94600B8091190390911A03009799F0C1
:10179000FC01C281D3810E94421BD0931A03C093E3
:1017A00019038091170390911803019790931803E0
:1017B00080931703E7CFDF91CF9108950E94B80B74
:1017C0008BED92E09093C0048093BF0489ED92E08A
:1017D0009093BE048093BD048CE099E09093BA048A
:1017E0008093B90461EF74E081EB94E00E940F0AEA
:1017F0008DED92E09093EC048093EB0489EE98E0F9
:101800009093E6048093E5046DEE74E08DED94E032
:101810000E940F0A1092200410921F0485E397E0A3
:10182000909336048093350410922A041092290470
:1018300090934C0480934B041092400410923F0408
:101840008AED99E090936204809361046DEE74E0F8
:1018500089E594E00C940F0A0F931F93CF93DF93C5
:10186000EC010C811D81012B51F08C819D81FC01CB
:10187000028113810E94421B1D830C83F4CFDF91F0
:10188000CF911F910F910895CF93DF93EC01429672
:101890000E942C0C8A859B85009721F0DF91CF91C7
:1018A0000C94421BDF91CF910895CF93DF93EC010D
:1018B00081E191E099838883CE018E529F4F0E94EF
:1018C000440CCE0188549F4F0E94440CCE01825696
:1018D0009F4F0E94440CCE018C579F4F0E94440C96
:1018E000CE0186599F4F0E94440CCE01805B9F4FD2
:1018F0000E94440CCE01C6960E94440CCE014C9628
:101900000E94440CCE010296DF91CF910C94440CBE
:10191000CF93DF93EC010E94550CCE01DF91CF9164
:101920000C94421BCF93DF93EC018DE291E09983FD
:101930008883CE0180549E4F0E942C0CCE01865588
:101940009E4F0E942C0CCE018C569E4F0E942C0C58
:10195000CE0182589E4F0E942C0CCE0188599E4F7A
:101960000E942C0CCE018E5A9E4F0E942C0CCE0150
:10197000845C9E4F0E942C0CCE018A5D9E4F0E947B
:101980002C0CCE01805F9E4F0E942C0CCE01DF916B
:10199000CF910C94550CCF93DF93EC010E94920CE5
:1019A000CE01DF91CF910C94421B1F93CF93DF9315
:1019B000EC01162F0E942519181739F0612FCE015E
:1019C000DF91CF911F910C942D19DF91CF911F9131
:1019D0000895CF93DF93D0E0C0E0C730D105C0F4C5
:1019E000FE01EB50F34F0C94A01AFC0C0F0D1A0DD6
:1019F0002C0D3C0D600D4C0D61E08091DF0290914B
:101A0000E002892B09F460E089EE95E00E945B0515
:101A10002196C830D10509F7DF91CF91089561E093
:101A20008091E1029091E202892B09F460E08BEE53
:101A300095E0ECCF61E08091E3029091E402892B84
:101A400009F460E0E0916904F0916A04658381E043
:101A500090E00E94D50CDCCF61E08091E50290918E
:101A6000E602892B09F460E0E091AB04F091AC044C
:101A7000658384E090E0EDCF61E08091E702909192
:101A8000E802892B09F460E0E091D704F091D804D2
:101A9000658389E090E0DDCF8091EB029091EC02CC
:101AA000009749F4E0912704F091280421813281C4
:101AB000232B09F0ADCF90932A0480932904A8CF5B
:101AC0008091E9029091EA02009749F4E0913D0487
:101AD000F0913E0421813281232B09F099CF90931C
:101AE000400480933F0494CF0C9425192F923F9289
:101AF0004F925F926F927F928F929F92AF92BF921E
:101B0000CF92DF92EF92FF920F931F93CF93DF93C9
:101B1000CDB7DEB7C656D1090FB6F894DEBF0FBEFB
:101B2000CDBFF12CE12C07E218E0CE0101962C018B
:101B30008AED682E89E0782E99E6292E94E0392ED8
:101B40002AEC822E29E0922E32E6C32E38E0D32EE4
:101B500045EBA42E4AE0B42E92E0E916F10409F414
:101B600062C20CF043C0B1E0EB16F10409F44EC2BE
:101B70006091D50290E080E00E94D50C8091D50262
:101B800090911002891789F080931002833409F430
:101B900026C108F06CC0833109F4D4C0E0F581316E
:101BA00009F49EC0823109F4AEC0BFEFEB1AFB0A04
:101BB00025E0E216F10481F6CA59DF4F0FB6F8941A
:101BC000DEBF0FBECDBFDF91CF911F910F91FF9070
:101BD000EF90DF90CF90BF90AF909F908F907F90CD
:101BE0006F905F904F903F902F90089523E0E21602
:101BF000F10409F423C284E0E816F10409F0B8CF37
:101C00006091DE028AE090E00E94D50C6091DD02D6
:101C10008BE090E005C2813409F4A7C008F0C0C091
:101C2000823319F687E691E00E94B4070E94B80B50
:101C30001093100500930F0569EE75E081E195E0C2
:101C40000E94440A10932A050093290569EE75E065
:101C50008BE295E00E94440A1093440500934305EB
:101C600069EE75E085E495E00E94440A9ECF8037D6
:101C700009F403C128F5843509F4E4C0823609F07B
:101C800094CF8CED90E00E94B4070E94B80B909224
:101C900036048092350461EF74E08DE294E00E9496
:101CA0000F0A90924C0480924B046DEE74E083E432
:101CB00094E00E940F0A909262048092610475CFB2
:101CC000803A09F495C1813A09F499C1803909F043
:101CD0006CCF80E890E00E94B4070E94DE0B65CFD5
:101CE00089EB91E00E94B4070E94B80BD0921005D6
:101CF000C0920F05D0922A05C0922905D0924405C2
:101D0000C092430552CF8DE991E00E94B4070E9432
:101D1000B80BB0921005A0920F0510920805109212
:101D20000705B0922A05A09229051092220510926B
:101D30002105B0924405A092430510923C051092F3
:101D40003B0533CF82E891E00E94B4070E94B80BB4
:101D50001093100500930F0510932A050093290591
:101D6000109344050093430520CF8BE491E00E943B
:101D7000B4070E94B80BD0921005C0920F0569EE0F
:101D800075E081E195E00E94440AD0922A05C09254
:101D900029056BEE75E08BE295E00E94440AAECF18
:101DA0008FE291E00E94B4070E94B80BB092100538
:101DB000A0920F0569EE75E081E195E00E94440A6A
:101DC000B0922A05A09229056BEE75E08BE295E0B2
:101DD0000E94440AB0924405A0924305E6CE84E1F5
:101DE00091E00E94B4070E94B80B10931005009375
:101DF0000F0569EE75E081E195E00E94440A6BEE03
:101E000075E081E195E00E94440A10932A05009351
:101E1000290569EE75E08BE295E00E94440A6BEEBD
:101E200075E08BE295E00E94440A1093440500930C
:101E3000430569EE75E085E495E00E94440A6BEE87
:101E400075E010CF88EF90E00E94B4070E94B80BB5
:101E500090923604809235046DEE74E08DE294E049
:101E60000E940F0A90924C0480924B0461EF74E040
:101E700083E494E00E940F0A98CE8FEA90E00E94DB
:101E8000B4078091080281110DC0109201021092D6
:101E9000020210920302109204021092050291E0D5
:101EA000909308020E94B80BE0916904F0916A04D3
:101EB00015821092E4021092E3028091D8028F936F
:101EC0008091D7028F93ABEEB1E0BF93AF935F9257
:101ED0004F920E94981CB2018AE292E00E94C407CD
:101EE00087ED92E090930702809306020E942704F8
:101EF00060930202709303028093040290930502A0
:101F000091E09093010210920002A0E0B2E0B09341
:101F10007A04A09379048BE499E0909378048093F9
:101F2000770461EF74E08FE694E00E940F0A7092EC
:101F30003604609235046DEE74E08DE294E00E9408
:101F40000F0A70924C0460924B046DEE74E083E4CF
:101F500094E00E940F0A70926204609261046DEE38
:101F600074E089E594E00E940F0AA0911B03B091F0
:101F70001C03A796BFAFAEAFA79784E090E00E9486
:101F8000A61A90931C0380931B030F900F900F9041
:101F90000F900F900F90892B31F469E671E085E185
:101FA00093E00E94D807E0911B03F0911C03138279
:101FB0001282318220828091190390911A03892B19
:101FC00071F4F0931A03E093190380911703909131
:101FD000180301969093180380931703E6CDA796F4
:101FE000AEADBFADA7971396FC93EE931297EDCFCE
:101FF00083E790E00E94B4070E94DE0BD6CD88E60E
:1020000090E00E94B4070E94DE0BCFCD6091D80211
:1020100082E090E00E94D50C6091D70283E090E0CE
:102020000E94D50CC2CD6091DA0285E090E00E945A
:10203000D50C6091D90286E090E0F2CF6091DC028D
:1020400087E090E00E94D50C6091DB0288E090E090
:10205000E7CFCF92DF92EF92FF920F931F93CF9330
:10206000DF93CDB7DEB7C854D1090FB6F894DEBF01
:102070000FBECDBF8091280290912902DC01ED9125
:10208000FC910084F185E02D09958C010E94E2020B
:1020900001151105A1F41092160210921502C85BE9
:1020A000DF4F0FB6F894DEBF0FBECDBFDF91CF91EB
:1020B0001F910F91FF90EF90DF90CF9008952091A6
:1020C00015023091160202171307C9F01093160279
:1020D000009315020091090310910A0320910B034C
:1020E00030910C03600F711F821F931F60931102C8
:1020F000709312028093130290931402D0CF009138
:1021000011021091120220911302309114026017F3
:1021100071078207930718F21092160210921502A7
:10212000FE0131967F016F0110E000E080912802EE
:1021300090912902DC01ED91FC910084F185E02D64
:102140000995892BC1F08091280290912902DC0128
:10215000ED91FC910284F385E02D0995F6018193C0
:102160006F010F5F1F4F0034110501F70E94E90C4A
:102170000E94760D94CF0115110509F490CF3EEF22
:10218000300FF7018FEF9FEF2E2F2E19231788F4B2
:102190002191822728E0AC014170552796958795BB
:1021A000452B21F041E0842740EA9427215099F7FC
:1021B000EBCFEFEFFFEFEC0FFD1FE00FF11F2081E2
:1021C000FE01E00FF11F30812327322723279827B4
:1021D000892798272817390749F6E091F70289815E
:1021E000E813C4CF9A81A6E0B1E02DE031E08D91F3
:1021F000891709F4D5C02A173B07C9F781E0229651
:10220000EFAF2297905823969FAF239724968FAFD6
:10221000249763E0CE018F5B9F4F0E943903A6CFC6
:102220006D8170E0762F66274E81640F711D2091BD
:10223000030330910403923031F0913099F52091ED
:1022400001033091020348E061157105E1F1461781
:102250001706C8F14B81A42FB0E0BA2FAA274C81F2
:102260004A0F5B2F511D460F571F2417350708F4DF
:10227000ACC06B8170E0762F66279C81690F711D61
:10228000833009F45AC008F5813009F449C082301E
:1022900009F06CCF2091FB023091FC024E8182E06C
:1022A00090E045C02091050330910603933049F03A
:1022B00030E020E040E0943039F62091070330917F
:1022C000080349E1C1CF83E09ACF853009F445C0C6
:1022D000E8F1863009F04ACF4091FD025091FE02AC
:1022E0002D813E813227232732272296EFAF229776
:1022F00023968FAF239724967FAF249725966FAFB1
:10230000259726963FAF269727962FAF2797660FDC
:10231000771FFA01E60FF71F3183208366E07ACF3B
:102320002091F9023091FA024E8181E090E00E9402
:102330009C03892B09F01ACFB2CE2091FD02309177
:10234000FE024E8183E00E94DE03F3CF2091FF0264
:10235000309100034E8184E0F6CF4091F902509114
:10236000FA022D813E813227232732272296EFAFB2
:10237000229723968FAF239724967FAF2497259695
:102380006FAF259726963FAF269727962FAF2797B3
:10239000660F771F640F751FDB012D933C93BECF33
:1023A000963009F466CF953009F03ACF2B8130E0B2
:1023B000322F22274C81240F311D4091010350916F
:1023C00002032417350708F454CF82E018CF1F9278
:1023D0000F920FB60F9211242F933F938F939F93D9
:1023E000AF93BF938091200290912102A09122028D
:1023F000B091230230911F0223E0230F2D3758F5AF
:102400000196A11DB11D20931F028093200290937D
:102410002102A0932202B093230280912402909182
:102420002502A0912602B09127020196A11DB11D9F
:102430008093240290932502A0932602B093270252
:10244000BF91AF919F918F913F912F910F900FBEB0
:102450000F901F90189526E8230F0296A11DB11D1D
:10246000D2CF1F920F920FB60F9211242F933F934A
:102470004F935F936F937F938F939F93AF93BF938C
:10248000EF93FF938AE292E00E94B104FF91EF91F3
:10249000BF91AF919F918F917F916F915F914F917C
:1024A0003F912F910F900FBE0F901F9018951F9284
:1024B0000F920FB60F9211242F938F939F93EF9348
:1024C000FF93E0913A02F0913B028081E09140025B
:1024D000F091410282FD1BC09081809143028F5F89
:1024E0008F7320914402821741F0E0914302F0E0A3
:1024F000E65DFD4F958F80934302FF91EF919F9191
:102500008F912F910F900FBE0F901F901895808183
:10251000F4CF0F931F93CF93DF93EC0188819981C0
:10252000009759F02A813B812617370730F081E068
:10253000DF91CF911F910F9108958B016F5F7F4FB6
:102540000E94CB1B009759F0998388831B830A83D1
:102550002C813D81232B59F7FC011082E8CF80E0CC
:10256000E7CFCF93DF93EC011B861A861D861C866E
:102570001F861E8670E060E00A960E9489122A85F6
:102580003B85811117C02115310519F0C9010E9441
:10259000421B1B861A861F861E861D861C861D8A68
:1025A0001C8A1F8A1E8A198E188E1B8A1A8ADF912E
:1025B000CF9108951F861E8665E371E0C9010E94D0
:1025C000911CEDCFEF92FF920F931F93CF93DF9368
:1025D000EC017B01FB0101900020E9F731978F01AD
:1025E000061B170BB8010E948912288139818111BD
:1025F00013C02115310519F0C9010E94421B19822F
:1026000018821D821C821B821A82DF91CF911F913A
:102610000F91FF90EF9008951D830C83B701C901BE
:10262000DF91CF911F910F91FF90EF900C94911C2F
:102630003F924F925F926F927F928F929F92AF9252
:10264000BF92CF92DF92EF92FF920F931F93CF939F
:10265000DF93EC0121E131E0FC0121933193CF01C3
:102660000E94B112CE014C960E94B112CE01C696C4
:102670000E94B1124E01F0E58F0E911CC4010E9420
:10268000B1125E018AE6A80EB11CC5010E94B1120A
:102690006E01E4E8CE0ED11CC6010E94B1127E018B
:1026A000FEE9EF0EF11CC7010E94B1123E0188EB5A
:1026B000680E711CC3010E94B1122E01E2ED4E0E94
:1026C000511CC2010E94B11260E083E00E94B1027D
:1026D00060E08AE00E94B10260E08BE00E94B102FB
:1026E00060E08DE00E94B10261E084E00E94B102EE
:1026F00061E087E00E94B10261E085E00E94B102E2
:1027000061E086E00E94B10283E08A831C821B8222
:102710001E821D82332433943F82198618866EEA06
:1027200071E0CE010C960E94E2121B8A1A8A1B8667
:102730001A868AE08C8F1E8E1D8E18A21F8E39A2DB
:102740001BA21AA266EB71E0CE0186960E94E212ED
:102750001DA61CA61DA21CA28BE08EAB01E010E002
:1027600018AF0FAB1AAF09AF3BAE1DAE1CAE6EEB90
:1027700071E0CE01805C9F4F0E94E212FE01EA5B95
:10278000FF4F118210828DE0F40180833196118217
:1027900010823296118210823296308231961182E6
:1027A000108265EC71E0CE01865A9F4F0E94E212C2
:1027B000FE01E05AFF4F1182108281E1F501808312
:1027C0003596308231961183008369EC71E0CE0139
:1027D0008C589F4F0E94E21282E1F6018083359669
:1027E00030823196118300836FEC71E0CE01825705
:1027F0009F4F0E94E2128EE0F7018083359630826F
:1028000031961183008365ED71E0CE0188559F4FAD
:102810000E94E21280E1F301808338968FEF9FEFF0
:1028200091838083339730823196118300836CEDDE
:1028300071E0CE018E539F4F0E94E21283E1F201BC
:1028400080833596308231961183008363EE71E088
:10285000CE0184529F4F0E94E212FE01E451FF4FCD
:1028600084E0808331961082319687E080833196B0
:102870001082319685E0808331961082319686E011
:102880008083CD50DF4F1882DF91CF911F910F9140
:10289000FF90EF90DF90CF90BF90AF909F908F9080
:1028A0007F906F905F904F903F900895EAE2F2E042
:1028B0001382128288EE93E0A0E0B0E084839583D7
:1028C000A683B7838BE191E09183808385EC90E0D0
:1028D0009587848784EC90E09787868780EC90E0EA
:1028E000918B808B81EC90E0938B828B82EC90E0DB
:1028F000958B848B86EC90E0978B868B118E128E55
:10290000138E148E8DEF94E00E9418138DE193E0E6
:102910000E941813ADE1B3E08DE291E011969C9313
:102920008E9310921204109211041092300410929F
:102930002F04109232041092310410923404109239
:10294000330410922E0410922D041092460410921B
:102950004504109248041092470410924A041092C1
:102960004904109244041092430410925C041092A3
:102970005B0410925E0410925D0410926004109249
:102980005F0410925A04109259041092720410922B
:1029900071041092740410927304109276041092D1
:1029A00075041092700410926F04109288041092B3
:1029B000870410928A041092890410928C04109259
:1029C0008B04109286041092850410929E0410923B
:1029D0009D041092A00410929F041092A2041092E1
:1029E000A10410929C0410929B041092B4041092C3
:1029F000B3041092B6041092B5041092B804109269
:102A0000B7041092B2041092B1041092CA0410924A
:102A1000C9041092CC041092CB041092CE041092F0
:102A2000CD041092C8041092C7041092E0041092D2
:102A3000DF041092E2041092E1041092E404109278
:102A4000E3041092DE041092DD048FE193E0909392
:102A5000280480932704EFEEF2E0F0932C04E09337
:102A60002B0410922A041092290413968D919C91A4
:102A700014979183808389E393E090933E0480933D
:102A80003D0481EF92E090934204809341041092C0
:102A9000400410923F045D968D919C915E979383C4
:102AA000828383E593E0909354048093530483EFEF
:102AB00092E09093580480935704D7968D919C91FF
:102AC000958384838DE693E090936A0480936904F0
:102AD00010927203AFEDB2E015961C921E921497FD
:102AE00085EF92E090936E0480936D0480916E0365
:102AF00090916F0397838683E5EDF2E083E090E0A9
:102B00009383828387E893E09093800480937F048B
:102B100087EC92E0909384048093830481EA93E0AD
:102B2000909396048093950489EC92E090939A0494
:102B3000809399048BEB93E09093AC048093AB0467
:102B40008BEC92E09093B0048093AF0485ED93E01A
:102B50009093C2048093C1048DEC92E09093C604DC
:102B60008093C50485E791E09093D0048093CF04CF
:102B70008FEE93E09093D8048093D7048FEC92E08B
:102B80009093DC048093DB0489E094E09093EE045E
:102B90008093ED04B093F004A093EF048BE094E0F5
:102BA0009093F2048093F10481EE92E09093F40408
:102BB0008093F3048DE094E09093F6048093F50401
:102BC00089EE92E09093F8048093F7048FE094E00C
:102BD0009093FA048093F9048BEE92E09093FC04B6
:102BE0008093FB041586148680E29CE1A0E0B0E0AF
:102BF0008093130490931404A0931504B0931604C7
:102C0000E5E1F3E0138212821582148217821682A4
:102C100011821082EDE0F3E0138212821582148299
:102C20001782168211821082E7EFF2E0138212827D
:102C300015821482178216821186108613861286D8
:102C40001586148617861686118A108A11821082BC
:102C5000128A138A148A158A0895789484B582603A
:102C600084BD84B5816084BD85B5826085BD85B530
:102C7000816085BD80916E00816080936E001092AE
:102C80008100809181008260809381008091810029
:102C900081608093810080918000816080938000BA
:102CA0008091B10084608093B1008091B000816018
:102CB0008093B00080917A00846080937A00809144
:102CC0007A00826080937A0080917A00816080939C
:102CD0007A0080917A00806880937A001092C10017
:102CE0008AE292E090932902809328028FED92E08D
:102CF0009093FA028093F90288E090E090930203A7
:102D0000809301038FEE92E09093FC028093FB028C
:102D100084E090E0909304038093030385ED92E0B8
:102D20009093FE028093FD0285E090E0909306036D
:102D30008093050387EC92E0909300038093FF0259
:102D400087E090E0909308038093070381E08093ED
:102D5000F7028CE08093F802E0913A02F0913B0296
:102D600082E08083E0913602F09137021082E09198
:102D70003802F091390280E1808310924202E091A2
:102D80003E02F0913F0286E08083E0913C02F091A8
:102D90003D02808180618083E0913C02F0913D02A0
:102DA000808188608083E0913C02F0913D028081C7
:102DB00080688083E0913C02F0913D0280818F7DAC
:102DC00080838091C20086608093C20061E08CE0C5
:102DD0000E94B10260E08CE00E9483028FE291E0E9
:102DE000A0E0B0E08093090390930A03A0930B0343
:102DF000B0930C031092E2021092E10290E080E0A6
:102E00000E94740D90E0009711F481E190E090939E
:102E1000D6028093D50281E090E00E94740D90E08C
:102E20009093E4028093E30282E090E00E94740DAC
:102E3000C82F83E090E00E94740D2C2F30E0322FD9
:102E40002227820F932F911D9093D8028093D7024F
:102E500084E090E00E94740D90E09093E6028093ED
:102E6000E50285E090E00E94740DC82F86E090E0B6
:102E70000E94740D2C2F30E0322F2227820F932FC7
:102E8000911D9093DA028093D90287E090E00E942E
:102E9000740DC82F88E090E00E94740D2C2F30E054
:102EA000322F2227820F932F911D9093DC02809363
:102EB000DB0289E090E00E94740D90E09093E802BC
:102EC0008093E7028AE090E00E94740DC82F8BE0A7
:102ED00090E00E94740D2C2F30E0322F2227820FB9
:102EE000932F911D9093DE028093DD020E94E90CE6
:102EF0000E94760D8AE697E00E94790A89E290E1C5
:102F00000E94790A83E397E00E94790A8CED99E0A8
:102F10000E94790A8FE192E00E94B4078AE292E06F
:102F20000E943B0504E610E070E0E72E70E0F72E0B
:102F30000E94270480901B0290901C02A0901D020A
:102F4000B0901E02681979098A099B096A307105D7
:102F500081059105D0F10E94270460931B027093B4
:102F60001C0280931D0290931E0280911902909181
:102F70001A020196B8010E948C1A90931A0280934B
:102F80001902C0E080910F0390911003C817190631
:102F9000E4F4E0911103F0911203C080D18080E04D
:102FA000309751F466E371E08DE093E00E94D8071A
:102FB000F6010995CF5FE6CFC817D1F30280F38100
:102FC000E02DC080D1808F5FF7CFE114F10409F4C8
:102FD000AFCF0E949D04882309F4AACF0E9400006D
:102FE000A7CF8DE093E00E942C0C85E193E00E9436
:102FF0002C0C8DE193E00E94920C8DEF94E00C94E8
:10300000550C0E94431808F481E00895E89409C023
:1030100097FB3EF490958095709561957F4F8F4F0B
:103020009F4F9923A9F0F92F96E9BB279395F69521
:10303000879577956795B795F111F8CFFAF4BB0F9F
:1030400011F460FF1BC06F5F7F4F8F4F9F4F16C003
:10305000882311F096E911C0772321F09EE8872F8D
:10306000762F05C0662371F096E8862F70E060E049
:103070002AF09A95660F771F881FDAF7880F9695C2
:10308000879597F90895990F0008550FAA0BE0E866
:10309000FEEF16161706E807F907C0F0121613061A
:1030A000E407F50798F0621B730B840B950B39F45A
:1030B0000A2661F0232B242B252B21F408950A26C0
:1030C00009F4A140A6958FEF811D811D08950E94EE
:1030D0007A180C94EB180E94DD1838F00E94E4185E
:1030E00020F0952311F00C94D4180C94DA181124C4
:1030F0000C941F190E94FC1870F3959FC1F3950F53
:1031000050E0551F629FF001729FBB27F00DB11D6B
:10311000639FAA27F00DB11DAA1F649F6627B00DFB
:10312000A11D661F829F2227B00DA11D621F739FE4
:10313000B00DA11D621F839FA00D611D221F749FF2
:103140003327A00D611D231F849F600D211D822F39
:10315000762F6A2F11249F5750409AF0F1F0882360
:103160004AF0EE0FFF1FBB1F661F771F881F91508D
:103170005040A9F79E3F510580F00C94D4180C9450
:103180001F195F3FE4F3983ED4F3869577956795D2
:10319000B795F795E7959F5FC1F7FE2B880F911DB7
:1031A0009695879597F9089597F99F6780E870E05D
:1031B00060E008959FEF80EC089500240A941616AD
:1031C000170618060906089500240A941216130615
:1031D000140605060895092E0394000C11F48823A3
:1031E00052F0BB0F40F4BF2B11F460FF04C06F5FBF
:1031F0007F4F8F4F9F4F089557FD9058440F551F95
:1032000059F05F3F71F04795880F97FB991F61F068
:103210009F3F79F087950895121613061406551FDF
:10322000F2CF4695F1DF08C0161617061806991F4B
:10323000F1CF86957105610508940895E894BB2740
:1032400066277727CB0197F90895F999FECF92BDAC
:1032500081BDF89A992780B50895262FF999FECF58
:103260001FBA92BD81BD20BD0FB6F894FA9AF99AA3
:103270000FBE019608952F923F924F925F926F92E8
:103280007F928F929F92AF92BF92CF92DF92EF92F6
:10329000FF920F931F93CF93DF93CDB7DEB7CA1B77
:1032A000DB0B0FB6F894DEBF0FBECDBF09942A88A2
:1032B000398848885F846E847D848C849B84AA844A
:1032C000B984C884DF80EE80FD800C811B81AA81D7
:1032D000B981CE0FD11D0FB6F894DEBF0FBECDBFA2
:1032E000ED0108955058BB27AA270E948A190C9413
:1032F000EB180E94DD1838F00E94E41820F039F431
:103300009F3F19F426F40C94DA180EF4E095E7FBCD
:103310000C94D418E92F0E94FC1858F3BA176207CE
:1033200073078407950720F079F4A6F50C941E190D
:103330000EF4E0950B2EBA2FA02D0B01B9019001D0
:103340000C01CA01A0011124FF27591B99F0593F14
:1033500050F4503E68F11A16F040A22F232F342F5C
:103360004427585FF3CF469537952795A795F040AA
:103370005395C9F77EF41F16BA0B620B730B840BBF
:10338000BAF09150A1F0FF0FBB1F661F771F881F77
:10339000C2F70EC0BA0F621F731F841F48F48795CF
:1033A00077956795B795F7959E3F08F0B0CF9395C1
:1033B000880F08F09927EE0F9795879508950E943A
:1033C000F3190C94EB180E94E41858F00E94DD18D1
:1033D00040F029F45F3F29F00C94D41851110C945B
:1033E0001F190C94DA180E94FC1868F39923B1F3A2
:1033F000552391F3951B550BBB27AA27621773071B
:10340000840738F09F5F5F4F220F331F441FAA1FAE
:10341000A9F335D00E2E3AF0E0E832D0915050406A
:10342000E695001CCAF72BD0FE2F29D0660F771F18
:10343000881FBB1F261737074807AB07B0E809F0FE
:10344000BB0B802DBF01FF2793585F4F3AF09E3F83
:10345000510578F00C94D4180C941F195F3FE4F3D5
:10346000983ED4F3869577956795B795F7959F5FC6
:10347000C9F7880F911D9695879597F90895E1E012
:10348000660F771F881FBB1F621773078407BA0771
:1034900020F0621B730B840BBA0BEE1F88F7E095CC
:1034A00008950E94581A6894B1110C941F19089538
:1034B0000E94041988F09F5798F0B92F9927B751A7
:1034C000B0F0E1F0660F771F881F991F1AF0BA95C8
:1034D000C9F714C0B13091F00E941E19B1E00895EF
:1034E0000C941E19672F782F8827B85F39F0B93FE1
:1034F000CCF3869577956795B395D9F73EF490957B
:103500008095709561957F4F8F4F9F4F08950E94D2
:10351000431808F48FEF0895AA1BBB1B51E107C0A5
:10352000AA1FBB1FA617B70710F0A61BB70B881F53
:10353000991F5A95A9F780959095BC01CD010895E2
:10354000EE0FFF1F0590F491E02D09940F931F9348
:10355000CF93DF938230910510F482E090E0E09108
:10356000F305F091F40530E020E0B0E0A0E0309702
:1035700099F42115310509F44AC0281B390B243070
:103580003105D8F58A819B816115710589F1FB01AF
:1035900093838283FE0111C0408151810281138196
:1035A00048175907E0F04817590799F4109761F048
:1035B00012960C93129713961C933296CF01DF91BB
:1035C000CF911F910F9108950093F3051093F40587
:1035D000F4CF2115310551F04217530738F0A901F6
:1035E000DB019A01BD01DF01F801C1CFEF01F9CF85
:1035F0009093F4058093F305CDCFFE01E20FF31F06
:10360000819391932250310939832883D7CF209118
:10361000F1053091F205232B41F420910201309104
:1036200003013093F2052093F105209100013091C0
:1036300001012115310541F42DB73EB74091040138
:1036400050910501241B350BE091F105F091F20535
:10365000E217F307A0F42E1B3F0B2817390778F069
:10366000AC014E5F5F4F2417350748F04E0F5F1FC8
:103670005093F2054093F105819391939FCFF0E031
:10368000E0E09CCFCF93DF930097E9F0FC01329705
:1036900013821282A091F305B091F405ED0130E0A0
:1036A00020E01097A1F420813181820F931F209197
:1036B000F1053091F2052817390709F061C0F09340
:1036C000F205E093F105DF91CF910895EA01CE175D
:1036D000DF07E8F54A815B819E0141155105B1F78D
:1036E000E901FB83EA8349915991C40FD51FEC1777
:1036F000FD0761F4808191810296840F951FE90195
:1037000099838883828193819B838A83F0E0E0E0C0
:1037100012968D919C9113970097B9F52D913C913C
:103720001197CD010296820F931F2091F1053091E0
:10373000F2052817390739F6309751F51092F4053C
:103740001092F305B093F205A093F105BCCFD3839B
:10375000C28340815181840F951FC817D90761F436
:103760004E5F5F4F88819981480F591F5183408375
:103770008A819B81938382832115310509F0B0CF23
:10378000F093F405E093F3059ECFFD01DC01C0CF7B
:1037900013821282D7CFB0E0A0E0E1EDFBE10C9400
:1037A0003D198C01009751F4CB010E94A61A8C019F
:1037B000C801CDB7DEB7E0E10C945919FC01E60F62
:1037C000F71F9C0122503109E217F30708F49DC04E
:1037D000D901CD91DC911197C617D70798F0C53064
:1037E000D10530F3CE0104978617970708F3C61B5F
:1037F000D70B2297C193D1936D937C93CF010E94F5
:10380000421BD6CF5B01AC1ABD0A4C018C0E9D1E2B
:10381000A091F305B091F405512C412CF12CE12C31
:10382000109731F58091F1059091F2058815990571
:1038300009F05CC04616570608F058C08091000198
:1038400090910101009741F48DB79EB7409104011A
:1038500050910501841B950BE817F90708F055C036
:10386000F093F205E093F105F90171836083A0CF35
:103870008D919C91119712966C90129713967C9053
:103880001397A815B90559F56C0142E0C40ED11C77
:10389000CA14DB0420F1AC014A195B09DA01129663
:1038A000159780F06282738251834083D9016D93B2
:1038B0007C93E114F10471F0D7011396FC93EE931D
:1038C000129776CF22968C0F9D1FF90191838083EA
:1038D000F301EFCFF093F405E093F30569CF4816B9
:1038E000590608F42C017D01D3019ACFCB010E9427
:1038F000A61A7C01009749F0AE01B8010E94881C0D
:10390000C8010E94421B870153CF10E000E050CF56
:10391000FB01DC0102C001900D9241505040D8F7EC
:103920000895FB01DC0101900D920020E1F708955C
:10393000AEE0B0E0EEE9FCE10C9449190D891E8976
:1039400086E08C831A8309838FEF9FE79E838D83A4
:10395000AE01475E5F4F6F89788DCE0101960E9460
:10396000BB1C2F813885020F131FF80110822E9681
:10397000E4E00C946519ABE0B0E0E1ECFCE10C9400
:103980003B197C013B018A01FC011782168283816D
:1039900081FFC8C1CE0101965C01F7019381F3015B
:1039A00093FD859193FF81913F01882309F453C1D1
:1039B000853239F493FD859193FF81913F018532E2
:1039C00029F4B70190E00E94AB1EE7CF912C212C87
:1039D000312CFFE1F31538F08B3211F190F4803285
:1039E00009F1833229F137FC3CC020ED280F2A3041
:1039F00050F536FE20C08AE0989E200D1124922EAC
:103A000006C08D3291F0803371F7689430F8F3017D
:103A100093FD859193FF81913F018111DACF21C000
:103A2000689431F8689432F8F2CF689433F8EFCFA5
:103A3000689434F8ECCFEAE02E9E200D1124222E5B
:103A4000689435F8E4CF8E3229F436FC04C16894CA
:103A500036F8DDCF8C3619F4689437F8D8CF88362D
:103A6000B1F2982F9F7D95549330E0F08336A1F109
:103A70008337C1F1833509F063C02801F2E04F0EAE
:103A8000511CF801C080D180692D70E036FC02C065
:103A90006FEF7FEFC6010E94951E4C01689437F8C6
:103AA00082010AC00C5F1F4FFFE3F98388248394CF
:103AB000912C6501E89437F833FE2DC0522C811407
:103AC000910471F5552009F468CFB70180E290E0C8
:103AD0000E94AB1E5A94F6CFF801808189830E5F55
:103AE0001F4FE4CF2801F2E04F0E511CF801C080B7
:103AF000D180692D70E036FC02C06FEF7FEFC60108
:103B00000E94A01E4C018201D5CFB70180E290E057
:103B10000E94AB1E2A942814190409F0B0F7CECFE6
:103B2000F60137FC859137FE81916F01B70190E076
:103B30000E94AB1E51105A94F1E08F1A9108BFCF2A
:103B4000843619F0893609F077C0F80137FE6BC06A
:103B500060817181828193810C5F1F4FF32DFF760D
:103B60003F2E97FF09C090958095709561957F4F86
:103B70008F4F9F4F689437F82AE030E0A5010E94EC
:103B8000DB1EC82ECA188C2C432C36FE0CC0E894C1
:103B900040F8C91440F434FE05C032FC03C0F32DD4
:103BA000FE7E4F2E892C44FE95C0FE01EC0DF11DCA
:103BB0008081803309F087C0242D297E422E842DF8
:103BC0008870582E43FC95C040FE8FC09C2C8214F8
:103BD00018F42C0C922C981844FE91C0B70180E385
:103BE00090E00E94AB1E42FE09C088E790E041FED3
:103BF00002C088E590E0B7010E94AB1EC91408F42A
:103C00008AC0CA94D12C9FEFC91AD90ACA0CDB1CEE
:103C1000F60182916F01B70190E00E94AB1EAC14D7
:103C2000BD04B1F74FCF60817181072E000C880B66
:103C3000990B0E5F1F4F92CFD32CE894D4F82AE053
:103C400030E0853739F1232D297FD22E8F3601F1CF
:103C500048F48835A9F0F701868197812B96E2E137
:103C60000C945719803749F08837A9F7D4FE02C061
:103C70006894D2F820E130E00DC06894D4F8F6CF13
:103C800034FE03C0822F8660D82E20E132E002C0CD
:103C900028E030E0F801D7FE0FC060817181828199
:103CA00093810C5F1F4FA5010E94DB1EC82ECA180E
:103CB0003D2CE89437F867CF6081718190E080E017
:103CC0000E5F1F4FF0CF42FC02C0839478CF8394E5
:103CD000839475CF842D867809F471CFF6CFB70120
:103CE00080E290E00E94AB1E83948214C0F3512CBA
:103CF00073CF522C5818821408F46ECFF8CF842D4D
:103D0000867809F47BCF8BE241FE80E247FC8DE2AE
:103D1000B70190E071CFB70180E390E00E94AB1E45
:103D20009A946CCF8FEF9FEF99CFFC010590615073
:103D300070400110D8F7809590958E0F9F1F0895C1
:103D4000FC016150704001900110D8F7809590956A
:103D50008E0F9F1F08950F931F93CF93DF93182FFC
:103D6000092FEB018B8181FD09C01FEF0FEF812F20
:103D7000902FDF91CF911F910F91089582FF14C072
:103D80002E813F818C819D81281739073CF4E88181
:103D9000F981CF0101969983888310838E819F8159
:103DA00001969F838E83E3CFE885F985812F09955E
:103DB000892BA1F3DACFFA01AA27283051F120315B
:103DC00081F1E8946F936E7F6E5F7F4F8F4F9F4FAF
:103DD000AF4FB1E03ED0B4E03CD0670F781F891FF1
:103DE0009A1FA11D680F791F8A1F911DA11D6A0FBF
:103DF000711D811D911DA11D20D009F468943F9172
:103E00002AE0269F11243019305D3193DEF6CF0170
:103E10000895462F4770405D4193B3E00FD0C9F736
:103E2000F6CF462F4F70405D4A3318F0495D31FDA3
:103E30004052419302D0A9F7EACFB4E0A6959795F6
:103E4000879577956795BA95C9F7009761057105CC
:103E500008959B01AC010A2E069457954795379516
:103E60002795BA95C9F7620F731F841F951FA01D70
:103E7000089511E0CAE4D1E004C0FE010E94A01A36
:0C3E80002196CB34D107C9F7F894FFCF8E
:103E8C000000F50580000102030405061000000087
:103E9C0000550C880C0E0B00000000D3043304609A
:103EAC00043B0591046F04830400000000920CCBCA
:103EBC000C600B0D0A0051554555453A2063616E57
:103ECC002774207065656B206974656D2066726F50
:103EDC006D2071756575653A20717565756520691C
:103EEC007320656D7074792E0051554555453A20F7
:103EFC00696E73756666696369656E74206D656D50
:103F0C006F727920746F2063726561746520612013
:103F1C006E6577206E6F64652E00203A20496E74B2
:103F2C006572727570746F72202D2D3E2000424F99
:103F3C0054D34E203100424F54D34E203200502ED9
:103F4C00204F70740050495200504F542031005093
:103F5C004F5420320050485F52455300532E544565
:103F6C004D500050485F54544F520056616C6F7264
:103F7C00204D425F544D505F5049523A2025640009
:00000001FF
