:100000000C944A010C9472010C9472010C947201CC
:100010000C9472010C9472010C9472010C94720194
:100020000C9472010C9472010C9472010C94720184
:100030000C9472010C9472010C9472010C94720174
:100040000C946C130C9472010C94DC130C94B61386
:100050000C9472010C9472010C9472010C94720154
:100060000C9472010C94720150313020476172611E
:100070006A6500503130205065727369616E6100AD
:100080005030392053656C656363696F6E616461DC
:10009000202D2D3E2053656E736F72657320416E67
:1000A000616CF36769636F732028416C6C290050A1
:1000B00030372053656C656363696F6E61646120DE
:1000C0002D2D3E2053656E736F72204D6F76696DD6
:1000D00069656E746F2028504952290050362049B6
:1000E0004E544552525550544F522053656C6563DF
:1000F00063696F6E61646F00503520494E544552FC
:10010000525550544F522053656C656363696F6E4E
:1001100061646F00503420434F4E4D555441444F5D
:10012000522053656C656363696F6E61646F005044
:100130003420494E544552525550544F5220536525
:100140006C656363696F6E61646F00503420505555
:100150004C5341444F5245532053656C656363696A
:100160006F6E61646F2000503320434F4E4D5554E5
:1001700041444F522053656C656363696F6E6164DF
:100180006F00503120434F4E4D555441444F522043
:1001900053656C656363696F6E61646F00503120F5
:1001A000494E544552525550544F522053656C6538
:1001B0006363696F6E61646F0050312050554C531A
:1001C00041444F5245532053656C656363696F6EBC
:1001D00061646F004F4646004F4E00202D2D3E209B
:1001E00050756C7361646F00202D2D3E20536F6C31
:1001F0007461646F004F4646004F4E00436F6E6D52
:10020000757461646F72202D2D3E20004153594E4C
:1002100057414954205445524D494E41444F005096
:100220003130205045525349414E412059204741D9
:1002300052414A450000000000240027002A000027
:10024000000000250028002B0000000000230026ED
:10025000002900040404040404040402020202024B
:10026000020303030303030102040810204080017A
:1002700002040810200102040810200000000800F9
:10028000020100000304070000000000000000005D
:10029000DB15881911241FBECFEFD8E0DEBFCDBF1C
:1002A00025E0A0E0B2E001C01D92A53FB207E1F752
:1002B00012E0A0E0B1E0EAEBF1E402C005900D929B
:1002C000A030B107D9F711E0C9E4D1E004C021970B
:1002D000FE010E94371CC834D107C9F70E94C41719
:1002E0000C94D0200C9400008F929F92AF92BF92FA
:1002F000CF92DF92EF92FF92CF93DF93EC01E881F0
:10030000F98161817281072E000C880B990B0E9484
:100310009F192FEF3FEF4FE95BE30E94FE1920E0AA
:1003200030E040E05FE30E94091B20E030E048EC51
:1003300052E40E94FE194B015C010E94E81B6B0114
:10034000072E000C880B990B0E949F199B01AC0192
:10035000C501B4010E94091B20E030E048EC52E4E2
:100360000E94FE190E94E81B623371055CF08FEF5A
:10037000C81AD80AB601DD0C880B990B0E949F1988
:100380004B015C010C80DD81C02DC501B4010E94D0
:10039000E81B18826983DF91CF91FF90EF90DF9087
:1003A000CF90BF90AF909F908F900895833081F051
:1003B00028F4813099F08230A9F008958730A9F0AF
:1003C0008830C9F08430B1F4809180008F7D03C003
:1003D000809180008F7780938000089584B58F7717
:1003E00084BD089584B58F7DFBCF8091B0008F7759
:1003F0008093B00008958091B0008F7DF9CF0F9366
:100400001F93CF93DF93FC012581222309F455C06C
:10041000EC0186819781009731F0019709F437C08C
:1004200090E080E023C0208130E0F901E558FD4FE5
:100430008491F901E959FD4F0491F901ED5AFD4FFD
:100440001491112369F381110E94D601E12FF0E08C
:10045000EE0FFF1FE75BFD4FA591B491EC910E23CA
:1004600031E020E009F430E0832F922F29813A8196
:100470002817390711F19A838983E889F989309718
:10048000E1F0CE01DF91CF911F910F91099480810E
:100490008E3008F08E508770806480937C0080914D
:1004A0007A00806480937A0080917A0086FDFCCF88
:1004B0008091780090917900D9CFDF91CF911F91F1
:1004C0000F910895CF93DF93EC01888199810E9469
:1004D000FF01EC81FD81A881B98111968D919C91DC
:1004E000208131812817390751F091838083EE856F
:1004F000FF85309721F0CE01DF91CF910994DF91F4
:10050000CF9108951F93CF93DF93282F30E0F90107
:10051000E558FD4F8491F901E959FD4FD491F90156
:10052000ED5AFD4FC491CC23A9F0162F81110E94E2
:10053000D601EC2FF0E0EE0FFF1FE15CFD4FA5911F
:10054000B4918FB7F894EC91111108C0D095DE23C7
:10055000DC938FBFDF91CF911F910895DE2BF8CFF1
:10056000CF93DF9390E0FC01E959FD4F24918D5A20
:100570009D4FFC0184918823D1F090E0880F991F52
:10058000FC01EB5CFD4FA591B491FC01E15CFD4FDA
:10059000C591D49161110EC09FB7F8948C91E22F50
:1005A000E0958E238C932881E223E8839FBFDF911F
:1005B000CF9108958FB7F894EC91E22BEC938FBF15
:1005C000F6CF3FB7F8948091240290912502A09134
:1005D0002602B091270226B5A89B05C02F3F19F02F
:1005E0000196A11DB11D3FBFBA2FA92F982F8827B3
:1005F000BC01CD01620F711D811D911D42E0660F8E
:10060000771F881F991F4A95D1F708958F929F925F
:10061000AF92BF92CF92DF92EF92FF924B015C01BB
:100620000E94E1026B017C010E94E1026C197D09CC
:100630008E099F09683E734081059105A8F321E06A
:10064000821A9108A108B10888EEC80E83E0D81E6E
:10065000E11CF11C81149104A104B10429F7FF905D
:10066000EF90DF90CF90BF90AF909F908F900895C4
:100670000F931F93CF93DF938C01C62F8091F802C5
:10068000823074F09091C00090649093C00061E05B
:100690000E94820261E070E080E090E00E94060328
:1006A000902FF8012FEF3FEF8191282788E0A901D3
:1006B0004170552736952795452B21F041E0242799
:1006C00040EA3427815099F78E2F891B8C1760F3ED
:1006D000322723273227F801EC0FF11D3083E1E0A8
:1006E000EC0FE00FF12FF11D2083CE5F80912802E7
:1006F00090912902D0E0DC01ED91FC910280F38120
:10070000E02DAE01B80109956AE070E080E090E06C
:100710000E9406038091F80282303CF09091C00064
:1007200096FFFCCF60E00E948202CE01DF91CF9164
:100730001F910F9108950F931F93CF93DF93CDB720
:10074000DEB7C054D1090FB6F894DEBF0FBECDBFDF
:100750009091F70299838A8381E08B83DB01AA0F52
:10076000BB1FA20FB31FCB0120E0460F572F511D17
:10077000382F361B8417950770F40D911D91E1E019
:10078000F0E0012B09F4E0E001C0EE0F3A95EAF742
:100790002E2B0196EDCF2C8364E0CE0101960E94B2
:1007A0003803C05CDF4F0FB6F894DEBF0FBECDBF7D
:1007B000DF91CF911F910F910895EF92FF920F93C8
:1007C0001F93CF93DF93CDB7DEB7C054D1090FB6D7
:1007D000F894DEBF0FBECDBF9091F70299838A8354
:1007E000842F880F8B83CB01880F991F280F391F07
:1007F000DE0111967B0163E070E0CD014E0D5F2DAF
:10080000511D1296E416F50688F4F9011081018154
:100810002E5F3F4F11960C93119712961C931297CF
:100820006E5F7F4FFFEFEF1AFF0AEBCF0E94380396
:10083000C05CDF4F0FB6F894DEBF0FBECDBFDF91B7
:10084000CF911F910F91FF90EF9008952FB7F894DB
:1008500060912002709121028091220290912302E6
:100860002FBF0895AF92BF92CF92DF92EF92FF9287
:100870000F931F93CF93DF936C017B018B01040FC8
:10088000151FEB015E01AE18BF08C017D10759F064
:100890006991D601ED91FC910190F081E02DC601A6
:1008A0000995892B79F7C501DF91CF911F910F91A0
:1008B000FF90EF90DF90CF90BF90AF900895FC0134
:1008C000538D448D252F30E0842F90E0821B930BB5
:1008D000541710F0CF96089501970895FC01918D5B
:1008E000828D981761F0A28DAE0FBF2FB11D5D965E
:1008F0008C91928D9F5F9F73928F90E008958FEF00
:100900009FEF0895FC01918D828D981731F0828DB3
:10091000E80FF11D858D90E008958FEF9FEF08950A
:10092000FC01918D228D892F90E0805C9F4F821B6E
:1009300091098F73992708958AE292E00E949004AA
:1009400021E0892B09F420E0822F089580E090E0D7
:10095000892B29F00E949C0481110C9400000895B9
:10096000FC01A48DA80FB92FB11DA35ABF4F2C9124
:10097000848D90E001968F739927848FA689B7891B
:100980002C93A089B1898C91837080648C93938D12
:10099000848D981306C00288F389E02D80818F7DB5
:1009A00080830895EF92FF920F931F93CF93DF936D
:1009B000EC0181E0888F9B8D8C8D98131AC0E8899B
:1009C000F989808185FF15C09FB7F894EE89FF896A
:1009D0006083E889F98980818370806480839FBF08
:1009E00081E090E0DF91CF911F910F91FF90EF9008
:1009F0000895F62E0B8D10E00F5F1F4F0F73112718
:100A0000E02E8C8D8E110CC00FB607FCFACFE88952
:100A1000F989808185FFF5CFCE010E94B004F1CF26
:100A2000EB8DEC0FFD2FF11DE35AFF4FF0829FB7C6
:100A3000F8940B8FEA89FB8980818062CFCF0F9376
:100A40001F93CF93DF938C01D0E0C0E0F801EC0F4F
:100A5000FD1F6491662341F08AE292E00E94D20475
:100A6000892B11F02196F2CFCE01DF91CF911F910A
:100A70000F910895CF93DF93EC01888D8823B9F00F
:100A8000AA89BB89E889F9898C9185FD03C0808199
:100A900086FD0DC00FB607FCF7CF8C9185FFF2CF16
:100AA000808185FFEDCFCE010E94B004E9CFDF91B8
:100AB000CF9108951F93CF93DF93FC0121812617D7
:100AC00031F0162FEC0180810E9482021983DF91A0
:100AD000CF911F9108958F929F92AF92BF92CF9224
:100AE000DF92EF92FF92019709F074C00E942604F2
:100AF000C0901704D0901804E0901904F0901A04E4
:100B00006C197D098E099F090E949D19209123046B
:100B10003091240440912504509126040E940A1B20
:100B200060932304709324048093250490932604F7
:100B3000C0902304D0902404E0902504F090260473
:100B4000609113047091140480911504909116041F
:100B50000E949D194B015C01AC019B01C701B601CC
:100B60000E941E1C18160CF052C080922304909212
:100B70002404A0922504B092260420E030E048EC42
:100B800052E4609123047091240480912504909193
:100B900026040E94FE1920E030E041EE55E40E9458
:100BA000761B0E94E81B7093D2026093D1020E94D0
:100BB000260460931704709318048093190490938B
:100BC0001A04FF90EF90DF90CF90BF90AF909F906E
:100BD0008F9008950E942604C0901704D0901804A6
:100BE000E0901904F0901A046C197D098E099F0990
:100BF0000E949D199B01AC01609123047091240413
:100C000080912504909126040E94091B89CF20E041
:100C100030E0A901C701B6010E94981987FFADCF46
:100C200080E090E0A0E2B1E4809323049093240458
:100C3000A0932504B0932604A0CFCF92DF92EF9229
:100C4000FF920F931F93CF93DF93C0911F04D09116
:100C50002004C130D10599F180F0C230D10509F4EA
:100C600075C0239709F4B8C0DF91CF911F910F9100
:100C7000FF90EF90DF90CF9008958091290490919C
:100C80002A041816190684F761E08DEE95E00E949B
:100C90005A0561E08FEE95E00E945A0581E090E0F0
:100CA0009093200480931F040E94260460931704ED
:100CB000709318048093190490931A04D5CFC090B0
:100CC0001304D0901404E0901504F09016040E94D0
:100CD00026040091170410911804209119043091F2
:100CE0001A04601B710B820B930B6C157D058E052E
:100CF0009F0500F160E08DEE95E00E945A0560E0EE
:100D00008FEE95E00E945A058091290490912A0463
:100D1000892B81F483E090E09093200480931F045A
:100D20000E9426046093170470931804809319049A
:100D300090931A0481E090E0DF91CF911F910F9181
:100D4000FF90EF90DF90CF900C946B058091290479
:100D500090912A040197A1F40E942604609317043D
:100D6000709318048093190490931A0483E090E020
:100D70009093200480931F04D0932204C0932104F5
:100D8000C0901304D0901404E0901504F090160461
:100D90000E94260400911704109118042091190450
:100DA00030911A04601B710B820B930B6C157D053F
:100DB0008E059F0570F01092200410921F0460E0D1
:100DC0008DEE95E00E945A0560E08FEE95E00E945E
:100DD0005A0590E080E0B0CFC0901B04D0901C0476
:100DE000E0901D04F0901E040E9426040091170458
:100DF000109118042091190430911A04601B710B92
:100E0000820B930B6C157D058E059F0508F42CCF86
:100E100080912104909122048230910589F461E04F
:100E20008DEE95E00E945A0561E08FEE95E00E94FC
:100E30005A0581E090E09093200480931F0414CF22
:100E4000019709F011CF61E08DEE95E00E945A05FF
:100E500060E08FEE95E00E945A0582E090E0EBCFD3
:100E6000CF93DF93C0911F04D0912004C130D105EE
:100E700009F458C058F0C230D10509F47EC0C3301F
:100E8000D10509F4BAC0DF91CF91089580913F0454
:100E9000909140042091290430912A04232B09F5D4
:100EA000892B89F361E08DEE95E00E945A0561E09F
:100EB0008FEE95E00E945A0583E090E09093200425
:100EC00080931F049093D4028093D3020E9426043F
:100ED00060931704709318048093190490931A0474
:100EE000D2CF892B81F661E08DEE95E00E945A0504
:100EF00060E08FEE95E00E945A05C2E0D0E0D0930A
:100F00002004C0931F040E9426046093170470936A
:100F100018048093190490931A04D093D402C093B8
:100F2000D302B1CF8091290490912A04892B09F032
:100F3000AACF80913F0490914004892B09F0A3CF60
:100F400060E08DEE95E00E945A0560E08FEE95E03E
:100F50000E945A051092200410921F040E94260439
:100F600060931704709318048093190490931A04E3
:100F70001092D4021092D30286CF809129049091CE
:100F80002A04892BF1F480913F049091400460E0A1
:100F9000892BE9F08DEE95E00E945A0560E08FEE16
:100FA00095E00E945A0581E090E0909320048093A0
:100FB0001F04D0932204C09321049093D402809301
:100FC000D30290E080E0DF91CF910C946B058DEE21
:100FD00095E00E945A0560E08FEE95E00E945A0568
:100FE0001092200410921F04D0932204C093210475
:100FF0001092D4021092D302E4CF80913F049091DA
:1010000040042091290430912A04232BD9F4892B00
:10101000B1F460E08DEE95E00E945A0560E08FEE3D
:1010200095E00E945A051092200410921F04D0935C
:101030002204C09321041092D4021092D30281E0C2
:1010400090E0C1CF892BD9F760E08DEE95E00E944A
:101050005A0560E08FEE95E00E945A0581E090E02D
:101060009093200480931F04D0932204C093210402
:101070009093D4028093D302E2CF8091D5029091D5
:10108000D6020F9710F00C941D060C943007DC016B
:10109000ED91FC9123813481818192812817390758
:1010A00081F48081833031F410922A041092290453
:1010B0000C9430078A30E1F71092400410923F04FC
:1010C000F7CFA091F704B091F8048D919C91892BF2
:1010D00079F78081833039F481E090E090932A049D
:1010E00080932904E5CF8A3019F781E090E090934E
:1010F000400480933F04DCCFDC01ED91FC9123811F
:101100003481818192812817390729F410922A04A9
:1011100010922904089581E090E090932A0480932E
:1011200029040895CF93DF93DC01ED91FC91119791
:1011300054960D90BC91A02D218132818D919C916E
:101140008217930720F080859185892B31F481E007
:1011500090E090932A0480932904DF91CF910C941E
:101160001D068091D5029091D6028035910580F4BC
:101170008FEF94E00E94FF0189E195E00E94FF015A
:1011800083E395E00E94FF018DE495E00C94FF015C
:1011900087E294E00E9462028DE394E00E94620282
:1011A00083E594E00E94620289E694E00E94620274
:1011B0008FE794E00E94620285E994E00E94620257
:1011C0008BEA94E00E94620281EC94E00E94620249
:1011D00087ED94E00C946202FB0101900020E9F796
:1011E0003197AF01461B570BDC01ED91FC9102805A
:1011F000F381E02D0994CF93DF930E941F05EC014A
:1012000063E371E08AE292E00E94EC088C0F9D1F7C
:10121000DF91CF9108950F931F93CF93DF93EC014C
:101220000E94EC088C0163E371E0CE010E94EC089F
:10123000800F911FDF91CF911F910F9108950F9310
:101240001F93CF93DF938C01EB018AE292E00E941F
:101250000B09F80180819181009739F0BE01DF917F
:10126000CF911F910F910C940B09DF91CF911F919A
:101270000F910895EF92FF920F931F93CF93DF93F7
:101280008C01D62FC0E0D80112968D919C911397B6
:10129000C8171906E4F41496ED91FC91E080F180F2
:1012A00080E0309759F466E371E0C8010E941F099D
:1012B0006D2FC7010E945A05CF5FE5CFC817C1F354
:1012C0000280F381E02DE080F1808F5FF7CFDF9126
:1012D000CF911F910F91FF90EF900895CF93DF93DF
:1012E000EC014B815C8129813A814217530771F5EA
:1012F0008CEF91E00E941F058091170290911802D7
:10130000892BE9F481E090E0909318028093170212
:1013100089EF91E00E94FB088C899D8918161906B7
:10132000ACF461E08091170290911802892B09F4C6
:1013300060E0CE014296DF91CF910C943A09109271
:1013400018021092170285EF91E0E4CFDF91CF9160
:101350000895CF93DF93EC014E855F856A857B8589
:101360008AE292E00E9432042B813C8189819A8139
:1013700028173907C1F488EE91E00E94FB088C8998
:101380009D891816190694F461E02B813C818981AE
:101390009A812817390709F460E0CE014296DF915F
:1013A000CF910C943A098BED91E0E7CFDF91CF918B
:1013B0000895BF92CF92DF92EF92FF920F931F9307
:1013C000CF93DF938C016B01D0E0C0E0862F81705A
:1013D000B82ED80112968D919C911397C817D907F2
:1013E000ACF59C2F1496ED91FC91E080F18080E0AB
:1013F000309719F566E371E0C8010E941F09D70113
:101400001296ED91FC91208131816B2DB2E0CB16CB
:10141000D10429F461E02115310509F060E0862F3F
:1014200090E08217930739F091838083F7018081E0
:1014300091810E945A052196CCCF891700F702802E
:10144000F381E02DE080F1808F5FF7CFDF91CF91C6
:101450001F910F91FF90EF90DF90CF90BF90089574
:10146000CF93DF93EC01E881F981AC89BD8941819B
:1014700052812D913C912417350790F020853185BC
:10148000232B59F461E070E006960E94D909E881A7
:10149000F98181E090E091878087DF91CF91089575
:1014A00011861086FACFCF93DF93EC01EC89FD898A
:1014B00040815181EA89FB892081318124173507D8
:1014C00074F1E881F981808591858130910541F041
:1014D0008230910599F01092E2021092E1020BC065
:1014E0002181328142175307B4F061E070E0CE01F0
:1014F00006960E94D90982E090E00DC04181528198
:101500004217530744F070E060E0CE0106960E9457
:10151000D90981E090E0E881F98191878087DF91A6
:10152000CF910895CF92DF92EF92FF920F931F9386
:10153000CF93DF938C01DC01ED91FC9111975096D4
:10154000CD91DC91238134818181928128173907E3
:10155000B9F00E9426046A837B838C839D8381E09B
:101560008983188261E070E0C8010696DF91CF910F
:101570001F910F91FF90EF90DF90CF900C94D909BD
:101580008981882361F10E942604CA80DB80EC8077
:10159000FD806C157D058E059F05A8F5C094D0943F
:1015A000E094F0946C0D7D1D8E1D9F1DEE81FF81DA
:1015B0004081518128EE33E0429F6001439FD00C6F
:1015C000529FD00C1124F12CE12C6C157D058E0559
:1015D0009F05F0F019821A821B821C821D82D8019D
:1015E0005096ED91FC918081811112C08CE092E0C7
:1015F0000E94FB08D8015096ED91FC9181E0808318
:1016000070E060E0B1CF6C197D098E099F09CECFE3
:10161000DF91CF911F910F91FF90EF90DF90CF90CE
:101620000895DC01ED91FC91438154812181328147
:101630004217530729F462E070E006960C94D9092A
:1016400008950C94110B0F931F93CF93DF93D0E069
:10165000C0E08091170390911803C817D9070CF5C3
:101660009C2FE0911903F0911A030081118180E011
:10167000309771F466E371E085E193E00E941F0901
:10168000D8011E96ED91FC91C80109952196E1CFF4
:101690008917B0F70280F381E02D008111818F5FFF
:1016A000F7CFDF91CF911F910F910895EF92FF92A5
:1016B0000F931F93CF93DF93EC017B010E811F816A
:1016C00084E090E00E943D1C9F838E83892B29F447
:1016D00069E671E0CE010E941F09EE81FF8113824D
:1016E0001282F182E0828C819D81892B71F4FD83CD
:1016F000EC838A819B8101969B838A83DF91CF91C2
:101700001F910F91FF90EF900895D8011396FC93CD
:10171000EE931297EECFEF92FF920F931F93CF931A
:10172000DF93EC017B010E811F8184E090E00E9439
:101730003D1C9F838E83892B29F469E671E0CE01DD
:101740000E941F09EE81FF8113821282F182E082E2
:101750008C819D81892B71F4FD83EC838A819B812F
:1017600001969B838A83DF91CF911F910F91FF9008
:10177000EF900895D8011396FC93EE931297EECF55
:101780000F931F93CF93DF938C01C0911303D091DC
:10179000140384E090E00E943D1C90931403809316
:1017A0001303892B31F469E671E08DE093E00E9428
:1017B0001F09E0911303F091140313821282118325
:1017C00000838091110390911203892B91F4F0937F
:1017D0001203E093110380910F039091100301967F
:1017E0009093100380930F03DF91CF911F910F917E
:1017F0000895FB83EA83EFCFCF93DF93EC012B8136
:101800003C8189819A8128173907D1F44E855F85FB
:101810006A857B858AE292E00E9432046AE971E07F
:101820008AE292E00E94EC0888859985892BC9F4A8
:1018300081E090E09987888788ED91E00E94FB081D
:101840008C899D89181619068CF461E08885998524
:10185000892B09F460E0CE014296DF91CF910C9480
:101860003A091986188684ED91E0E8CFDF91CF918F
:1018700008950F931F93CF93DF93EC018C819D818B
:10188000009769F0FC01028113810E94D91C1D831D
:101890000C838A819B8101979B838A83EFCF81E0B0
:1018A000DF91CF911F910F910895CF93DF93EC01BA
:1018B00044960E94390C1B8A1A8ACE018E960E9489
:1018C000390C1DA61CA6CE01885B9F4F0E94390CC7
:1018D000FE01EA5BFF4F11821082CE018E599F4FAD
:1018E0000E94390CFE01E05AFF4F118210827A9655
:1018F00011821082CE0184589F4F0E94390CFE0144
:10190000EC56FF4F11821082CE018A569F4FDF9115
:10191000CF910C94390C0F931F93CF93DF93EC016D
:101920008C819D81009769F0FC01028113810E94E6
:10193000D91C1D830C838A819B8101979B838A8399
:10194000EFCF81E0DF91CF911F910F910895CF9359
:10195000DF93EC011092200410921F04805F9E4FD1
:101960000E948B0CFE01E85EFE4F118210823C97B4
:1019700011821082CE018A5D9E4F0E948B0CFE0167
:10198000E25DFE4F118210823C9711821082CE01DF
:10199000845C9E4F0E948B0CFE01EC5BFE4F11821B
:1019A0001082CE018E5A9E4F0E948B0CFE01E65A89
:1019B000FE4F11821082769611821082CE018859D4
:1019C0009E4F0E948B0CFE01EA57FE4F118210823F
:1019D000CE0182589E4F0E948B0CFE01E456FE4FB2
:1019E00011821082CE018C569E4F0E948B0CFE01FC
:1019F000E853FE4F11821082CE0180549E4FDF913A
:101A0000CF910C948B0CCF93DF938DEF94E00E94D9
:101A1000550C8DE193E00E94A70C809119039091E1
:101A20001A03009799F0FC01C281D3810E94D91C4E
:101A3000D0931A03C0931903809117039091180350
:101A400001979093180380931703E7CFDF91CF910D
:101A500008950E94030D8BED92E09093C004809353
:101A6000BF0489ED92E09093BE048093BD0483E5AA
:101A70009AE09093BA048093B90461EF74E081EB2B
:101A800094E00E94560B8DED92E09093EC048093CD
:101A9000EB0480E39AE09093E6048093E5046DEE16
:101AA00074E08DED94E00E94560B10922004109289
:101AB0001F0487E498E090933604809335041092D5
:101AC0002A041092290490934C0480934B041092A2
:101AD000400410923F0481E29BE090936204809363
:101AE00061046DEE74E089E594E00C94560B0F935D
:101AF0001F93CF93DF93EC010C811D81012B51F0DB
:101B00008C819D81FC01028113810E94D91C1D835F
:101B10000C83F4CFDF91CF911F910F910895CF9354
:101B2000DF93EC0142960E94770D8A859B85009792
:101B300021F0DF91CF910C94D91CDF91CF910895C2
:101B4000CF93DF93EC0181E191E099838883CE010B
:101B50008E529F4F0E948F0DCE0188549F4F0E943E
:101B60008F0DCE0182569F4F0E948F0DCE018C5754
:101B70009F4F0E948F0DCE0186599F4F0E948F0D5F
:101B8000CE01805B9F4F0E948F0DCE01C6960E94B2
:101B90008F0DCE014C960E948F0DCE010296DF91E3
:101BA000CF910C948F0DCF93DF93EC010E94A00D89
:101BB000CE01DF91CF910C94D91CCF93DF93EC0130
:101BC0008DE291E099838883CE0180549E4F0E94DC
:101BD000770DCE0186559E4F0E94770DCE018C5613
:101BE0009E4F0E94770DCE0182589E4F0E94770D26
:101BF000CE0188599E4F0E94770DCE018E5A9E4F7E
:101C00000E94770DCE01845C9E4F0E94770DCE011D
:101C10008A5D9E4F0E94770DCE01805F9E4F0E948D
:101C2000770DCE01DF91CF910C94A00DCF93DF9370
:101C3000EC010E94DD0DCE01DF91CF910C94D91CF7
:101C40001F93CF93DF93EC01162F0E94BC1A181735
:101C500039F0612FCE01DF91CF911F910C94C41AFE
:101C6000DF91CF911F910895CF93DF93D0E0C0E033
:101C7000FE013197E730F10558F4EF5BF14F0C941A
:101C8000371C5B0E660E780E880EAD0E980EC10ED8
:101C900061E08091DF029091E002892B09F460E01D
:101CA00089EE95E00E945A052196C830D10501F7CA
:101CB000DF91CF91089561E08091E1029091E2027D
:101CC000892B09F460E08BEE95E0ECCF61E0809128
:101CD000E3029091E402892B09F460E0E091690449
:101CE000F0916A04658381E090E00E94200EDCCFD1
:101CF00061E08091E5029091E602892B09F460E0B1
:101D0000E091AB04F091AC04658384E090E0EDCF0A
:101D100061E08091E7029091E802892B09F460E08C
:101D2000E091D704F091D804658389E090E0DDCF9D
:101D30008091EB029091EC02009741F4E09127042E
:101D4000F091280421813281232B21F490932A04DD
:101D5000809329040E943007A7CF8091E9029091D7
:101D6000EA02009749F4E0913D04F0913E0421819C
:101D70003281232B09F098CF9093400480933F0445
:101D800093CF8091ED029091EE02009741F4E091A3
:101D90002704F091280421813281232B21F4909390
:101DA0002A04809329040E941D067ECF0C94BC1A3D
:101DB0002F923F924F925F926F927F928F929F925B
:101DC000AF92BF92CF92DF92EF92FF920F931F9349
:101DD000CF93DF93CDB7DEB7C456D1090FB6F894D1
:101DE000DEBF0FBECDBFF12CE12C0EE619E0CE0117
:101DF00001964C0141E2C42E4BE0D42E53E5252E32
:101E00005AE0352E6DED462E62E0562E72E9672EB1
:101E100078E0772E92E0E916F10409F489C20CF01B
:101E200043C0B1E0EB16F10409F475C26091D5022C
:101E300090E080E00E94200E8091D50290911002E7
:101E4000891789F080931002833409F422C108F0C5
:101E50006CC0833109F4DCC0E0F5813109F4A2C023
:101E6000823109F4B4C0BFEFEB1AFB0A25E0E21699
:101E7000F10481F6CC59DF4F0FB6F894DEBF0FBEE8
:101E8000CDBFDF91CF911F910F91FF90EF90DF9029
:101E9000CF90BF90AF909F908F907F906F905F900A
:101EA0004F903F902F90089523E0E216F10409F43B
:101EB0004AC284E0E816F10409F0B8CF6091DE026E
:101EC0008AE090E00E94200E6091DD028BE090E0BD
:101ED0002CC2813409F4AFC008F0D0C0823319F6A7
:101EE00087E691E00E94FB080E94030D1093100505
:101EF00000930F0569EE75E081E195E00E948B0B80
:101F000010932A050093290569EE75E08BE295E0B0
:101F10000E948B0B109344050093430569EE75E016
:101F200085E495E00E948B0B9ECF803709F403C1B6
:101F300048F5843509F4E0C0823609F094CF8CED81
:101F400090E00E94FB080E94030D81E1A82E8BE027
:101F5000B82EB0923604A092350461EF74E08DE2A1
:101F600094E00E94560BB0924C04A0924B046DEE8C
:101F700074E083E494E00E94560BB0926204A09255
:101F8000610471CF803A09F48CC1813A09F490C19F
:101F9000803909F068CF80E890E00E94FB080E9439
:101FA000290D61CF89EB91E00E94FB080E94030D8F
:101FB00089EA99E09093100580930F0590932A0584
:101FC0008093290590934405809343054CCF8DE978
:101FD00091E00E94FB080E94030D8CEF9BE0909320
:101FE000100580930F051092080510920705909335
:101FF0002A058093290510922205109221059093BD
:1020000044058093430510923C0510923B052BCF6D
:1020100082E891E00E94FB080E94030D10931005D6
:1020200000930F0510932A0500932905109344058A
:102030000093430518CF8BE491E00E94FB080E94B7
:10204000030D39EAA32E39E0B32EB0921005A09209
:102050000F0569EE75E081E195E00E948B0BB0926F
:102060002A05A09229056BEE75E08BE295E00E94AF
:102070008B0BB0924405A0924305F5CE8FE291E020
:102080000E94FB080E94030D2CEFA22E2BE0B22E23
:10209000DCCF84E191E00E94FB080E94030D1093C5
:1020A000100500930F0569EE75E081E195E00E944F
:1020B0008B0B6BEE75E081E195E00E948B0B10932A
:1020C0002A050093290569EE75E08BE295E00E94F0
:1020D0008B0B6BEE75E08BE295E00E948B0B1093FF
:1020E00044050093430569EE75E085E495E00E94A0
:1020F0008B0B6BEE75E014CF88EF90E00E94FB082D
:102100000E94030D91E1A92E9BE0B92EB0923604F6
:10211000A09235046DEE74E08DE294E00E94560BBF
:10212000B0924C04A0924B0461EF74E083E494E01D
:102130000E94560B98CE8FEA90E00E94FB08809197
:10214000080281110DC01092010210920202109239
:102150000302109204021092050281E080930802AB
:102160000E94030DE0916904F0916A0415821092B7
:10217000E4021092E3028091D8028F938091D702FB
:102180008F93ABEEB1E0BF93AF939F928F920E947B
:102190002F1EB4018AE292E00E940B0987ED92E0C3
:1021A00090930702809306020E9426046093020225
:1021B00070930302809304029093050281E0809360
:1021C000010210920002A0E0B2E0B0937A04A09362
:1021D000790482E99AE0909378048093770461EF20
:1021E00074E08FE694E00E94560BD0923604C092C1
:1021F00035046DEE74E08DE294E00E94560BD092AF
:102200004C04C0924B046DEE74E083E494E00E94B1
:10221000560BD0926204C09261046DEE74E089E5C1
:1022200094E00E94560BA0901B03B0901C0384E026
:1022300090E00E943D1C90931C0380931B030F9021
:102240000F900F900F900F900F90892B31F469E64B
:1022500071E085E193E00E941F09E0911B03F0917A
:102260001C0313821282A9E6B4E0B183A08380919B
:10227000190390911A03892B71F4F0931A03E093D8
:1022800019038091170390911803019690931803F6
:1022900080931703E8CDD5011396FC93EE93129724
:1022A000F0CF83E790E00E94FB080E94290DDBCD70
:1022B00088E690E00E94FB080E94030D8BED92E0FF
:1022C0009093C0048093BF04A9EDB2E0B093BE0424
:1022D000A093BD043092BA042092B90461EF74E077
:1022E00081EB94E00E94560B5092EC044092EB0478
:1022F0007092E6046092E5041092200410921F048C
:102300008CE798E0909336048093350410922A0469
:1023100010922904A8CD6091D80282E090E00E943A
:10232000200E6091D70283E090E00E94200E9BCDAA
:102330006091DA0285E090E00E94200E6091D9025F
:1023400086E090E0F2CF6091DC0287E090E00E94AE
:10235000200E6091DB0288E090E0E7CFCF92DF9221
:10236000EF92FF920F931F93CF93DF93CDB7DEB71A
:10237000C854D1090FB6F894DEBF0FBECDBF80910F
:10238000280290912902DC01ED91FC910084F185F5
:10239000E02D09958C010E94E10201151105A1F4BF
:1023A0001092160210921502C85BDF4F0FB6F89418
:1023B000DEBF0FBECDBFDF91CF911F910F91FF9078
:1023C000EF90DF90CF900895209115023091160282
:1023D00002171307C9F0109316020093150200911B
:1023E000090310910A0320910B0330910C03600F35
:1023F000711F821F931F60931102709312028093CA
:10240000130290931402D0CF009111021091120286
:10241000209113023091140260177107820793070D
:1024200018F21092160210921502FE0131967F01E9
:102430006F0110E000E08091280290912902DC01F8
:10244000ED91FC910084F185E02D0995892BC1F077
:102450008091280290912902DC01ED91FC91028487
:10246000F385E02D0995F60181936F010F5F1F4FF2
:102470000034110501F70E94340E0E94D80E94CF4B
:102480000115110509F490CF3EEF300FF7018FEFE2
:102490009FEF2E2F2E19231788F42191822728E0F1
:1024A000AC014170552796958795452B21F041E069
:1024B000842740EA9427215099F7EBCFEFEFFFEF05
:1024C000EC0FFD1FE00FF11F2081FE01E00FF11F57
:1024D00030812327322723279827892798272817F1
:1024E000390749F6E091F7028981E813C4CF9A8150
:1024F000A6E0B1E02DE031E08D91891709F4D5C057
:102500002A173B07C9F781E02296EFAF2297905830
:1025100023969FAF239724968FAF249763E0CE0135
:102520008F5B9F4F0E943803A6CF6D8170E0762F9E
:1025300066274E81640F711D2091030330910403BF
:10254000923031F0913099F52091010330910203DE
:1025500048E061157105E1F146171706C8F14B8196
:10256000A42FB0E0BA2FAA274C814A0F5B2F511D30
:10257000460F571F2417350708F4ACC06B8170E075
:10258000762F66279C81690F711D833009F45AC02C
:1025900008F5813009F449C0823009F06CCF2091F0
:1025A000FB023091FC024E8182E090E045C0209118
:1025B000050330910603933049F030E020E040E01D
:1025C000943039F6209107033091080349E1C1CFD7
:1025D00083E09ACF853009F445C0E8F1863009F0F0
:1025E0004ACF4091FD025091FE022D813E8132275B
:1025F000232732272296EFAF229723968FAF239778
:1026000024967FAF249725966FAF259726963FAFE8
:10261000269727962FAF2797660F771FFA01E60FA9
:10262000F71F3183208366E07ACF2091F902309141
:10263000FA024E8181E090E00E949B03892B09F011
:102640001ACFB2CE2091FD023091FE024E8183E07E
:102650000E94DD03F3CF2091FF02309100034E81F1
:1026600084E0F6CF4091F9025091FA022D813E812B
:102670003227232732272296EFAF229723968FAF58
:10268000239724967FAF249725966FAF259726969C
:102690003FAF269727962FAF2797660F771F640FB8
:1026A000751FDB012D933C93BECF963009F466CFA6
:1026B000953009F03ACF2B8130E0322F22274C8120
:1026C000240F311D40910103509102032417350757
:1026D00008F454CF82E018CF1F920F920FB60F92DA
:1026E00011242F933F938F939F93AF93BF93809128
:1026F000200290912102A0912202B09123023091F8
:102700001F0223E0230F2D3758F50196A11DB11D9F
:1027100020931F028093200290932102A093220213
:10272000B09323028091240290912502A091260269
:10273000B09127020196A11DB11D809324029093B0
:102740002502A0932602B0932702BF91AF919F91DB
:102750008F913F912F910F900FBE0F901F90189562
:1027600026E8230F0296A11DB11DD2CF1F920F9212
:102770000FB60F9211242F933F934F935F936F9354
:102780007F938F939F93AF93BF93EF93FF938AE2CF
:1027900092E00E94B004FF91EF91BF91AF919F91A1
:1027A0008F917F916F915F914F913F912F910F90FA
:1027B0000FBE0F901F9018951F920F920FB60F9299
:1027C00011242F938F939F93EF93FF93E0913A02FD
:1027D000F0913B028081E0914002F091410282FD44
:1027E0001BC09081809143028F5F8F7320914402C0
:1027F000821741F0E0914302F0E0E65DFD4F958FD6
:1028000080934302FF91EF919F918F912F910F90B1
:102810000FBE0F901F9018958081F4CF0F931F93D8
:10282000CF93DF93EC0188819981009759F02A8139
:102830003B812617370730F081E0DF91CF911F9160
:102840000F9108958B016F5F7F4F0E94621D00976B
:1028500059F0998388831B830A832C813D81232B24
:1028600059F7FC011082E8CF80E0E7CFCF93DF93E8
:10287000EC011B861A861D861C861F861E8670E04C
:1028800060E00A960E940E142A853B85811117C0CC
:102890002115310519F0C9010E94D91C1B861A8621
:1028A0001F861E861D861C861D8A1C8A1F8A1E8AFC
:1028B000198E188E1B8A1A8ADF91CF9108951F8670
:1028C0001E8665E371E0C9010E94281EEDCFEF92DC
:1028D000FF920F931F93CF93DF93EC017B01FB01DA
:1028E00001900020E9F731978F01061B170BB80103
:1028F0000E940E1428813981811113C021153105E0
:1029000019F0C9010E94D91C198218821D821C82EB
:102910001B821A82DF91CF911F910F91FF90EF9050
:1029200008951D830C83B701C901DF91CF911F91D9
:102930000F91FF90EF900C94281E3F924F925F9260
:102940006F927F928F929F92AF92BF92CF92DF92BF
:10295000EF92FF920F931F93CF93DF93EC0121E14E
:1029600031E0FC0121933193CF010E943614CE0156
:102970004C960E943614CE01C6960E9436144E0123
:10298000F0E58F0E911CC4010E9436145E018AE6A8
:10299000A80EB11CC5010E9436146E01E4E8CE0EEB
:1029A000D11CC6010E9436147E01FEE9EF0EF11C17
:1029B000C7010E9436143E0188EB680E711CC301EA
:1029C0000E9436142E01E2ED4E0E511CC2010E94EF
:1029D000361460E083E00E94B00260E08AE00E946A
:1029E000B00260E08BE00E94B00260E08DE00E94E7
:1029F000B00261E084E00E94B00261E087E00E94E2
:102A0000B00261E085E00E94B00261E086E00E94D1
:102A1000B00283E08A831C821B821E821D823324C3
:102A200033943F82198618866EEA71E0CE010C96C7
:102A30000E9467141B8A1A8A1B861A868AE08C8F6A
:102A40001E8E1D8E18A21F8E39A21BA21AA266EB23
:102A500071E0CE0186960E9467141DA61CA61DA2D9
:102A60001CA28BE08EAB01E010E018AF0FAB1AAFE9
:102A700009AF3BAE1DAE1CAE6EEB71E0CE01805CCB
:102A80009F4F0E946714FE01EA5BFF4F1182108284
:102A90008DE0F4018083319611821082329611828A
:102AA00010823296308231961182108265EC71E08C
:102AB000CE01865A9F4F0E946714FE01E05AFF4FD5
:102AC0001182108281E1F501808335963082319642
:102AD0001183008369EC71E0CE018C589F4F0E94F6
:102AE000671482E1F6018083359630823196118336
:102AF00000836FEC71E0CE0182579F4F0E946714F4
:102B00008EE0F70180833596308231961183008301
:102B100065ED71E0CE0188559F4F0E94671480E1FA
:102B2000F301808338968FEF9FEF918380833397F3
:102B300030823196118300836CED71E0CE018E53AB
:102B40009F4F0E94671483E1F201808335963082A3
:102B500031961183008363EE71E0CE0184529F4F62
:102B60000E946714FE01E451FF4F84E08083319698
:102B70001082319687E0808331961082319685E00D
:102B8000808331961082319686E08083CD50DF4F6E
:102B90001882DF91CF911F910F91FF90EF90DF90FE
:102BA000CF90BF90AF909F908F907F906F905F90ED
:102BB0004F903F900895CF92DF92EF92FF92EAE21A
:102BC000F2E01382128288EEC82E83E0D82EE12C28
:102BD000F12CC482D582E682F7828BE191E0918369
:102BE000808385EC90E09587848784EC90E09787DC
:102BF000868780EC90E0918B808B81EC90E0938BCA
:102C0000828B82EC90E0958B848B86EC90E0978BA6
:102C1000868B118E128E138E148E8DEF94E00E948F
:102C20009D148DE193E00E949D14ADE1B3E08DE22F
:102C300091E011969C938E931092120410921104BD
:102C40001092300410922F0410923204109231042A
:102C5000109234041092330410922E0410922D041A
:102C600010924604109245041092480410924704B2
:102C700010924A04109249041092440410924304A2
:102C800010925C0410925B0410925E0410925D043A
:102C90001092600410925F0410925A04109259042A
:102CA00010927204109271041092740410927304C2
:102CB00010927604109275041092700410926F04B2
:102CC000109288041092870410928A04109289044A
:102CD00010928C0410928B0410928604109285043A
:102CE00010929E0410929D041092A00410929F04D2
:102CF0001092A2041092A10410929C0410929B04C2
:102D00001092B4041092B3041092B6041092B50459
:102D10001092B8041092B7041092B2041092B10449
:102D20001092CA041092C9041092CC041092CB04E1
:102D30001092CE041092CD041092C8041092C704D1
:102D40001092E0041092DF041092E2041092E10469
:102D50001092E4041092E3041092DE041092DD0459
:102D60008FE193E09093280480932704EFEEF2E044
:102D7000F0932C04E0932B0410922A04109229045F
:102D800013968D919C9114979183808389E393E0AE
:102D900090933E0480933D0481EF92E0909342042F
:102DA000809341041092400410923F045D968D91EF
:102DB0009C915E979383828383E593E09093540480
:102DC0008093530483EF92E09093580480935704C8
:102DD000D7968D919C91958384838DE693E0909313
:102DE0006A048093690410927203AFEDB2E0159605
:102DF0001C921E92149785EF92E090936E0480933C
:102E00006D0480916E0390916F0397838683E5ED47
:102E1000F2E083E090E09383828387E893E09093ED
:102E2000800480937F0487EC92E0909384048093E5
:102E3000830481EA93E0909396048093950489EC4F
:102E400092E090939A04809399048BEB93E0909393
:102E5000AC048093AB048BEC92E09093B00480932D
:102E6000AF0485ED93E09093C2048093C1048DEC90
:102E700092E09093C6048093C50484E791E0909318
:102E8000D0048093CF048FEE93E09093D804809386
:102E9000D7048FEC92E09093DC048093DB0489E00C
:102EA00094E09093EE048093ED04B093F004A0932B
:102EB000EF048BE094E09093F2048093F10481EEB0
:102EC00092E09093F4048093F3048DE094E0909367
:102ED000F6048093F50489EE92E09093F8048093D1
:102EE000F7048FE094E09093FA048093F9048BEE5A
:102EF00092E09093FC048093FB041586148680E294
:102F00009CE1A0E0B0E08093130490931404A0939C
:102F10001504B0931604C0921B04D0921C04E092D6
:102F20001D04F0921E04E5E1F3E013821282158283
:102F300014821782168211821082EDE0F3E0138270
:102F40001282158214821782168211821082E7EF94
:102F5000F2E0138212821582148217821682118681
:102F60001086138612861586148617861686118A91
:102F7000108A11821082128A138A148A158AFF908D
:102F8000EF90DF90CF900895789484B5826084BDEF
:102F900084B5816084BD85B5826085BD85B581605D
:102FA00085BD80916E00816080936E0010928100DB
:102FB0008091810082608093810080918100816096
:102FC0008093810080918000816080938000809157
:102FD000B10084608093B1008091B00081608093E3
:102FE000B00080917A00846080937A0080917A00AA
:102FF000826080937A0080917A00816080937A0069
:1030000080917A00806880937A001092C1008AE2F1
:1030100092E090932902809328028FED92E09093A2
:10302000FA028093F90288E090E090930203809383
:1030300001038FEE92E09093FC028093FB0284E008
:1030400090E0909304038093030385ED92E09093C6
:10305000FE028093FD0285E090E09093060380934A
:10306000050387EC92E0909300038093FF0287E0D2
:1030700090E0909308038093070381E08093F70228
:103080008CE08093F802E0913A02F0913B0282E0FA
:103090008083E0913602F09137021082E09138028D
:1030A000F091390280E1808310924202E0913E0269
:1030B000F0913F0286E08083E0913C02F0913D0276
:1030C000808180618083E0913C02F0913D028081AB
:1030D00088608083E0913C02F0913D0280818068AD
:1030E0008083E0913C02F0913D0280818F7D80835E
:1030F0008091C20086608093C20061E08CE00E94F3
:10310000B00260E08CE00E9482028FE291E0A0E0D9
:10311000B0E08093090390930A03A0930B03B0934C
:103120000C031092E2021092E10290E080E00E9413
:10313000D60E90E0009711F481E190E09093D602D2
:103140008093D50281E090E00E94D60E90E09093AB
:10315000E4028093E30282E090E00E94D60EC82F42
:1031600083E090E00E94D60E2C2F30E0322F2227F1
:10317000820F932F911D9093D8028093D70284E001
:1031800090E00E94D60E90E09093E6028093E502D4
:1031900085E090E00E94D60EC82F86E090E00E9465
:1031A000D60E2C2F30E0322F2227820F932F911D25
:1031B0009093DA028093D90287E090E00E94D60EC5
:1031C000C82F88E090E00E94D60E2C2F30E0322FDE
:1031D0002227820F932F911D9093DC028093DB02B4
:1031E00089E090E00E94D60E90E09093E8028093F0
:1031F000E7028AE090E00E94D60EC82F8BE090E0B4
:103200000E94D60E2C2F30E0322F2227820F932FD0
:10321000911D9093DE028093DD020E94340E0E9485
:10322000D80E81EB98E00E94C00B8EEA91E10E94DB
:10323000C00B8DE398E00E94C00B83E29BE00E94EC
:10324000C00B8FE192E00E94FB088AE292E00E94AC
:103250003A0504E610E070E0E72E70E0F72E0E94D9
:10326000260480901B0290901C02A0901D02B0903A
:103270001E02681979098A099B096A30710581055E
:103280009105D0F10E94260460931B0270931C02EA
:1032900080931D0290931E028091190290911A0250
:1032A0000196B8010E94231C90931A028093190280
:1032B000C0E080910F0390911003C8171906E4F441
:1032C000E0911103F0911203C080D18080E030972B
:1032D00051F466E371E08DE093E00E941F09F6016E
:1032E0000995CF5FE6CFC817D1F30280F381E02DB7
:1032F000C080D1808F5FF7CFE114F10409F4AFCF24
:103300000E949C04882309F4AACF0E940000A7CF42
:103310008DE093E00E94770D85E193E00E94770DA8
:103320008DE193E00E94DD0D8DEF94E00C94A00DF3
:103330000E94DA1908F481E00895E89409C097FB27
:103340003EF490958095709561957F4F8F4F9F4F7C
:103350009923A9F0F92F96E9BB279395F6958795C0
:1033600077956795B795F111F8CFFAF4BB0F11F483
:1033700060FF1BC06F5F7F4F8F4F9F4F16C088232A
:1033800011F096E911C0772321F09EE8872F762F60
:1033900005C0662371F096E8862F70E060E02AF0A1
:1033A0009A95660F771F881FDAF7880F969587958D
:1033B00097F90895990F0008550FAA0BE0E8FEEF62
:1033C00016161706E807F907C0F012161306E407E9
:1033D000F50798F0621B730B840B950B39F40A26E2
:1033E00061F0232B242B252B21F408950A2609F4C0
:1033F000A140A6958FEF811D811D08950E94111A8D
:103400000C94821A0E94741A38F00E947B1A20F0E1
:10341000952311F00C946B1A0C94711A11240C94CE
:10342000B61A0E94931A70F3959FC1F3950F50E05E
:10343000551F629FF001729FBB27F00DB11D639F66
:10344000AA27F00DB11DAA1F649F6627B00DA11D0C
:10345000661F829F2227B00DA11D621F739FB00DB2
:10346000A11D621F839FA00D611D221F749F332722
:10347000A00D611D231F849F600D211D822F762FBB
:103480006A2F11249F5750409AF0F1F088234AF098
:10349000EE0FFF1FBB1F661F771F881F9150504004
:1034A000A9F79E3F510580F00C946B1A0C94B61A44
:1034B0005F3FE4F3983ED4F3869577956795B7958B
:1034C000F795E7959F5FC1F7FE2B880F911D9695A5
:1034D000879597F9089597F99F6780E870E060E015
:1034E00008959FEF80EC089500240A94161617069D
:1034F00018060906089500240A94121613061406E5
:1035000005060895092E0394000C11F4882352F047
:10351000BB0F40F4BF2B11F460FF04C06F5F7F4FFF
:103520008F4F9F4F089557FD9058440F551F59F0E6
:103530005F3F71F04795880F97FB991F61F09F3FA0
:1035400079F087950895121613061406551FF2CFC9
:103550004695F1DF08C0161617061806991FF1CF19
:1035600086957105610508940895E894BB27662740
:103570007727CB0197F90895F999FECF92BD81BDC8
:10358000F89A992780B50895262FF999FECF1FBA8A
:1035900092BD81BD20BD0FB6F894FA9AF99A0FBE7C
:1035A000019608952F923F924F925F926F927F9271
:1035B0008F929F92AF92BF92CF92DF92EF92FF9243
:1035C0000F931F93CF93DF93CDB7DEB7CA1BDB0BEF
:1035D0000FB6F894DEBF0FBECDBF09942A88398894
:1035E00048885F846E847D848C849B84AA84B9849B
:1035F000C884DF80EE80FD800C811B81AA81B981A7
:10360000CE0FD11D0FB6F894DEBF0FBECDBFED01BA
:1036100008955058BB27AA270E94211B0C94821A98
:103620000E94741A38F00E947B1A20F039F49F3FF0
:1036300019F426F40C94711A0EF4E095E7FB0C943F
:103640006B1AE92F0E94931A58F3BA17620773078F
:103650008407950720F079F4A6F50C94B51A0EF4BA
:10366000E0950B2EBA2FA02D0B01B90190010C0192
:10367000CA01A0011124FF27591B99F0593F50F4AA
:10368000503E68F11A16F040A22F232F342F442702
:10369000585FF3CF469537952795A795F0405395FA
:1036A000C9F77EF41F16BA0B620B730B840BBAF0CA
:1036B0009150A1F0FF0FBB1F661F771F881FC2F735
:1036C0000EC0BA0F621F731F841F48F48795779549
:1036D0006795B795F7959E3F08F0B0CF9395880F03
:1036E00008F09927EE0F9795879508950E948A1BF9
:1036F0000C94821A0E947B1A58F00E94741A40F0AF
:1037000029F45F3F29F00C946B1A51110C94B61AEE
:103710000C94711A0E94931A68F39923B1F35523FC
:1037200091F3951B550BBB27AA27621773078407D4
:1037300038F09F5F5F4F220F331F441FAA1FA9F36A
:1037400035D00E2E3AF0E0E832D091505040E69558
:10375000001CCAF72BD0FE2F29D0660F771F881FB9
:10376000BB1F261737074807AB07B0E809F0BB0BAC
:10377000802DBF01FF2793585F4F3AF09E3F5105C0
:1037800078F00C946B1A0C94B61A5F3FE4F3983EF1
:10379000D4F3869577956795B795F7959F5FC9F7A9
:1037A000880F911D9695879597F90895E1E0660F2A
:1037B000771F881FBB1F621773078407BA0720F0A3
:1037C000621B730B840BBA0BEE1F88F7E09508950C
:1037D0000E94EF1B6894B1110C94B61A08950E94D0
:1037E0009B1A88F09F5798F0B92F9927B751B0F0DE
:1037F000E1F0660F771F881F991F1AF0BA95C9F775
:1038000014C0B13091F00E94B51AB1E008950C9443
:10381000B51A672F782F8827B85F39F0B93FCCF3F6
:10382000869577956795B395D9F73EF490958095F1
:10383000709561957F4F8F4F9F4F08950E94DA19C1
:1038400008F48FEF0895AA1BBB1B51E107C0AA1F04
:10385000BB1FA617B70710F0A61BB70B881F991F31
:103860005A95A9F780959095BC01CD010895EE0F6A
:10387000FF1F0590F491E02D09940F931F93CF93B0
:10388000DF938230910510F482E090E0E091F3053F
:10389000F091F40530E020E0B0E0A0E0309799F43A
:1038A0002115310509F44AC0281B390B2430310594
:1038B000D8F58A819B816115710589F1FB0193839C
:1038C0008283FE0111C0408151810281138148171A
:1038D0005907E0F04817590799F4109761F01296CC
:1038E0000C93129713961C933296CF01DF91CF91D0
:1038F0001F910F9108950093F3051093F405F4CFF1
:103900002115310551F04217530738F0A901DB01A9
:103910009A01BD01DF01F801C1CFEF01F9CF90930A
:10392000F4058093F305CDCFFE01E20FF31F8193E1
:1039300091932250310939832883D7CF2091F10503
:103940003091F205232B41F42091020130910301C3
:103950003093F2052093F10520910001309101018F
:103960002115310541F42DB73EB740910401509126
:103970000501241B350BE091F105F091F205E217EA
:10398000F307A0F42E1B3F0B2817390778F0AC0182
:103990004E5F5F4F2417350748F04E0F5F1F50935F
:1039A000F2054093F105819391939FCFF0E0E0E021
:1039B0009CCFCF93DF930097E9F0FC0132971382FD
:1039C0001282A091F305B091F405ED0130E020E002
:1039D0001097A1F420813181820F931F2091F1056E
:1039E0003091F2052817390709F061C0F093F2050C
:1039F000E093F105DF91CF910895EA01CE17DF073B
:103A0000E8F54A815B819E0141155105B1F7E90155
:103A1000FB83EA8349915991C40FD51FEC17FD0729
:103A200061F4808191810296840F951FE901998349
:103A30008883828193819B838A83F0E0E0E0129601
:103A40008D919C9113970097B9F52D913C91119709
:103A5000CD010296820F931F2091F1053091F2055E
:103A60002817390739F6309751F51092F40510925E
:103A7000F305B093F205A093F105BCCFD383C283C5
:103A800040815181840F951FC817D90761F44E5F9B
:103A90005F4F88819981480F591F518340838A81E4
:103AA0009B81938382832115310509F0B0CFF09378
:103AB000F405E093F3059ECFFD01DC01C0CF138236
:103AC0001282D7CFB0E0A0E0E8E6FDE10C94D41A72
:103AD0008C01009751F4CB010E943D1C8C01C80160
:103AE000CDB7DEB7E0E10C94F01AFC01E60FF71F4A
:103AF0009C0122503109E217F30708F49DC0D90157
:103B0000CD91DC911197C617D70798F0C530D10534
:103B100030F3CE0104978617970708F3C61BD70B1F
:103B20002297C193D1936D937C93CF010E94D91CAE
:103B3000D6CF5B01AC1ABD0A4C018C0E9D1EA09124
:103B4000F305B091F405512C412CF12CE12C109788
:103B500031F58091F1059091F2058815990509F0EC
:103B60005CC04616570608F058C08091000190913D
:103B70000101009741F48DB79EB740910401509127
:103B80000501841B950BE817F90708F055C0F09361
:103B9000F205E093F105F90171836083A0CF8D9167
:103BA0009C91119712966C90129713967C90139794
:103BB000A815B90559F56C0142E0C40ED11CCA1410
:103BC000DB0420F1AC014A195B09DA011296159762
:103BD00080F06282738251834083D9016D937C931C
:103BE000E114F10471F0D7011396FC93EE93129750
:103BF00076CF22968C0F9D1FF90191838083F3016C
:103C0000EFCFF093F405E093F30569CF481659061A
:103C100008F42C017D01D3019ACFCB010E943D1CF9
:103C20007C01009749F0AE01B8010E941F1EC80137
:103C30000E94D91C870153CF10E000E050CFFB0158
:103C4000DC0102C001900D9241505040D8F7089518
:103C5000FB01DC0101900D920020E1F70895AEE038
:103C6000B0E0E5E3FEE10C94E01A0D891E8986E0E0
:103C70008C831A8309838FEF9FE79E838D83AE0128
:103C8000475E5F4F6F89788DCE0101960E94521E6C
:103C90002F813885020F131FF80110822E96E4E061
:103CA0000C94FC1AABE0B0E0E8E5FEE10C94D21A0B
:103CB0007C013B018A01FC0117821682838181FF0E
:103CC000C8C1CE0101965C01F7019381F30193FD18
:103CD000859193FF81913F01882309F453C1853277
:103CE00039F493FD859193FF81913F01853229F449
:103CF000B70190E00E944220E7CF912C212C312C7B
:103D0000FFE1F31538F08B3211F190F4803209F1B4
:103D1000833229F137FC3CC020ED280F2A3050F5C2
:103D200036FE20C08AE0989E200D1124922E06C0F7
:103D30008D3291F0803371F7689430F8F30193FD80
:103D4000859193FF81913F018111DACF21C0689461
:103D500031F8689432F8F2CF689433F8EFCF689472
:103D600034F8ECCFEAE02E9E200D1124222E689428
:103D700035F8E4CF8E3229F436FC04C1689436F865
:103D8000DDCF8C3619F4689437F8D8CF8836B1F285
:103D9000982F9F7D95549330E0F08336A1F18337BF
:103DA000C1F1833509F063C02801F2E04F0E511CC8
:103DB000F801C080D180692D70E036FC02C06FEF41
:103DC0007FEFC6010E942C204C01689437F88201D5
:103DD0000AC00C5F1F4FFFE3F98388248394912C62
:103DE0006501E89437F833FE2DC0522C81149104FC
:103DF00071F5552009F468CFB70180E290E00E9488
:103E000042205A94F6CFF801808189830E5F1F4FBC
:103E1000E4CF2801F2E04F0E511CF801C080D180A0
:103E2000692D70E036FC02C06FEF7FEFC6010E9483
:103E300037204C018201D5CFB70180E290E00E948B
:103E400042202A942814190409F0B0F7CECFF601C5
:103E500037FC859137FE81916F01B70190E00E9498
:103E6000422051105A94F1E08F1A9108BFCF843646
:103E700019F0893609F077C0F80137FE6BC0608110
:103E80007181828193810C5F1F4FF32DFF763F2E4E
:103E900097FF09C090958095709561957F4F8F4FE2
:103EA0009F4F689437F82AE030E0A5010E94722005
:103EB000C82ECA188C2C432C36FE0CC0E89440F84F
:103EC000C91440F434FE05C032FC03C0F32DFE7E5D
:103ED0004F2E892C44FE95C0FE01EC0DF11D808112
:103EE000803309F087C0242D297E422E842D8870CE
:103EF000582E43FC95C040FE8FC09C2C821418F4B1
:103F00002C0C922C981844FE91C0B70180E390E0ED
:103F10000E94422042FE09C088E790E041FE02C0B4
:103F200088E590E0B7010E944220C91408F48AC0D5
:103F3000CA94D12C9FEFC91AD90ACA0CDB1CF6010E
:103F400082916F01B70190E00E944220AC14BD0441
:103F5000B1F74FCF60817181072E000C880B990B50
:103F60000E5F1F4F92CFD32CE894D4F82AE030E0B4
:103F7000853739F1232D297FD22E8F3601F148F470
:103F80008835A9F0F701868197812B96E2E10C94A0
:103F9000EE1A803749F08837A9F7D4FE02C068943A
:103FA000D2F820E130E00DC06894D4F8F6CF34FEAA
:103FB00003C0822F8660D82E20E132E002C028E0C4
:103FC00030E0F801D7FE0FC060817181828193815A
:103FD0000C5F1F4FA5010E947220C82ECA183D2CED
:103FE000E89437F867CF6081718190E080E00E5FE0
:103FF0001F4FF0CF42FC02C0839478CF8394839408
:1040000075CF842D867809F471CFF6CFB70180E2A1
:1040100090E00E94422083948214C0F3512C73CF0D
:10402000522C5818821408F46ECFF8CF842D86785D
:1040300009F47BCF8BE241FE80E247FC8DE2B701C1
:1040400090E071CFB70180E390E00E9442209A9403
:104050006CCF8FEF9FEF99CFFC01059061507040BE
:104060000110D8F7809590958E0F9F1F0895FC0141
:104070006150704001900110D8F7809590958E0F97
:104080009F1F08950F931F93CF93DF93182F092F2E
:10409000EB018B8181FD09C01FEF0FEF812F902F66
:1040A000DF91CF911F910F91089582FF14C02E814F
:1040B0003F818C819D81281739073CF4E881F98183
:1040C000CF0101969983888310838E819F81019609
:1040D0009F838E83E3CFE885F985812F0995892B0E
:1040E000A1F3DACFFA01AA27283051F1203181F16A
:1040F000E8946F936E7F6E5F7F4F8F4F9F4FAF4FF0
:10410000B1E03ED0B4E03CD0670F781F891F9A1F02
:10411000A11D680F791F8A1F911DA11D6A0F711DB6
:10412000811D911DA11D20D009F468943F912AE0C2
:10413000269F11243019305D3193DEF6CF010895AA
:10414000462F4770405D4193B3E00FD0C9F7F6CFDB
:10415000462F4F70405D4A3318F0495D31FD4052A3
:10416000419302D0A9F7EACFB4E0A6959795879539
:1041700077956795BA95C9F7009761057105089518
:104180009B01AC010A2E06945795479537952795C4
:10419000BA95C9F7620F731F841F951FA01D08955C
:1041A00011E0C9E4D1E004C0FE010E94371C219651
:0A41B000CA34D107C9F7F894FFCF15
:1041BA000000F50580000102030405061000000056
:1041CA0000A00DD30D550C00000000D20432045F8C
:1041DA00043A0590046E04820400000000DD0D1606
:1041EA000EA70C0D0A0051554555453A2063616EDC
:1041FA002774207065656B206974656D2066726F1F
:10420A006D2071756575653A2071756575652069EA
:10421A007320656D7074792E0051554555453A20C5
:10422A00696E73756666696369656E74206D656D1E
:10423A006F727920746F20637265617465206120E2
:10424A006E6577206E6F64652E00203A20496E7481
:10425A006572727570746F72202D2D3E2000424F68
:10426A0054D34E203100424F54D34E203200502EA8
:10427A00204F70740050495200504F542031005062
:10428A004F5420320050485F52455300532E544534
:10429A004D500050485F54544F520056616C6F7233
:1042AA00204D425F544D505F5049523A20256400D8
:00000001FF
